:020000040800F2
:10000000681300209D0100089357000881450008EF
:1000100091570008E10C0008457B00080000000033
:10002000000000000000000000000000CB7000088D
:10003000A911000800000000F1580008CD70000868
:10004000B7010008B7010008B7010008B7010008B0
:10005000B7010008B7010008AB110008B70100089C
:10006000B7010008B1110008B7110008B701000876
:10007000090D0008B7010008B7010008B701000822
:10008000B7010008B7010008B7010008F10C00082B
:10009000E50C0008B7010008B7010008BD11000811
:1000A000B7010008B7010008B7010008B701000850
:1000B000B7010008AD710008B7010008B7010008DA
:1000C000B7010008B7010008B7010008B701000830
:1000D000B7010008B9790008B7010008817A000863
:1000E000B7010008B7010008B7010008B701000810
:1000F000B7010008B7010008B7010008B701000800
:10010000B7010008B7010008B7010008B7010008EF
:10011000B7010008B7010008B7010008B7010008DF
:10012000B7010008B7010008150D0008E90F000825
:10013000B7010008B7010008B7010008B7010008BF
:10014000FD0C0008B7010008B7010008B70100085E
:10015000F50F0008B701000801100008B7010008FA
:10016000B7010008B7010008B7010008B70100088F
:10017000B7010008B7010008B7010008000000003F
:10018000B7010008B7010008DFF80CD000F072FBDF
:1001900000480047B19F00086813002006488047C8
:1001A00006480047FEE7FEE7FEE7FEE7FEE7FEE75C
:1001B000FEE7FEE7FEE7FEE755710008890100084B
:1001C0002DE9F05F0546002092469B46884606468C
:1001D000814640241BE0284641464746224600F01F
:1001E000D2F953465A46C01A914110D311461846C7
:1001F000224600F0B9F92D1A67EB01084F46224656
:100200000120002100F0B0F917EB00094E41201E3B
:10021000A4F10104DFDC484631462A464346BDE8E6
:10022000F09F40EA01039B0703D009E008C9121FB1
:1002300008C0042AFAD203E011F8013B00F8013BA0
:10024000521EF9D27047D2B201E000F8012B491ECC
:10025000FBD270470022F6E710B513460A46044663
:100260001946FFF7F0FF204610BD2DE9FE4F8046EE
:1002700081EA0300C00F0C46009021F0004123F0FA
:100280000045B8EB0200A94105D240462146904600
:100290001C460B46024623F00040104347D0270D72
:1002A000C7F30A00C3F30A510290401A0190402894
:1002B0006BDAC3F3130040F4801B0098924620B120
:1002C0000023D2EB030A63EB0B0B01985946C0F1F4
:1002D0004002504600F048F906460D465046594641
:1002E000019A00F060F910EB08006141002487EAF0
:1002F000115284EAE7731A4340D0009A62B3019A1C
:10030000012A4FEA075215DC001B61EB02014FF096
:10031000004202EA0752CDE90042001C41F580117B
:1003200032462B4600F097F903B0BDE8F08F404607
:100330002146F9E7001B61EB0201001C41F5801327
:1003400000185B412018A2F5001747EB030140EAB3
:10035000D570B6196D4111E06D084FEA360645EAD1
:10036000C0754FEA0752001B61EB0201001C41F50A
:10037000801149084FEA30000019514132462B469E
:1003800003B0BDE8F04F00F057B9009801224000DB
:100390000023D0EB020263EBE073009821464FEAA2
:1003A000E074B8EB000061EB0401E9E783F000437F
:1003B0005BE781F0004158E72DE9FE4F81EA030435
:1003C00004F0004421F0004100944FF0000B23F0B2
:1003D000004350EA01045ED052EA03045BD0C3F349
:1003E0000A54C1F30A552C44A4F2F3340194A0FB3F
:1003F0000254C1F3130141F48011C3F3130343F416
:10040000801301FB024400FB034E840A970A44EA6E
:10041000815447EA8357A4FB076802958D0A05FBC0
:1004200007854FEA932C04FB0C542705029D4FEAE5
:10043000065847EA1637B5EB08056EEB070C870E32
:10044000920E47EA811742EA8312A7FB0201B6EB3C
:100450000B0164EB00042B0D43EA0C335E1844EBF4
:100460001C50DA465146E7FB0201C5F313044FEA7C
:100470000B3343EA14534FEA0432019C43EA060368
:10048000A4F10C040294009CCDE900B400F0E3F860
:1004900003B0BDE8F08F00200146F9E70EB5C10FAB
:1004A00080EAE0700844CA07002140F233438DE837
:1004B0000E000A460B4600F0CEF803B000BD0EB5A4
:1004C00040F2334102910021CDE900110A460B466A
:1004D00000F0C1F803B000BD00F0004230F0004071
:1004E0000AD0C10D01F56071C0F3160042EA015156
:1004F000C2084007114370470020014670470000C2
:1005000030B5041E71F1000404DB4FF0004440429A
:1005100064EB0101141E73F1000405DB1C464FF06F
:100520000043524263EB04038B4208BF824230BD5A
:1005300001F0004330B421F0004150EA010206D03E
:100540000A0DA2F56072C1F31301002A02DC30BC6F
:1005500000207047440F44EAC104C100E01830BCD9
:1005600000EBC25000F031B8202A04DB203A00FA38
:1005700002F1002070479140C2F1200320FA03F3FA
:10058000194390407047202A04DB203A21FA02F0F8
:100590000021704721FA02F3D040C2F120029140BD
:1005A000084319467047202A06DBCB17203A41FA48
:1005B00002F043EAE07306E041FA02F3D040C2F1F0
:1005C000200291400843194670470029A8BF704790
:1005D000401C490008BF20F00100704710B4B0FA79
:1005E00080FC00FA0CF050EA010404BF10BC704714
:1005F00049B1CCF1200421FA04F411FA0CF118BF2E
:10060000012121430843A3EB0C01CB1D4FEA0061FC
:100610004FEA102042BF002010BC704700EBC350CF
:1006200010440029A4BF10BC7047401C490008BFFB
:1006300020F0010010BC704710B5141E73F10004C7
:1006400008DA401C41F1000192185B411A4301D1C4
:1006500020F0010010BD2DE9F04D92469B4611B1EE
:10066000B1FA81F202E0B0FA80F220329046FFF750
:100670007BFF04460F4640EA0A0041EA0B0153465D
:100680005A46084313D0114653EA010019D0C8F165
:1006900040025046FFF777FF05460E465046594642
:1006A0004246FFF761FF084305D0012004E02046E1
:1006B0003946BDE8F08D0020054346EAE0762C433C
:1006C00037430A986305E40AA0EB08000022FD0AFC
:1006D00044EA47540A3002D500200146E9E7010503
:1006E00010196941DDE9084500196941BDE8F04D7F
:1006F000A2E72DE9F04D81EA030404F0004B21F05C
:10070000004514464FF0000A23F0004150EA05026C
:1007100020D054EA01021DD0C5F30A570246C5F3A2
:100720001303C1F31300C1F30A5640F4801543F4D8
:100730008013A7EB0608101BD64608F2FD3873EBB2
:10074000050002D308F1010801E092185B41B8F1FD
:10075000000F03DA00200146BDE8F08D00204FF4C1
:100760008011064684460EE0171B73EB050705D380
:10077000121B63EB050306434CEA010C49084FEAE0
:10078000300092185B4150EA0107EDD152EA0300B4
:1007900012D082EA040083EA0501084305D0101B49
:1007A000AB4106D20122002306E000224FF00043B5
:1007B00002E06FF0010253101AEB06004CEB0851F7
:1007C00010EB0A0041EB0B01BDE8F04DFFF734BF21
:1007D0002DE9F04D00231A461B1A8A4103DB002045
:1007E0000146BDE8F08DC1F30A52C1F3130141F493
:1007F00080154FF0000BD10702D100186D41521E39
:100800000027044640F2FF11384601EB620A3E46DB
:100810008046024600204FF48011FFF7B4FEC21953
:100820007141BB1846EB0100B4EB030C75EB000CF7
:1008300004D3E41A65EB000517460E46241908F1A7
:1008400001006D4180463428E3DDF91946EB0600CE
:10085000091BA84103D24FF0FF32134601E00022EA
:1008600013461BEB070046EB0A51BDE8F04DFFF7BE
:10087000E3BE0000064C074D06E0E06840F00103CF
:1008800094E8070098471034AC42F6D3FFF780FC99
:10089000D0A90008F0A9000870B58C1810F8015B09
:1008A00015F0070301D110F8013B2A1106D110F809
:1008B000012B03E010F8016B01F8016B5B1EF9D10D
:1008C0002B0705D40023521E0DD401F8013BFAE793
:1008D00010F8013BCB1A921C03E013F8015B01F8FE
:1008E000015B521EF9D5A142D8D3002070BD000093
:1008F000B7EE000A80ED000A9FED040A80ED010AC0
:1009000080ED020A80ED030A70470000000000003D
:100910009FED053AD2EC031AB0EE434AF0EE433AAB
:1009200091EC030A04F098BC0000000001221021A1
:10093000014801F0CFBF000000000240002210215A
:10094000014801F0C7BF00000000024070470000EE
:1009500001221146014801F0BDBF00000004024021
:1009600000220121014801F0B5BF0000000402404F
:1009700030B5437804781B021BB2234300EE103AD3
:10098000194CB8EEC00AD4ED000A20EE200A81ED21
:10099000000AC37885781B021BB22B4300EE103A85
:1009A000D4ED000AB8EEC00A20EE200A81ED010A5B
:1009B000437904791B021BB2234300EE103AB8EED0
:1009C000C00A20EE200ADFED090A81ED020AD0F804
:1009D000060020F07F4000EE100AB8EE400A20EE3C
:1009E000200A82ED000A30BDA402002000401C4213
:1009F000704708F067BC08F07FBC000010B5427873
:100A00000378120212B21A4300EE102A124BB8EE0B
:100A1000C00AD3ED010A20EE200A81ED000AC27857
:100A20008478120212B2224300EE102AD3ED010A9A
:100A3000B8EEC00A20EE200A81ED010A4279007961
:100A4000120212B2024300EE102AB8EEC00A20EEE3
:100A5000200A81ED020A10BDA402002010B5FFF7A4
:100A600075FFFFF7C5FF07F0AFFF08B1802402E074
:100A700007F016FF044608F075F910B144F0400085
:100A800010BD08F001F9204310BD00002DE9FC4124
:100A90000746002016460D4600900190FFF74EFFD6
:100AA000922000F0BDF806226946122000F09AF864
:100AB000FFF73CFF9DF801009DF80010000200B216
:100AC000084300EE100A464CB8EEC00AD4ED000A06
:100AD00020EE200A85ED000A9DF803009DF8021023
:100AE000000200B2084300EE100AD4ED000AB8EE8E
:100AF000C00A20EE200A85ED010A9DF805009DF848
:100B00000410000200B2084300EE100AB8EEC00A5A
:100B100020EE200A85ED020AFFF722FF082269462F
:100B2000002000F05FF8FFF713FF9DF800000F288A
:100B300030D19DF803009DF80210000200B2084376
:100B400000EE100AD4ED010AB8EEC00A20EE200A29
:100B500087ED000A9DF805009DF80410000200B220
:100B6000084300EE100AD4ED010AB8EEC00A20EEE8
:100B7000200A87ED010A9DF807009DF80610000283
:100B800000B2084300EE100AB8EEC00A20EE200AB8
:100B900087ED020AFFF7D2FEA22000F041F8022200
:100BA0006946222000F01EF8FFF7C0FE9DF8000005
:100BB0009DF80110C00040EA5110B0F5806F01DBD4
:100BC000A0F5006000EE100AB4EE001AF8EEC00ABC
:100BD000B3EE070A00EE810A86ED000ABDE8FC814B
:100BE000A402002070B514460D4640F0800000F0CD
:100BF00017F806E0552000F013F8641E05F8010B05
:100C0000E4B2002CF6D170BD10B50C4640F0800067
:100C100000F006F8552000F003F8207010BD000029
:100C200001B582B04FF47A700090012301AA02A9A5
:100C3000024802F031FE9DF804000EBD880300203A
:100C400002784078D20042EA5010B0F5806F01DBA4
:100C5000A0F5006000EE100AB4EE001AF8EEC00A2B
:100C6000B3EE070A00EE810A81ED000A704710B565
:100C70000C46FFF7D5FF2046BDE81040FFF7D0BF78
:100C800010B58AB0002001210090019002900390DD
:100C9000CDE9051004900E2008910791099069464E
:100CA0000D4800F0ADFD0F20059069460B4800F09F
:100CB000A7FD0446084801F0E0F9084801F0DDF915
:100CC0000221054800F008FD0221044800F004FD5F
:100CD0000AB0204610BD0000E40200200C030020F2
:100CE000FEE70000014800F0D6BE0000E40200204C
:100CF000014800F0D0BE0000E4020020014800F0EE
:100D0000CABE00000C030020014801F041BA0000F7
:100D1000600700202DE9F05FAB48AC4BAC4CC06CD9
:100D2000AA4DAB4EA94F0068A849DFF8A492DFF89E
:100D30009CA2DFF89CB2DFF894E2A54A483B6034FD
:100D400018351836303F09F178090AF1300A4FF4A6
:100D5000006C0BF1300BAEF1180E884223D99B4981
:100D6000543926E0A84233D14FF020080AE050451C
:100D700035D1E04606E000BF4FF4001802E000BFA6
:100D80004FF0006811EA080F7CD09049884253D98F
:100D9000904205D0984203D0A04201D0A8422FD162
:100DA0004FF0200C45E08A49A831884203D9874991
:100DB0005839096805E08649483188428549F8D99B
:100DC00049689042D0D09842CED0A042CCD0C9E75A
:100DD000B042CED0B842CCD04845CAD0C7E758457B
:100DE000CAD07045C8D0DFF8E88108F190084045C6
:100DF000C2D0DFF8D88108F148084045C0D1BBE730
:100E0000B04216D0B84214D0484512D0504510D048
:100E1000584509D0704507D06D499031884203D0BC
:100E20006A494831884202D14FF4001C01E04FF07A
:100E3000006C66484C382AE06549A831884229D9B7
:100E4000904205D0984203D0A04201D0A84202D1DE
:100E50004FF0200C19E0B04217D0B84215D04845E9
:100E600013D0504511D0584509D0704507D0584986
:100E70009031884203D055494831884203D14FF41C
:100E8000001C02E09DE04FF0006C50485038C0F864
:100E900000C052E04E494831884227D9904205D0DF
:100EA000984203D0A04201D0A84202D14FF0200CBA
:100EB00018E0B04216D0B84214D0484512D0504580
:100EC00010D0584509D0704507D04149903188422B
:100ED00003D03E494831884202D14FF4001C01E062
:100EE0004FF0006C3B48C0F80CC026E0904205D0A3
:100EF000984203D0A04201D0A84202D14FF0200C6A
:100F000018E0B04216D0B84214D0484512D050452F
:100F100010D0584509D0704507D02D4990318842EE
:100F200003D02A494831884202D14FF4001C01E025
:100F30004FF0006C2748C0F808C0274C2078800785
:100F40000CD5207820F002002070207840F00400BA
:100F5000207001221146214801F0BCFC6078204D30
:100F600080070CD5607820F002006070607840F057
:100F70000400607001221021284601F0ABFCA0782B
:100F800080070CD5A07820F00200A070A07840F077
:100F90000400A07001221021284601F09BFC08F0FB
:100FA00011FD207840070CD5207820F00400207037
:100FB000207840F0080020700A48016841F00101E3
:100FC0000160BDE8F09F00008803002058640240E3
:100FD0001060024000600240100000200004024047
:100FE00000000240103C0140014801F0D1B800006F
:100FF00040040020014801F0CBB80000A00600200A
:10100000014801F0C5B800000007002001680A4B44
:10101000CAB2103AA3FB02321209084B9B5CC365AB
:10102000032A04D96FF30901091D816502E06FF3FA
:1010300009018165806D7047ABAAAAAA09A90008B9
:10104000014600208A6A8B69002B0FD0B3F5005F40
:101050001DD08AB3012A30D0022A2ED0032A04D10F
:10106000C96A11F0807F00D0012070471AB1012AAF
:1010700007D0022AF9D1C96A11F0807FF5D001208A
:101080007047C96AB1F1C07FFAD1012070475AB1E7
:10109000012A0BD0022A07D0032AF7D1C96AB1F17D
:1010A000C07FF3D10120704701207047C96A11F059
:1010B000807FFAD001207047FFE7012070470000D1
:1010C00070B509F081FB2449DFED240A244C91ED31
:1010D0004D0A24482A2620EE200ABDEEC00A10EE52
:1010E000103AE36090ED4D0A20EE200ABDEEC00AF2
:1010F00010EE102A226191ED4F0A20EE200ABDEE7B
:10110000C00A10EE101A616190ED4F0A164820EEE9
:10111000200ABDEEC00A10EE105AA56106701E0A24
:1011200086704370130A0371C2700A0A827141719A
:10113000290A01720921C57100224254491C0D2956
:10114000FBDB3B214173FF230E220749074803F0D5
:10115000A9F9A07070BD0000F80900200000C84285
:10116000BC0000204C0B0020EA090020A005002054
:1011700010B4D0F800C0DCF8004024F48024CCF88F
:101180000040D0F800C0CCF804308368402B05D074
:10119000036899600068C26010BC704703689A6079
:1011A0000068C16010BC70477047012001F086BA2A
:1011B000082001F083BA102001F080BA202001F04D
:1011C0007DBA70470022002905D001291AD00229D2
:1011D0001BD04FF440720E490B6823F440730B6030
:1011E0000B681A430A600A6822F0F8020A600A686B
:1011F000022343EAC00010430860086840F48030CE
:10120000086070474FF48072E5E74FF40072E2E740
:10121000103C02401448016811F4007F0FD00168AF
:1012200021F400710160016841F40061016001680E
:1012300021F400610160016841F4007101600168FE
:1012400011F4806F0FD0016821F4806101600168A2
:1012500041F480510160016821F48051016001680E
:1012600041F4806101607047003C024008490A680F
:1012700022F440720A600A6842F004020A600A68B6
:101280004FF4803343EA00201043086070470000A9
:10129000103C0240064A136823F44073136013683D
:1012A0001360136843F0010313600170704700007E
:1012B000103C02400A49D1F800C02CF4407CC1F82F
:1012C00000C0D1F800C04CF4407CC1F800C0D1F897
:1012D00000C04CF0010CC1F800C0026043607047D0
:1012E000103C0240074A136823F4407313601368EC
:1012F00043F480731360136843F0010313600180AB
:1013000070470000103C0240074A136823F4407302
:101310001360136843F400731360136843F0010310
:101320001360016070470000103C02401A490868D1
:1013300010F0100F194805D0C26942F01002C261C6
:1013400010220A600A6812F0200F05D0C26942F02C
:101350000802C26120220A600A6812F0400F05D01C
:10136000C26942F00402C26140220A600A6812F0B7
:10137000800F05D0C26942F00202C26180220A6079
:101380000A6812F0020F05D0C26942F02002C26161
:1013900002200860704700000C3C0240440F00200F
:1013A00070B5044614490020C86101F09BFA064656
:1013B000124D286810F4803F0ED0B4F1FF3F07D0E3
:1013C00024B101F08FFA801BA04201D9032070BD27
:1013D000286810F4803FF0D1286810F0010F01D088
:1013E00001202860286810F0F20F03D0FFF79EFF5D
:1013F000012070BD002070BD440F00200C3C024055
:101400002C499FED2D1A314A8888314B00EE100A85
:101410002B48B8EE400AC0EE010A9FED280A60EEA4
:10142000800AC0ED510AD1ED031AF8EEE11A41EE3F
:10143000800AC0ED520AB1F9061000EE901A214957
:10144000F8EEE00AC0ED500A91ED002ADFED1E0A29
:10145000C2EE201AB6EE002A61EE801AC0ED4D1AD7
:10146000D2ED021A61EE821AC0ED4F1A988801EE91
:10147000900A1848F8EE611A81EE812A22EE001ACD
:1014800080ED511AB3F9063001EE103AB8EEC11AE8
:1014900080ED501A91ED021AC1EE201A21EE800A59
:1014A00080ED4D0A92ED010AB1EE400A80ED4F0A3F
:1014B00070470000C007002000F8FF450000B4435B
:1014C000F809002004090020D00FC940D0080020EE
:1014D000D00700204C0B002010B53B4C94F8520173
:1014E00010B9204608F083F994F8520101281ED162
:1014F000D4ED4C0A94ED4D0A344930EEC01A11EE89
:10150000100A9FED331A884203DD70EEC10AC4ED64
:101510004C0A30EEC00A2F4910EE100A884203D957
:1015200030EE810A84ED4C0A274808F045F994F81A
:10153000520102281AD1244C04F1E400D4ED520ADD
:1015400094ED4C0A04F026F994ED420A04F1980057
:1015500084ED4E0AD4ED500A04F01CF994ED2F0AE4
:10156000BDEEC00A10EE100AA4F850011A4C94F80F
:10157000520110B9204608F03AF994F852010128B6
:1015800002D1154808F018F994F8520102281AD12E
:10159000114C04F1E400D4ED510A94ED4C0A04F02E
:1015A000F9F894ED420A04F1980084ED4E0AD4ED66
:1015B000500A04F0EFF894ED2F0ABDEEC00A10EEC9
:1015C000100AA4F8500110BDF809002000003443AF
:1015D0000000B443000034C34C0B002010B5114C84
:1015E0002078002816D008F013F90F49237801203D
:1015F00001F5AA727BB10024052B07D0022B0AD07B
:10160000032B08D0042B0BD0012B03D181F85241BE
:1016100082F8524110BD81F8520182F8520110BD8A
:101620000220F8E7DC000020F809002010B506F0E1
:10163000A9FA174902209FED170A087016480021E1
:10164000012280ED4D0A80ED4F0A80ED510A80EDB8
:10165000500A80ED4C0A80ED4E0A80ED530AA0F846
:10166000501180F8522100F5AA7080ED4D0A80EDEE
:101670004F0A80ED510A80ED500A80ED4C0A80ED52
:101680004E0A80ED530AA0F8501180F8522110BD87
:10169000DC00002000000000F809002010B5FFF772
:1016A000AFFEFFF79BFF06F04FFA07F0C3FFFFF70F
:1016B00013FF0849B1F85001A0F6C41000B2A1F818
:1016C0005001A1F5AA71B1F95011BDE8104007F021
:1016D0006FBD00004C0B002090F82020012A07D09D
:1016E000022A05D0416A41F48021416201207047FD
:1016F00000684269114341610020704770B490F85E
:101700002040D0F800C0DCF808C0012C08D0022C22
:1017100006D0416A41F48021416270BC01207047CB
:101720000CF080640CF000652C430CF080552C43C9
:101730005FD0CCF3016CBCF1020F06D9416A41F4D1
:101740000001416270BC01207047012404FA0CF4CE
:101750001C608B684FF4C0749BB1CD6804EB0C1611
:101760002B434D6843EAC5030568AB514FF4C27380
:10177000066803EB0C130D69F550097D012909D0AA
:101780000DE00D88CB6804EB0C1643EA4553056861
:10179000AB51EBE70168CD5845F48075CD50117918
:1017A000D379557941EA036193791B0443EA052310
:1017B00019434FF4C675036805EB0C1559511178A0
:1017C000D37841EA0361937852781B0443EA0222FA
:1017D00011434FF4C473026803EB0C13D15000683B
:1017E00004EB0C11425842F00102425070BC002040
:1017F0007047416A41F40011416270BC012070479A
:1018000090F82020012A07D0022A05D0416A41F42D
:1018100080214162012070474248D0F8002242F006
:101820000102C0F80022D0F8002222F47C52C0F855
:101830000022D0F800224B6A42EA0322C0F80022BC
:101840000A7D012302F01F0203FA02F2D0F81C32D3
:101850009343C0F81C32CB69D3B9D0F80C32934310
:10186000C0F80C32B1F80CC04B686CF31F43D1F8D0
:1018700014C000EBCC0CCCF84032B1F808C00B68B7
:101880006CF31F43D1F814C000EBCC0CCCF84432FD
:10189000CB69012B1AD1D0F80C321343C0F80C32AB
:1018A000B1F800C04B686CF31F43D1F814C000EBD3
:1018B000CC0CCCF84032B1F808C0CB686CF31F43B5
:1018C000D1F814C000EBCC0CCCF844328B697BB15E
:1018D000D0F804321343C0F804320B6973B1D0F866
:1018E00014321343C0F81432096A01290CD010E0F5
:1018F000D0F804329343C0F80432EEE7D0F8143243
:101900009343C0F81432EFE7D0F81C121143C0F82B
:101910001C12D0F8001221F00101C0F800120020C2
:101920007047000000640040704710B490F820C079
:10193000BCF1010F09D0BCF1020F06D0416A41F49D
:101940008021416210BC0120704739B1D0F800C03D
:10195000DCF810C01CF0030F7DD006E0D0F800C00A
:10196000DCF80CC01CF0030F7BD04FF4D87C04686B
:101970000CEB011C54F80C4004F004049460002C9F
:101980007DD0046854F80C40E4085460046854F8AE
:101990000CC0CCF3400CC2F80CC04FF4DA7C0468E5
:1019A0000CEB011C54F80C4004F00F0414610468A3
:1019B00054F80C40C4F307249461046854F80CC034
:1019C0004FEA1C4CC2F814C04FF4DC72D0F800C0CF
:1019D00002EB01125CF802C083F800C0D0F800C02E
:1019E0005CF802C04FEA1C2C83F801C0D0F800C09C
:1019F0005CF802C04FEA1C4C83F802C0D0F800C06B
:101A00005CF80220120EDA704FF4DE72D0F800C0DB
:101A100002EB01125CF802C083F804C0D0F800C0E9
:101A20005CF802C04FEA1C2C83F805C0D0F800C057
:101A30005CF802C04FEA1C4C83F806C0D0F800C026
:101A40005CF80220120EDA71F9B10068016941F008
:101A50002001016102E00BE003E010E010BC002077
:101A60007047416A41F40011416210BC0120704787
:101A7000416A41F40011416210BC012070470468C2
:101A800054F80C40640D146080E70068C16841F0B0
:101A90002001C160DEE72DE9F05F054600242868DB
:101AA0004669D0F804908768D0F80CA0D0F810B040
:101AB000D0F8188016F0010F54D017F0010F17D08E
:101AC0000121816017F0020F03D0284600F008FBC7
:101AD0000EE017F0040F02D04FF4006408E017F096
:101AE000080F02D04FF4805402E0284600F0F7FAC5
:101AF00017F4807F19D029684FF48070886017F43C
:101B0000007F03D0284600F0EDFA0EE017F4806F56
:101B100002D044F4005408E017F4006F02D044F4FB
:101B2000804402E0284600F0DCFA17F4803F19D028
:101B300029684FF48030886017F4003F03D02846AE
:101B400000F0D2FA0EE017F4802F02D044F40044E3
:101B500008E017F4002F02D044F4803402E0284655
:101B600000F0C1FA16F0080F07D01AF0100F04D0D9
:101B700044F4007429681020C86016F0040F4FF078
:101B8000080707D01AF0080F04D02868C760284655
:101B900000F0D6F916F0020F07D02868C06810F0E0
:101BA000030F02D0284600F0CDF916F0400F07D001
:101BB0001BF0100F04D044F48064296810200861E1
:101BC00016F0200F07D01BF0080F04D0286807611B
:101BD000284600F04FFA16F0100F07D02868006969
:101BE00010F0030F02D0284600F045FA16F4003F2B
:101BF00008D019F0100F05D0296810204860284639
:101C000000F03AFA16F4803F07D019F0080F04D01C
:101C100028684760284600F068FA16F4004F4AD05A
:101C200019F0040F44D016F4807F04D018F0010F8F
:101C300001D044F0010416F4007F04D018F0020F24
:101C400001D044F0020416F4806F04D018F0040FA1
:101C500001D044F0040416F4006F29D018F0700F7E
:101C600026D008F07000402815D006DC102809D0D6
:101C700020280AD0302816D10AE050280ED060283B
:101C800011D10EE044F008040DE044F010040AE025
:101C900044F0200407E044F0400404E044F08004F1
:101CA00001E044F480742868816921F07001816149
:101CB000296804204860002C05D0686A20436862C7
:101CC0002846FFF731FEBDE8F09F70B50446002CB2
:101CD00003D094F8200010B104E0012070BD20462C
:101CE00000F0A8F82068016821F00201016000F00E
:101CF000F9FD0546206840684FF0050610F0020F18
:101D000011D000F0EFFD401B0A2807D9606A40F4AB
:101D10000030606284F82060012070BD2068406857
:101D200010F0020FEDD12068016841F0010101605F
:101D300000F0D8FD05462068406810F0010F11D171
:101D400000F0D0FD401B0A2807D9606A40F400303B
:101D5000606284F82060012070BD2068406810F047
:101D6000010FEDD0207E01283FD02068016821F0CE
:101D700080010160607E01283DD02068016821F06B
:101D800040010160A07E01283BD02068016821F05D
:101D900020010160E07E012839D02068016841F00F
:101DA00010010160207F012837D02068016821F0F0
:101DB00008010160607F012835D02068016821F0AA
:101DC00004010160E168A068626908432169114368
:101DD00008436168491E08432168C86100206062A9
:101DE000012084F82000002070BD2068016841F0C7
:101DF00080010160BEE72068016841F04001016098
:101E0000C0E72068016841F020010160C2E7206856
:101E1000016821F010010160C4E72068016841F009
:101E200008010160C6E72068016841F00401016013
:101E3000C8E70000F0B587B0044614216846FEF7F5
:101E400009FA3A4B3A48DFF8E0E01968D4F800C0E4
:101E5000374A03250226092710300024491CF4457F
:101E60002AD11960012907D1016841F00071016090
:101E7000006800F000700590106840F008001060E5
:101E80001068CDE9005600F00800CDE904706946FD
:101E90002848CDE9024500F01DFC00220121132055
:101EA00001F0C2F8132001F0B1F800220121142042
:101EB00001F0BAF8142032E0DFF87CE0F44530D1CC
:101EC000D0F800C04CF0806CC0F800C0D0F800C062
:101ED00001290CF0806CCDF814C0196007D101689D
:101EE00041F000710160006800F00070059010681A
:101EF00040F002001060106802AB00F00200059094
:101F00006020CDE9000683E8B00069460B4800F088
:101F1000E1FB00220121402001F086F8402001F081
:101F200075F807B0F0BD000000640040000000201C
:101F300030380240000C02400068004000040240BB
:101F40007047000010B58AB0044600200090019050
:101F5000414808F00BF84148844267D16B4602AA19
:101F60000021FFF7E2FC02993D4A3E48A1F201211F
:101F700006290FD2DFE801F04A3A030E102CBDF813
:101F8000020040BA02B2BDF8000041BA3448B03095
:101F900005F090FA0AB010BD3248203882880280DD
:101FA000BDF8001049BA8180BDF802308A1A5BBAC8
:101FB000C3809DF806300372C16812F5805F00DAB5
:101FC000491CC160B2F5805F00DD491EC160E1E7D8
:101FD000BDF8000041BA234810388180BDF80210D6
:101FE00049BAC1809DF806100172D3E7BDF8001010
:101FF00049BA8180BDF8021049BA09B200EE101A40
:10200000C180B8EEC00A82ED010AC3E7BDF8001036
:1020100049BA8182BDF8021049BA09B200EE101A1D
:10202000C182B8EEC00A82ED170AB3E70E488442B7
:10203000B0D16B4602AA0021FFF777FC029809286D
:10204000A8D1BDF80000094940BA0870BDF80200E7
:10205000074940BA08709DE718080020E4020020F4
:10206000B00C0020E00700200C030020D800002066
:10207000D900002070477047704770B5044694F847
:102080002000012805D0606A40F400206062012031
:1020900070BD022084F820002068016821F0010151
:1020A000016000F01FFC05462068406810F0010F39
:1020B00012D000F017FC401B0A2808D9606A40F4CF
:1020C00000306062052084F82000012070BD206887
:1020D000406810F0010FECD10020606270BD7047C5
:1020E0007047704770477047704770472DE9F0415F
:1020F0000446A66D00F0F6FB054694F8350000276F
:10210000022806D08020606584F834700120BDE884
:10211000F0812068016821F01601016020684169A2
:1021200021F080014161206C08B9A06C20B12068C9
:10213000016821F0080101602068016821F00101B7
:1021400001602068006810F0010F12D000F0CAFB97
:10215000401B052808D92020606584F834700320CE
:1021600084F83500BDE8F0812068006810F0010FA8
:10217000ECD194F85C003F2101FA00F0B06084F8E3
:102180003470012084F835000020BDE8F0810000A3
:102190002DE9F84304464FF00008CDF8008076485A
:1021A0004FF416510068B0FBF1F7A56D2E6894F856
:1021B0005C00082101FA00F0304211D0206802686A
:1021C00012F0040F0CD0026822F00402026094F8AE
:1021D0005C0001FA00F0A860606D40F001006065ED
:1021E00094F85C004FF0010909FA00F0304209D080
:1021F0002168496911F0800F04D0A860606D40F03B
:102200000200606594F85C1004208840304209D0D8
:102210002168096811F0020F04D0A860606D40F0D9
:102220000400606594F85C1010208840304224D08F
:102230002168096811F0080F1FD0A86020680168A4
:1022400011F4802F0DD0006810F4002F04D0A16C81
:1022500099B12046884710E0216C71B1204688472B
:102260000BE0016811F4807F03D1016821F00801BF
:102270000160216C09B12046884794F85C10202049
:102280008840304251D02168096811F0100F4CD0BD
:10229000A86094F8350005280DD02068016811F475
:1022A000802F32D0006810F4002F29D0E16B59B391
:1022B0002046884739E02068016821F01601016056
:1022C0002068416921F080014161206C08B9A06C4F
:1022D00020B12068016821F00801016094F85C00D9
:1022E0003F2101FA00F0A86084F8348084F835902A
:1022F000216D00293ED001B02046BDE8F0430847DB
:10230000616C09B1204688470FE0016811F4807FB5
:1023100007D1016821F01001016084F8348084F84D
:102320003590E16B09B120468847606D002821D0C7
:10233000606D10F0010F15D0052084F8350020687D
:10234000016821F0010101600098401C0090B84232
:1023500004D82068006810F0010FF5D184F83480AB
:1023600084F83590E16C002904D001B02046BDE826
:10237000F0430847BDE8F883DC0200202DE9F04176
:10238000044600F0AFFA0546DCB1002684F834605C
:10239000022084F835002068016821F00101016005
:1023A0002068006810F0010F13D000F09BFA401B6A
:1023B000052809D920206065032084F83500BDE890
:1023C000F0810120BDE8F0812068006810F0010F65
:1023D000EBD121680868234A1040A3686268D4F8EA
:1023E00010C01A43E36843EA0C031A4363691A43B3
:1023F000A3691A43E3691A43236A1A431043626AC2
:10240000042A03D1236BE26A1A4310430860206850
:10241000406920F00701606A40EA010501270428AD
:102420000ED1A06A0543E06A50B12046FEF708FECF
:1024300030B14020606584F835700120BDE8F0813E
:10244000206845612046FEF7E1FD94F85C103F22CC
:1024500002FA01F18160666584F835700020BDE8FC
:10246000F08100003F8010F070B504460025A66D95
:1024700094F8340001280DD0012084F8340094F839
:1024800035C00020BCF1010F06D084F834000225CD
:10249000284670BD022070BD4FF0020C84F835C094
:1024A00060652046FEF764FE94F85C003F2101FA67
:1024B00000F0B0602068016841F0160101602068FA
:1024C000416941F080014161206C20B120680168C0
:1024D00041F0080101602068016841F001010160DC
:1024E000D6E700002DE9F04104460F46DFF898805A
:1024F00098F8180001280AD0012088F818004CF23A
:102500005030FEF74DFF0246100003D035E00220A8
:10251000BDE8F0814FF0FF30386020681B4E012885
:1025200015D0A568E0682844A84224D9217C284613
:10253000FEF748FE4CF25030FEF732FF024630689C
:1025400020F0FA00306010000FD03D6013E0207CD6
:102550006168FEF78BFE4CF25030FEF721FF024619
:10256000306820F00400306005E06D1CA168E06870
:102570000844A842DAD8FEF74DFE002088F818007B
:102580001046BDE8F0810000440F0020103C0240DE
:102590000348016841F000410160002070470000DD
:1025A000103C02402DE9F0410646884614461D467F
:1025B0001A4F387E012807D0012038764CF250306F
:1025C000FEF7EEFE18B115E00220BDE8F081AEB1D5
:1025D000012E18D0022E1BD022462B464046FEF775
:1025E00069FE4CF25030FEF7DBFE0D490A6822F01E
:1025F00001020A6000213976BDE8F081E1B240466F
:10260000FEF748FEEDE7A1B24046FEF76BFEE8E7B5
:1026100021464046FEF778FEE3E70000440F002025
:10262000103C0240002008490A6812F0004F09D00F
:10263000074A064B1360074B1360096811F0004FFF
:1026400000D0012070470000103C02402301674584
:10265000043C0240AB89EFCD1649102817D0202842
:102660001ED0082825D1C87840F00100C870C8786D
:1026700010F00100C8701CD0C87820F00100C870AC
:10268000C87840F00200C8700B4807F0FDBA4878DF
:1026900040F001004870887840F00100887003E045
:1026A000087840F0010008700879002801D007F090
:1026B00089B97047100000204409002010B5044972
:1026C0000A68024202D00860FFF7C6FF10BD000092
:1026D000143C01402DE9F84F0022DFF8E481DFF8D7
:1026E000E491DFF8E4A14FF0030E0F27012303FA72
:1026F00002F50B682B40AB427ED1D1F804C0BCF18F
:10270000020F02D0BCF1120F12D14FEAD20C00EB33
:102710008C0CDCF820605407E40E07FA04FB26EA70
:102720000B06D1F810B00BFA04F43443CCF8204077
:1027300006684FEA420C0EFA0CF4A64391F804B076
:102740000BF0030B0BFA0CFB4BEA060606604E6817
:10275000012E05D0022E03D0112E01D0122E11D140
:102760008668A643D1F80CB00BFA0CFB4BEA0606C0
:102770008660466826EA05050E79C6F3001696407F
:1027800035434560C56825EA04048D6805FA0CFCEC
:102790004CEA040CC0F80CC0D1F804C01CF0805FF7
:1027A0006FD0D8F800C04CF4804CC8F800C0D8F8FE
:1027B00000C00CF4804CCDF800C022F0030C0CF1EA
:1027C000804404F59834D4F808C895072D0F07FA0B
:1027D00005F62CEA0606A0F1804CBCF5003C56D06C
:1027E000BCF5806C56D0BCF5806C56D0BCF5806CC6
:1027F00056D0BCF5806C00E043E054D0BCF5806C52
:1028000054D0BCF5806C54D0BCF5806C54D04FF0E3
:10281000080C0CFA05FC4CEA060CC4F808C8D9F8F8
:1028200000C02CEA030C4C6814F4803F01D04CEA41
:10283000030CC9F800C0254CD4F800C02CEA030CE6
:102840004D6815F4003F01D04CEA030CC4F800C0F9
:10285000DAF800C02CEA030C4C6814F4801F01D095
:102860004CEA030CCAF800C0194CD4F800C02CEA9A
:10287000030C4D6815F4001F01D04CEA030CC4F89A
:1028800000C0521C102AFFF431AFBDE8F88F4FF0A2
:10289000000CBEE74FF0010CBBE74FF0020CB8E7AD
:1028A0004FF0030CB5E74FF0040CB2E74FF0050C06
:1028B000AFE74FF0060CACE74FF0070CA9E70000BC
:1028C00044380240003C0140083C0140043C0140C7
:1028D0000C3C0140002A01D08161704709048161EC
:1028E000704700000148806870470000D002002057
:1028F00070B50446002C04D094F83D00002510B1BA
:1029000006E0012070BD84F83C50204600F0D6FA65
:10291000242084F83D002068016821F00101016055
:1029200000F088FC544B6168994203D853498842AF
:1029300003D304E05249884201D2012070BD5149BD
:10294000B0FBF1F12268D2F804C02CF03F0C4CEA45
:10295000010CC2F804C062689A4201D84A1C07E020
:102960004FF4967251434FF47A72B1FBF2F14A1C64
:102970002168D1F820C02CF03F0C42EA0C020A6218
:102980006168994210D84900401EB0FBF1F2521C18
:10299000C2F30B02042A01D2042026E0B0FBF1F0BE
:1029A000401CC0F30B0020E0A268002A50D001EBCD
:1029B000C10303EB0113A0F1010CBCFBF3F35B1C9F
:1029C00043F480431B051B0D4AD0002A4AD001EB7B
:1029D000C10202EB0111401EB0FBF1F0401CC0F33C
:1029E0000B0040F4804040F400402168CA6922F0A6
:1029F000FF0222F44F421043C861216AE06901439B
:102A00002068026822F0C00211430160E168206979
:102A100001432068826822F0FF0222F4034211433E
:102A20008160A169606901432068C26822F0FF02E9
:102A30001143C1602068016841F001010160256413
:102A4000202084F83D00256384F83E50002070BDAE
:102A500001EB4103A0F1010CBCFBF3F35B1CB1E7FC
:102A60000120C2E701EB4101401EB0FBF1F0401C28
:102A7000C0F30B00B7E70000A086010080841E00B1
:102A800000093D0040420F002DE9FF4F83B004468E
:102A90008A469346DDF84490DDF84080129EFFF7A9
:102AA00021FF054694F83D00202803D007B00220FE
:102AB000BDE8F08F19230122A0492046009501F0BE
:102AC000A1FE18B107B00220BDE8F08F94F83C00D9
:102AD000012808D0012084F83C002068016811F02A
:102AE000010F04D007E007B00220BDE8F08F0168B5
:102AF00041F0010101602068016821F4006101607A
:102B0000222084F83D00402084F83E0000272764FE
:102B1000C4F82480A4F82A90608D20858848E0625B
:102B2000019500965A4651462046069B01F042FD0B
:102B300018B107B00120BDE8F08F208D10B3012837
:102B400029D0022835D02068416980690290208D03
:102B5000002800F0E880DFF8EC81208D032800F2E7
:102B6000B780012834D002284AD03346002241469B
:102B70002046009501F046FE00286CD007B00120E9
:102B8000BDE8F08F2068416981690291016841F4D4
:102B900000710160DBE72068016821F48061016059
:102BA0002068416981690291016841F40071016006
:102BB000CDE72068016821F4806101602068016828
:102BC00041F4006101602068416980690290BEE7BC
:102BD0002A463146204601F0D6FE18B107B0012042
:102BE000BDE8F08F20680069616A0870606A401C67
:102BF0006062208D401E2085608D401E60858EE0C5
:102C00003346002241462046009501F0FBFD18B1F5
:102C100007B00120BDE8F08F2068016841F4007121
:102C2000016020680069616A0870606A401C606227
:102C3000218D491E2185618D491E618521680969A3
:102C40000170606A401C6062208D401E2085608D8E
:102C5000401E608563E02068016821F480610160A6
:102C600020680069616A0870606A401C6062208D9B
:102C7000401E2085608D401E6085334600224146FF
:102C80002046009501F0BEFD18B107B00120BDE857
:102C9000F08F2068016841F40071016020680069CC
:102CA000616A0870606A401C6062218D491E21853E
:102CB000618D491E6185216809690170606A401C47
:102CC0006062208D401E2085608D401E608526E05C
:102CD0002A463146204601F056FE18B107B00120C1
:102CE000BDE8F08F20680069616A0870606A401C66
:102CF0006062218D491E2185618D491E6185226892
:102D0000516911F0040F0AD011690170606A401C0A
:102D10006062208D401E2085608D401E6085208D64
:102D200000287FF41AAF202084F83D0084F83E701C
:102D300084F83C7007B00020BDE8F08F020010005E
:102D40000000FFFF040001002DE9FF4F83B004469F
:102D50008A469346DDF84490DDF84080129EFFF7E6
:102D6000C1FD054694F83D00202803D007B002209D
:102D7000BDE8F08F192301224E492046009501F04D
:102D800041FD18B107B00220BDE8F08F94F83C0077
:102D9000012808D0012084F83C002068016811F067
:102DA000010F04D007E007B00220BDE8F08F0168F2
:102DB00041F0010101602068016821F400610160B7
:102DC000212084F83D00402084F83E00002727643D
:102DD000C4F82480A4F82A90608D20853648E062EB
:102DE000019500965A4651462046069B01F07CFC10
:102DF00018B107B00120BDE8F08F208D002836D033
:102E00002A463146204601F0FCFD58B1206C0428CA
:102E100004D12068016841F40071016007B001200D
:102E2000BDE8F08F606A216800780861606A00F18F
:102E3000010CC4F824C0208D401E80B22085618D15
:102E4000491E61852368596911F0040F0CD058B1EF
:102E50009CF800001861606A401C6062208D401E72
:102E60002085608D401E6085208D0028C8D12A46AF
:102E70003146204601F098FC58B1206C042804D15A
:102E80002068016841F40071016007B00120BDE8CD
:102E9000F08F2068016841F400710160202084F8FF
:102EA0003D0084F83E7084F83C7007B00020BDE817
:102EB000F08F0000020010000000FFFFF0B587B0A7
:102EC000044614216846FDF7C5F91A49206888426E
:102ED0002DD11948016841F004010160016801F039
:102EE00004010591016841F00101016000681224AC
:102EF00000F0010005904FF400700125032604271F
:102F00008DE8F10069460D48FFF7E4FB28028DE8E3
:102F1000F10069460A48FFF7DDFB074810300168F9
:102F200041F400010160006800F40000059007B062
:102F3000F0BD0000005C0040303802400008024054
:102F400000000240024881680278114481607047A5
:102F5000D002002010B50B48016841F400710160F7
:102F6000016841F480610160016841F48071016091
:102F7000032000F08DF8032000F006F800F026F89A
:102F8000002010BD003C024070B504460D4D4FF4CA
:102F90007A712878B1FBF0F00B490968B1FBF0F0C9
:102FA00000F076FD08B1012070BD102C07D2002280
:102FB0002146501E00F038F86C60002070BD0120E2
:102FC00070BD0000D0020020DC0200200E4808B5D1
:102FD000016841F480410160006800F48040009085
:102FE0000948001F016841F080510160006800F04D
:102FF00080500090052000F04BF800220321BDE82E
:103000000840481F00F010B84438024000280ADB8E
:1030100000F01F01012202FA01F14009800000F1D5
:10302000E020C0F80011704710B4184B1B68C3F3C0
:103030000223C3F1070CBCF1040F01D94FF0040CBB
:103040001C1D072C01D2002300E0DB1E012404FA22
:103050000CFCACF1010C0CEA0101994004FA03F3F9
:103060005B1E1A401143002806DB00F1E020090135
:1030700080F8001410BC704700F00F0000F1E02051
:10308000090180F8141D10BC704700000CED00E031
:1030900000F00700064A11684FF6FF03194041EAA5
:1030A000002040F0FD7040F080601060704700002C
:1030B0000CED00E02DE9F04704460D46002C13D03E
:1030C000DFF85091D9F80000EFB200F00F00A842ED
:1030D0000DD289F80070D9F8000000F00F00A84266
:1030E00005D00120BDE8F0870120BDE8F087206809
:1030F000494E10F0020F14D010F0040F03D03068C6
:1031000040F4E0503060207810F0080F03D03068B1
:1031100040F4604030603068A16820F0F00008435F
:103120003060207810F0010F3ED060683B490128E4
:1031300008D002280DD003280BD0096811F0020F27
:1031400028D00AE0096811F4003F06D10120BDE84B
:10315000F087096811F0007F19D0316821F0030170
:1031600008433060FFF7BEFB80463068616800F0BE
:103170000C00B0EB810F17D041F2883AFFF7B2FB99
:10318000A0EB0800504508D90320BDE8F0870120D6
:10319000BDE8F0870120BDE8F0873068616800F085
:1031A0000C00B0EB810FE9D1D9F8000000F00F005E
:1031B000A8420AD989F80070D9F8000000F00F0081
:1031C000A84202D00120BDE8F087207810F0040F5B
:1031D00005D03068E16820F4E05008433060207882
:1031E00010F0080F06D03068216920F4604040EAF2
:1031F000C100306000F03EF83168094AC1F30311A4
:10320000515CC840074908600320FFF7BDFE00205D
:10321000BDE8F087003C0240083802400038024018
:1032200011A90008DC020020014800687047000076
:10323000DC02002000B5FFF7F7FF04490968044AE3
:10324000C1F38221515CC84000BD00000838024033
:1032500021A9000800B5FFF7E7FF04490968044AFF
:10326000C1F34231515CC84000BD00000838024043
:1032700021A9000810B51748006810F00C01164885
:1032800016D0164B042912D0082911D1144C2168EC
:1032900001F03F02216811F4800F0AD02068C0F3CA
:1032A0008810A0FB03010023FCF78AFF09E0184601
:1032B00010BD21680023C1F38811A1FB0001FCF7B8
:1032C0007FFF2168C1F30141491C4900B0FBF1F0C7
:1032D00010BD0000083802400024F400001BB700B5
:1032E000043802402DE9F84F0446002C10D0207815
:1032F000FA4D10F0010F64D0F948016801F00C019B
:1033000004290DD0006800F00C00082803D011E05B
:103310000120BDE8F88FF348006810F4800F09D051
:10332000286810F4003F4CD06068002849D1012083
:10333000BDE8F88F6068B0F5803F14D0B0F5A02FDD
:1033400016D0286820F480302860286820F4802077
:103350002860606810B3FFF7C5FA0646286810F4C5
:10336000003F0ED02DE0286840F480302860F0E760
:10337000286840F480202860286840F48030286065
:10338000E7E7FFF7AFFA801B642802D90320BDE806
:10339000F88F286810F4003FF3D012E0FFF7A2FA8C
:1033A0000646286810F4003F0BD0FFF79BFA801BFD
:1033B000642802D90320BDE8F88F286810F4003F84
:1033C000F3D12078C84F10F0020F4FF0000856D00C
:1033D000C348016811F00C0F15D0006800F00C0014
:1033E000082804D1BF48006810F4800F0BD0E068B3
:1033F00078B301203860FFF775FA0646286810F0A8
:10340000020F12D01DE0286810F0020F05D0E0680E
:10341000012802D00120BDE8F88F2868216920F03A
:10342000F80040EAC100286029E0FFF75BFA801B42
:10343000022802D90320BDE8F88F286810F0020F97
:10344000F3D02868216920F0F80040EAC100286024
:1034500015E0FFE7C7F80080FFF744FA0646286842
:1034600010F0020F0BD0FFF73DFA801B022802D9A3
:103470000320BDE8F88F286810F0020FF3D1207800
:1034800010F0080F33D09948DFF864926169B9B140
:1034900001210160FFF726FA0646D9F8000010F076
:1034A000020F24D1FFF71EFA801B022802D9032045
:1034B000BDE8F88FD9F8000010F0020FF2D016E046
:1034C000C0F80080FFF70EFA0646D9F8000010F0A9
:1034D000020F0CD0FFF706FA801B022802D9032046
:1034E000BDE8F88FD9F8000010F0020FF2D1207873
:1034F00010F0040F73D04FF00009DFF8F8A1DAF8EC
:10350000000010F0805F0CD1DAF8000040F080502D
:10351000CAF80000DAF8000000F0805000904FF088
:103520000109DFF8D4B1DBF8000010F4807F1AD174
:10353000DBF8000040F48070CBF80000FFF7D2F910
:103540000646DBF8000010F4807F0CD1FFF7CAF9C3
:10355000801B022802D90320BDE8F88FDBF80000A9
:1035600010F4807FF2D0A068DFF890B1012818D065
:1035700005281DD0DBF8000020F00100CBF800008A
:10358000DBF8000020F00400CBF80000A06838B39E
:10359000FFF7A8F90646DBF8000010F0020F14D080
:1035A0003CE0DBF8000040F00100CBF80000EDE764
:1035B000DBF8000040F00400CBF80000DBF800006E
:1035C00040F00100CBF80000E0E7FFF78BF9811B2A
:1035D00041F28830814204D90320BDE8F88F26E00B
:1035E00005E0DBF8000010F0020FEED016E0FFF768
:1035F00079F90646DBF8000010F0020F0ED0FFF755
:1036000071F9811B41F28830814202D90320BDE863
:10361000F88FDBF8000010F0020FF0D1B9F1010FC4
:1036200005D1DAF8000020F08050CAF80000A06947
:10363000E8B32B49096801F00C0108296BD0022876
:1036400010D0C7F86080FFF74DF90446286810F0E5
:10365000007F5ED0FFF746F9001B022855D90320F2
:10366000BDE8F88FC7F86080FFF73CF90646286888
:1036700010F0007F0BD0FFF735F9801B022802D92C
:103680000320BDE8F88F286810F0007FF3D1216A8D
:10369000E069A26A0843616A4FF0FF33890103EBD6
:1036A000520241EA0241084394F82C1000E030E055
:1036B00040EA01610B48016001203866FFF712F90A
:1036C0000446286810F0007F23D1FFF70BF9001B98
:1036D000022815D90320BDE8F88F1CE0003802400D
:1036E000083802400438024000004742800E47423A
:1036F0007438024040380240007000407038024088
:10370000286810F0007FE0D003E0286810F0007F08
:10371000A0D10020DFE70120DDE770B50446002CD2
:1037200005D00025A56294F8510010B106E00120F3
:1037300070BD84F85050204600F030F8022084F824
:1037400051002068016821F040010160A1686068B3
:1037500022690843E1681143084361690843218BEA
:1037600001F400710843E1690843216A0843A16A32
:10377000084321680860A069042101EA1040616AD9
:103780000843216848602068C16921F40061C16173
:103790006565012084F85100002070BD2DE9F043DB
:1037A00087B0064614216846FCF754FD344930685A
:1037B000884261D133480025016841F4805101609D
:1037C000006800F4805005902E481438016841F0DC
:1037D00002010160016801F002010591016841F0F8
:1037E000010101600068022400F00100059018202A
:1037F00001274FF003084FF005098DE89103694652
:103800002148FEF767FF80208DE8910369461F4835
:10381000FEF760FF1F4C1E484FF0C0672060C4E9F0
:1038200001754FF48068C4E9035865617812A56199
:10383000C4E9075020466562FEF7A0FD08B1FDF718
:10384000C0FCF464A663134C114860341830E4E8FB
:1038500002074020A4E82101C00244F81459A561E0
:10386000C4E907500B4865626030FEF787FD08B178
:10387000FDF7A7FCB464A66307B0BDE8F0830000C1
:103880000030014044380240000402400000024081
:1038900040640240E00300202DE9F84F04460A9EF0
:1038A0008A4693461F4601254FF0000894F85000C1
:1038B00001280ED0012084F85000FFF713F881464C
:1038C00094F85100616801280ED0B1F5827F07D1CC
:1038D00002E00220BDE8F88FA16809B9042803D0EE
:1038E0004FF0020800F0CBB8BAF1000F1DD0BBF1C9
:1038F000000F1AD0380018D094F85100042802D0D4
:10390000052084F8510000206065C4F838B0E787CE
:10391000A787C4F830A0E786A78620646064206883
:10392000016811F0400F03D006E04FF00108A6E057
:10393000016841F040010160E068B0F5006F05D01A
:103940006068002848D0012F46D07EE0606808B14A
:10395000012F3AD1206B21680088C860206B801C41
:103960002063E08E401EE0862FE02068816811F021
:10397000020F0DD0E18E59B1012D09D1216B0988BB
:10398000C160206B801C2063E08E401EE086002515
:103990002068816811F0010F0BD0E18F49B1C06838
:1039A000A16B0880A06B801CA063E08F401EE087A5
:1039B0000125FEF797FFA0EB0900B04205D3B6F151
:1039C000FF3F02D04FF0030859E0E08E0028CCD131
:1039D000E08F0028C9D13EE0206B21680078087391
:1039E000206B401C2063E08E401EE0862DE02068A6
:1039F000816811F0020F0DD0E18E59B1012D09D16E
:103A0000216B09780173206B401C2063E08E401EFF
:103A1000E08600252068816811F0010F0BD0E18F4E
:103A200049B1C068A16B0870A06B401CA063E08F17
:103A3000401EE0870125FEF755FFA0EB0900B042CC
:103A400002D3B6F1FF3F11D186B1E08E0028CED16E
:103A5000E08F0028CBD14A463146204603F0B0FA29
:103A600038B14FF001082020606508E04FF00308EE
:103A700005E0A06818B92068C1688068009001203E
:103A800084F85100002084F850004046BDE8F88FCB
:103A9000401EB0F1807F01D3012070474FF0E0213C
:103AA0004861044AF02010700020886107200861F6
:103AB0000020704723ED00E07047704730B490F865
:103AC0003C20012A1ED0012480F83C40022280F8CC
:103AD0003D200268D2F804C093682CF0700C0D6889
:103AE00045EA0C0C23F0800349681943C2F804C06E
:103AF0000268916080F83D40002180F83C1030BCA5
:103B00000020704730BC0220704710B50446002CDE
:103B100003D094F83D0010B107E0012010BD002053
:103B200084F83C00204600F00DF8022084F83D00A7
:103B3000211D206803F040FB012084F83D00002097
:103B400010BD000008B5184A01681848914211D10B
:103B5000016841F0020101600068002200F00200EB
:103B6000009001211D20FFF75FFABDE808401D20ED
:103B7000FFF74CBA0E4A914207D1016841F010019B
:103B80000160006800F010000BE00A48814209D192
:103B90000648001D016841F400310160006800F42E
:103BA0000030009008BD0000000400404038024092
:103BB0000010004000440140022180F83D100168DF
:103BC0008A6802F00702062A03D00A6842F001025E
:103BD0000A60012180F83D10002070470168CA6822
:103BE00042F00102CA600068816801F007010629FD
:103BF00003D0016841F0010101600020704770B5F9
:103C0000044694F83C00012818D0012584F83C5063
:103C1000022084F83D002068826822F0770222F4B6
:103C20007F4282600868502832D00EDC20284DD0B8
:103C300006DC00284AD010284DD147E0022070BD94
:103C4000302843D0402846D136E060282AD070285A
:103C500006D0B0F5805F3ED0B0F5005F3BD10BE001
:103C6000CB684A688968206803F011FB2068816886
:103C700041F0770181602EE0CB684A68896820684E
:103C800003F005FB2068816841F48041816022E0F7
:103C9000CA684968206803F0E7FB5021206803F0F8
:103CA00001FB18E0CA684968206803F0F0FB602156
:103CB000206803F0F7FA0EE0CA684968206803F04C
:103CC000D3FB4021206803F0EDFA04E022680146AE
:103CD000104603F0E7FA84F83D50002084F83C00D9
:103CE00070BD704770B50446206801694FF000054B
:103CF00011F0020F17D0C16811F0020F13D0E91EA6
:103D00000161012020772068806910F0030F03D043
:103D10002046FFF7E6FF05E0204600F0CFF82046FA
:103D200000F058F925772068016911F0040F18D0C8
:103D3000C16811F0040F14D06FF00401016102207A
:103D400020772068806910F4407F03D02046FFF779
:103D5000C8FF05E0204600F0B1F8204600F03AF92F
:103D600025772068016911F0080F18D0C16811F09B
:103D7000080F14D06FF0080101610420207720683B
:103D8000C06910F0030F03D02046FFF7AAFF05E03B
:103D9000204600F093F8204600F01CF925772068B3
:103DA000016911F0100F18D0C16811F0100F14D074
:103DB0006FF010010161082020772068C06910F4BD
:103DC000407F03D02046FFF78CFF05E0204600F03F
:103DD00075F8204600F0FEF825772068016911F09B
:103DE000010F09D0C16811F0010F05D06FF001017A
:103DF0000161204600F00EF92068016911F0800F82
:103E000009D0C16811F0800F05D06FF08001016109
:103E10002046FFF751FE2068016911F0400F09D0DC
:103E2000C16811F0400F05D06FF0400101612046DC
:103E300000F044F92068016911F0200F0BD0C1682F
:103E400011F0200F07D06FF0200101612046BDE87E
:103E50007040FFF732BE70BD10B586B00446142125
:103E60006846FCF7F7F91149206888421CD11048D0
:103E7000016841F0200101600068012100F020008C
:103E80000590402000900220CDE90101039003201D
:103E9000049069460748FEF71DFC0748FFF78CFEB3
:103EA0000021054800F097F806B010BD004401401D
:103EB000303802400014024020050020704770B5E1
:103EC00004460D4694F83C0001280DD0012684F8E4
:103ED0003C60022084F83D0042B1042A1AD0082A2E
:103EE0002DD00C2A53D13EE0022070BD2946206817
:103EF00003F0E0F92068816941F0080181612068E0
:103F0000816921F004018161206881692A69114376
:103F100081613CE02946206803F004FA2068816949
:103F200041F4006181612068816921F480618161CF
:103F3000206881692A6941EA0221816127E02946D6
:103F4000206803F02BFA2068C16941F00801C161C3
:103F50002068C16921F00401C1612068C1692A6932
:103F60001143C16113E02946206803F053FA206829
:103F7000C16941F40061C1612068C16921F48061B7
:103F8000C1612068C1692A6941EA0221C16184F8DE
:103F90003D60002084F83C0070BD10B50446002C44
:103FA00003D094F83D0010B107E0012010BD0020BF
:103FB00084F83C00204600F00CF8022084F83D0014
:103FC000211D206803F0F8F8012084F83D0000204E
:103FD00010BD7047704710B504460122206803F0F9
:103FE00047F92168A1F18040B0F5803002D0B0F5EA
:103FF000806003D1486C40F40040486420688168C8
:1040000001F00701062903D0016841F001010160B8
:10401000002010BD10B5264C6068032802DD012089
:10402000A06008E000231A461946184605F044F837
:10403000002005F06FF82068401C206000F0C0FDF3
:1040400020680D2190FBF1F201FB120070B9A0680D
:1040500001280BD117480068012801D104F0EAFFBC
:10406000FDF71CFB06F080FAFDF72AF8206807210F
:1040700090FBF1F201FB120048B906F013F805F0CD
:10408000BDF80D48007801280ED005F027FE206805
:10409000B0F57A7F07DB00202060A068002802D1FD
:1040A0006068401C606010BD06F0B4F8EFE70000E7
:1040B000AC010020A8010020A4010020704710B529
:1040C000044620684169C1F3C01194F83920212ABF
:1040D0000BD151B1416921F080014161206B08B1E0
:1040E000FEF704F8204603F082FA20684169C1F324
:1040F000801194F83A20222A0BD151B1416921F064
:1041000040014161606B08B1FDF7F0FF204603F00C
:1041100060FA002010BD704770B50446002C04D032
:1041200094F83900002510B106E0012070BD84F834
:104130003850204600F022F8242084F83900206806
:10414000C16821F40051C160204603F059FA20688B
:10415000016921F4904101612068416921F02A013F
:1041600041612068C16841F40051C160E5632020CD
:1041700084F8390084F83A00002070BD2DE9F04F32
:1041800087B0054614216846FCF764F88F488E4ACC
:104190002B68DFF838921438012103260727002402
:1041A0004FF002084FF4007A4FF0006B934269D150
:1041B000D9F8003043F01003C9F80030D9F80020D6
:1041C00002F010020592026842F0020202600268E8
:1041D00002F002020592026842F0010202600068E9
:1041E000C14600F0010005908020CDE90009029150
:1041F000884669467648CDE90367FEF76BFACDF845
:1042000000A0CDE90367CDE9019869467148FEF742
:1042100061FA724F70484FF480683860C7E901B4A2
:10422000C7E903487C614FF40030BC61C7E907402F
:104230005E4638467C62FEF7A1F808B1FCF7C1FF84
:104240006F63BD63654F644860373030E7E802064E
:104250004020A7E81101800247F81449BC61C7E972
:1042600007405E487C626030FEF788F808B1FCF7D2
:10427000A8FF2F63002201212520BD63FEF7D4FE95
:10428000252025E0514ADFF858C1121F634524D18B
:10429000136843F400331360126802F4003205928D
:1042A000026842F008020260006802AB00F00800F9
:1042B000059083E8C2006020CDE9000869464948BE
:1042C000FEF708FA002201212620FEF7ADFE262087
:1042D000FEF79CFE07B0BDE8F08FDFF80CC1634528
:1042E00039D1136843F480231360126802F48022EA
:1042F0000592026842F004020260006802AB00F01E
:104300000400059083E8C2004FF44060CDE9000846
:1043100069463648FEF7DEF9304E3548C036306023
:10432000C6E901B40015C6E9034080107461C6E90E
:1043300006400002C6E908043046FEF71FF808B13F
:10434000FCF73FFF6E63002201212720B563FEF7D3
:104350006BFE2720BCE727498B42BBD1D9F8002050
:1043600042F02002C9F80020D9F8001001F0200125
:104370000591016841F040010160016801F04001D0
:104380000591016841F0040101600068082500F012
:104390000400CDE90450CDE90246CDE900A8694604
:1043A0001548FEF797F94020CDE90008CDE902460F
:1043B000694604950D48FEF78DF90022012147203A
:1043C000FEF732FE472083E70010014044380240E8
:1043D000000402400000024088640240A006002061
:1043E00000440040000C0240004800400008024029
:1043F00028600240001401400018024037B582B026
:104400000446134694F83A00202802D005B0022052
:1044100030BD039A002A36D0002B34D094F83800EF
:10442000012833D0012084F83800A262A38500253A
:10443000E563222084F83A00616B1648C863616B1B
:1044400015480864616B1548C864606B0565206891
:10445000011D606BFEF708F8206801684168019152
:1044600084F83850C16841F48071C16020684169A6
:1044700041F0010141612068416941F04001416121
:1044800005B0002030BD05B0012030BD05B00220D0
:1044900030BD00008B750008C97500084175000823
:1044A000704770472DE9F84304460D4691461E4675
:1044B00094F83900202802D00220BDE8F8834DB3DB
:1044C000B9F1000F26D094F83800012825D001203A
:1044D00084F838000027E763212084F83900FEF7CC
:1044E00001FA8046A4F82490A4F82690E08CA0B3AA
:1044F000E08C401EE084A068B0F5805F10D0434699
:10450000002280212046009603F01AFAF0B1032021
:10451000BDE8F8830120BDE8F8830220BDE8F883F8
:104520004346002280212046009603F009FA10B18C
:104530000320BDE8F88328882168C0F3080048609C
:10454000206908B16D1C05E0AD1C03E0216815F879
:10455000010B4860E08C0028CAD14346002240216C
:104560002046009603F0ECF910B10320BDE8F88373
:10457000202084F8390084F838700020BDE8F883E2
:10458000FEE701684A6912F4806F11D06FF480620F
:104590004A6100210163202280F83D2080F83E100E
:1045A000026C42F00402026480F83C100120704763
:1045B000002070472DE9F84F0446DDF828A00B9D38
:1045C0000F46904699462068016841F48061016079
:1045D0002068016841F480710160534600224FF069
:1045E00001112046009500F00DF910B10120BDE841
:1045F000F88F216807F0FE000861DFF8E8B02B466D
:1046000052465946204600F057F910B10120BDE846
:10461000F88F20684169806900902A4651462046FB
:1046200000F0EFF950B1206C042804D12068016833
:1046300041F4007101600120BDE8F88F08F0FF0629
:10464000B9F1010F0DD021684FEA182008612A4600
:104650005146204600F0D5F970B1206C042803D0F3
:1046600007E02068066109E02068016841F40071F4
:1046700001600120BDE8F88F206806612A46514696
:10468000204600F0BEF950B1206C042804D1206807
:10469000016841F4007101600120BDE8F88F2068D5
:1046A000016841F480710160534600224FF001110E
:1046B0002046009500F0A6F810B10120BDE8F88F63
:1046C0002168F8B240F0010008612B465246594675
:1046D000204600F0F1F810B10120BDE8F88F00206D
:1046E000BDE8F88F020001002DE9F8430446DDF82B
:1046F0002090099F0D46164698462068016841F4AF
:10470000807101604B4600224FF001112046009756
:1047100000F078F810B10120BDE8F883216805F0B9
:10472000FE0008613B464A461E49204600F0C4F898
:1047300010B10120BDE8F8832068416980690090CC
:104740003A464946204600F05CF950B1206C0428F6
:1047500004D12068016841F4007101600120BDE8C6
:10476000F883F5B2B8F1010F0CD02168300A086166
:104770003A464946204600F044F970B1206C0428BE
:1047800003D007E02068056109E02068016841F472
:10479000007101600120BDE8F883206805610020F8
:1047A000BDE8F8830200010070B504460D461646C8
:1047B0002068406910F0040F13D12046FFF7E1FE96
:1047C00008B1012070BDB5F1FF3F05D0FEF78AF8B2
:1047D000801BA84207D835B12068406910F0040F4B
:1047E000EBD0002070BD00202063202184F83D1014
:1047F00084F83E00216C41F02001216484F83C00E3
:10480000012070BD2DE9F0470446DDF820900D46EB
:1048100017461E46C5F307482068B8F1010F22D09D
:10482000806925EA00000004000C26D00020B84270
:1048300016D1B6F1FF3F06D0FEF754F8A0EB090001
:10484000B0421CD8DEB1B8F1010F28D020688069D1
:1048500025EA00000004000C2CD00020B842E8D06B
:104860000020BDE8F087406925EA00000004000C44
:1048700001D00020DBE70120D9E70120D7E70020A5
:104880002063202184F83D1084F83E00216C41F023
:104890002001216484F83C000120BDE8F0872068F5
:1048A000406925EA00000004000C01D00020D5E793
:1048B0000120D3E70120D1E72DE9F04704460D465A
:1048C00016461F46C5F307482068B8F1010F26D0E9
:1048D000806925EA00000004000C3AD04FF000097E
:1048E0004FF0200A2068406910F4806F1ED02068C5
:1048F000016841F40071016021686FF480604861D3
:10490000C4F8309084F83DA084F83E90206C40F0CC
:104910000400206484F83C900120BDE8F0874069E1
:1049200025EA00000004000C13D0D7E7B6F1FF3FE2
:1049300005D0FDF7D7FFC01BB0420DD866B1B8F166
:10494000010F18D02068806925EA00000004000CDF
:10495000C8D10020BDE8F087C4F8309084F83DA0AD
:1049600084F83E90206C40F02000206484F83C9055
:104970000120BDE8F0872068406925EA00000004B6
:10498000000CAFD1E5E72DE9F04104460D4616468F
:104990002068406910F0400F22D100274FF0200816
:1049A0002068406910F0100F0FD021686FF01000E0
:1049B0004861276384F83D8084F83E70206C206451
:1049C00084F83C700120BDE8F081FDF78BFF801B6F
:1049D000A84208D83DB12068406910F0400FDFD0F0
:1049E0000020BDE8F081276384F83D8084F83E70A4
:1049F000206C40F02000206484F83C700120BDE869
:104A0000F08170B504460D4616462068406910F0E6
:104A1000800F13D12046FFF7B4FD08B1012070BD0F
:104A2000B5F1FF3F05D0FDF75DFF801BA84207D819
:104A300035B12068406910F0800FEBD0002070BDC8
:104A400000202063202184F83D1084F83E00216C72
:104A500041F02001216484F83C00012070BD000079
:104A600038B502E0642004F02DFCFBF7F7FF0028C6
:104A7000F8D102E0642004F025FC05F0C5F8002818
:104A8000F8D1294AA2F11004211D101DFBF7FEFFE9
:104A9000264904F1640000F0F5FE04F124052A1D06
:104AA000211DA4F12800FBF723FF21491020C86134
:104AB0000846FEF732FE08B1FCF783FB1D490822C9
:104AC000A1F1080002F004FA1A4901201C3908710A
:104AD000154B0095103BA3F13402A2F10C01A1F19A
:104AE0000C0004F0F9FE10495039A1F1180291EDC3
:104AF000000AA1F1240382ED000AA1F1300083ED48
:104B0000000A80ED000A91ED010A82ED010A83EDB1
:104B1000010A80ED010A91ED020A82ED020A83ED9D
:104B2000020A80ED020A38BD2C090020C8A800083E
:104B3000880300202C00002030B505461088154B56
:104B40000C4668B903F10C0090ED000A83ED000AF1
:104B500090ED010A83ED010A90ED020A83ED020A4D
:104B60000C490C48803904F091FE93ED000A84ED65
:104B7000000A93ED010A84ED010A93ED020A84ED27
:104B8000020AB7EE000A85ED000A85ED010A85EDFF
:104B9000020A30BD50090020084891ED000A80ED5E
:104BA000000AD1ED010AC0ED010A91ED021A80ED73
:104BB000021A0C3880EC030A704700005C090020E0
:104BC000F8B5634C634EE068401CE060192805DDD1
:104BD00096ED040A04F07AFF0020E06020785D4D35
:104BE000000705F1140508D5207820F00800207092
:104BF000574829461D30FBF701FF607840070AD56A
:104C0000607820F004006070524A311D2032A2F119
:104C10002A00FBF7ADFEA07840070DD5A07820F064
:104C20000400A0704B494A4810311230FCF708F8D4
:104C300096ED040A04F04AFF464B464CA3F13402B9
:104C40002434A2F10C01A1F10C00009404F044FE04
:104C5000A4F18800A0F10C0290ED000A00F10C0113
:104C600082ED000AD1ED000A9FED3B1AC0ED000A6B
:104C700000F1240360EE811ADFED380A93ED002A7B
:104C800040EE201A9FED360A42EE001AC1ED001ADE
:104C9000D0ED011AC2ED011A91ED012A80ED012A31
:104CA00022EE012A01EEA02AD3ED011A01EE802A9C
:104CB00081ED012AD0ED021AC2ED021A91ED022A0D
:104CC00080ED022A22EE011A264801EEA01AD3ED49
:104CD000020A00EE801A81ED021A96ED050A3146AD
:104CE000F0EEC00A10EE902ADFED1F0A824201DAD0
:104CF000B0EE600A81ED050A91ED060AB0EEC01A29
:104D000011EE102A824201DAB0EE600A81ED060A45
:104D100091ED070AB0EEC01A11EE102A824201DAB4
:104D2000B0EE600A81ED070A0A48231D321D2946AC
:104D30009FED0E0A2838FBF7EBFD01B0054BBDE8EF
:104D4000F040103B1A1F111FA1F1100004F0ACBB82
:104D5000100000201C0900205AF8F63F5D896EBF44
:104D6000D5A9183BCDCC4C3D000000006F12833A12
:104D70000F4810B50D4901600321416000214FF437
:104D800080228160C0E903124FF4E00242610176A3
:104D900041768176C17601774177FCF796FF00284E
:104DA00003D0BDE81040FCF70CBA10BD0064004011
:104DB000E40200200F4810B50D4901600321416055
:104DC00000214FF480228160C0E903124FF4E00219
:104DD0004261017641768176C17601774177FCF7B1
:104DE00074FF002803D0BDE81040FCF7EAB910BDFD
:104DF000006800400C0300201D4808B5016841F41C
:104E000000110160016801F400110091016841F492
:104E1000800101600068002200F4800000901146CB
:104E20000C20FEF701F90C20FEF7F0F800221146E5
:104E30003A20FEF7F9F83A20FEF7E8F8002211468A
:104E40003B20FEF7F1F83B20FEF7E0F80022114688
:104E50004420FEF7E9F84420FEF7D8F80022114676
:104E60004620FEF7E1F8BDE808404620FEF7CEB840
:104E7000303802402DE9F04387B014216846FBF733
:104E8000E9F94E48016841F002010160016801F052
:104E900002010591016841F001010160016801F022
:104EA00001010591016841F008010160016801F00C
:104EB00008010591016841F004010160016801F0F9
:104EC00004010591016841F080010160016801F071
:104ED00080010591016841F040010160016801F025
:104EE00040010591016841F0200101600068344FE4
:104EF00000F020000590012240213846FDF7EAFC31
:104F0000DFF8C080012210214046FDF7E3FCDFF806
:104F1000B890012211464846FDF7DCFC01244020F0
:104F2000CDE90004022569463846CDE90245FDF782
:104F3000D1FB264E0920CDE9000669460294384689
:104F4000FDF7C8FB1020CDE9000469464046CDE9D5
:104F50000245FDF7BFFB3020CDE90006694602940B
:104F60001B48FDF7B7FB0094694648460194CDE91C
:104F70000245FDF7AFFB002202210620FEF754F8A0
:104F80000620FEF743F8002201210920FEF74CF825
:104F90000920FEF73BF8002201210A20FEF744F821
:104FA0000A20FEF733F8002201211720FEF73CF813
:104FB0001720FEF72BF807B0BDE8F0833038024029
:104FC00000180240000002400004024000001110DE
:104FD000000802400D4810B50B4901600C494160C2
:104FE00000214FF480428160C0E903124161816178
:104FF000C1610162FDF77CFC002803D0BDE81040D0
:10500000FCF7DFB810BD0000005C00403403002056
:10501000801A0600104810B50E4901604FF48271E5
:105020004160002102228160C0E903120122426135
:10503000520282613822C0E90721416281620A215D
:10504000C162FEF76AFB002803D0BDE81040FCF700
:10505000B8B810BD003001408803002010B588B0FA
:105060001C216846FBF7F6F8144813490024C0E9F0
:10507000001441F28731C0E9024104618461FEF706
:1050800044FD08B1FCF79DF80C48FEF786FF08B117
:10509000FCF797F86020CDE90004029400226946ED
:1050A00006480494FEF70BFF08B1FCF78AF80348A2
:1050B000FEF7D2FE08B010BD0044014020050020DC
:1050C00010B586B00024174800940194029403940C
:1050D000049413490594016040F2E731C0E90114DA
:1050E0005321C0E9031480218161FEF70EFD08B150
:1050F000FCF767F84FF48050009069460948FEF7C6
:105100007EFD08B1FCF75DF8049404A905480594F8
:10511000FEF7D4FC002801D0FCF753F806B010BD10
:1051200000040040A00400201CB500240F48009497
:105130000D490194016040F24731C0E9011440F289
:10514000E7318461C160FEF7E0FC08B1FCF739F893
:105150000094694605480194FEF7B0FC002801D090
:10516000FCF72FF81CBD000000100040E0040020F8
:105170000C4810B50A4901604FF4E131416000214B
:1051800081600C22C160C0E904128161C161FEF737
:10519000C3FF002803D0BDE81040FCF712B810BDD3
:1051A00000100140A00500200C4810B50A4901601C
:1051B0000B494160002181600C22C160C0E90412EA
:1051C0008161C161FEF7A8FF002803D0BDE810404F
:1051D000FBF7F7BF10BD000000440040E0050020D1
:1051E000A08601000C4810B50A4901600B494160D6
:1051F000002181600C22C160C0E904128161C1619B
:10520000FEF78AFF002803D0BDE81040FBF7D9BFA6
:1052100010BD00000048004020060020A0860100CC
:105220000C4810B50A4901604FF416514160002145
:1052300081600822C160C0E904128161C161FEF78A
:105240006BFF002803D0BDE81040FBF7BABF10BDCC
:10525000001401406006002010B5B5EEC03A2DEDF7
:10526000108BF0EE419AB0EE60AAF0EE40AAF1EE9B
:1052700010FA84B0044616D1F5EEC03AF1EE10FAF9
:1052800011D1B5EEC04AF1EE10FA0CD104B0B0EE77
:10529000691AF0EE4A0AB0EE6A0ABDEC108BBDE85E
:1052A000104000F083B9F5EEC01AF1EE10FA09D102
:1052B000B5EEC02AF1EE10FA04D1F5EEC02AF1EEF7
:1052C00010FA7CD021EEA10A02EE020A02EEA20A36
:1052D00004F03CFC21EE80FA62EE00EA22EE80EA65
:1052E00023EE030A03EEA30A04EE040A04F02EFCE4
:1052F000D4ED000A23EE009A63EE808A60EEA01AD5
:1053000024EE008AF0EE00FACDED031A94ED010AC6
:1053100094ED021AD4ED031A20EE80DA60EE81CA11
:1053200020EEA12A61EE01DA60EE002A60EE010AA9
:1053300020EE21CAB6EE000A21EEA1BA30EE6D0AC7
:1053400061EE21BA3CEE2C1A70EE4B1ACDED021A2A
:1053500021EE890A70EEC21A70EE820ACDED011AB2
:1053600008EEA10A60EE890A08EE010AB6EE001AFC
:1053700071EE621A20EE2F0A31EECB1ACDED001A33
:1053800020EE000A48EE810A3BEECD1A48EE010AF3
:1053900060EEAF0A00EEA00A10EE100AFBF79CF8D0
:1053A00041EC100B03F06AF951EC100BFBF7C0F85D
:1053B0003CEE6C0A00EE900A20EE091A00E08EE046
:1053C0007BEE8D1AF6EE002A3CEE8C4A3DEE2B2A3F
:1053D00008EEA11ADDED001A704931EEED3ADDED6F
:1053E000031A71EEE21A08EE031A71EE8B3ADDED44
:1053F000021A21EE2F1A61EEA02ADDED011A61EEEC
:10540000A01A64EE200A41EE002A41EE021A41EE93
:10541000030A2EEEA31A0EEE421A28EEA03A2FEE41
:10542000022A08EE613A0EEEC02A31EE031A2EEE81
:10543000003A29EE210AD1ED011A0FEE633A68EE27
:10544000223A08EEE20AF5EEC01A49EE603A32EE70
:10545000000A73EE230AF1EE10FA2CDDD1ED011AE9
:1054600091ED022A61EE812ADFED4D1A02EEA12AAA
:1054700081ED022A91ED012A62EE202A91ED032AA4
:1054800002EEA12A81ED032A91ED012A62EE002AA3
:1054900091ED042A02EEA12A81ED042AD1ED021A2F
:1054A0007AEEA1AAD1ED031A3AEE21AAD1ED041A9F
:1054B00079EEA19A07E0DFED3B1AC1ED021AC1EDCA
:1054C000031AC1ED041AD1ED001A41EE81AA91ED43
:1054D000001A01EE20AAD1ED000A40EE809A9FED5D
:1054E000320A94ED011A94ED022A6AEE800A2AEE3D
:1054F000003A69EE802A94ED030A61EE603AD4ED39
:10550000001A42EE433A40EE623A73EEA14A61EE6F
:10551000A03AC4ED004A42EE223A40EE433A33EE5E
:10552000814A61EE833A61EEA21A84ED014A41EEAE
:10553000623A41EE031A40EE203A42EE601A73EEF0
:10554000823A71EE800A24EEA40AC4ED023AC4ED58
:10555000030A04EE040A03EEA30A00EEA00A04F014
:10556000F5FAD4ED000A60EE800AC4ED000AD4ED2D
:10557000010A60EE800AC4ED010AD4ED020A60EE71
:10558000800AC4ED020AD4ED030A20EE800A84EDFD
:10559000030A04B0BDEC108B10BD00009002002087
:1055A0006F12833A000000006F12033AF5EEC01A42
:1055B000B0EE413AF0EE603AB0EE404AF1EE10FA49
:1055C00000B5024609D1B5EEC02AF1EE10FA04D1B9
:1055D000F5EEC02AF1EE10FA78D021EEA10A02EE23
:1055E000020A02EEA20A04F0B1FA21EE805A62EE3B
:1055F000004A92ED011AD2ED030A22EE800AD2EDA2
:10560000002A21EE202AD2ED021A22EE811A5C48ED
:1056100002EEE12A01EEA01AF6EE001A52EEA21AEC
:1056200040EEA01A60EE020A64EEA12A45EE610A7D
:1056300040EE412A25EE010A90ED011A04EEC20A5D
:10564000B5EEC01AF1EE10FA2CDD90ED011AD0ED96
:10565000021A21EE222A9FED4B1A42EE011AC0EDEA
:10566000021AD0ED011A21EEA02AD0ED031A42EE63
:10567000011AC0ED031AD0ED011A21EE802AD0EDF7
:10568000041A42EE011AC0ED041A90ED021A34EE2B
:10569000014A90ED031A73EE813A90ED041A33EE4D
:1056A000013A07E09FED381A80ED021A80ED031AE7
:1056B00080ED041A90ED001A01EE224A90ED001AD6
:1056C00041EE203AD0ED000A00EE803A9FED2F0A1D
:1056D000D2ED021A24EE002A63EE802A23EE001A8D
:1056E00092EC020A92ED033A60EEC23A41EEE23ADF
:1056F00043EE413A73EE804A60EE023AC2ED004A50
:1057000041EE813A43EE623A33EEA04A60EE223A2D
:1057100020EE010A82ED014A40EEC13A00EEA20AF3
:1057200043EE023A01EEC20A73EEA13A70EE030AAA
:1057300024EEA40AC2ED023AC2ED030A04EE040A02
:1057400003EEA30A00EEA00A04F000FAD2ED000A6C
:1057500060EE800AC2ED000AD2ED010A60EE800A16
:10576000C2ED010AD2ED020A60EE800AC2ED020A21
:10577000D2ED030A20EE800A82ED030A00BD00008C
:10578000900200206F12833A000000006F12033A6B
:10579000FEE77047DFED3A1AF0B390ED111A80ED95
:1057A000121A90ED101A80ED111A80ED060A30EEF3
:1057B000600AC0ED070A80ED100AD0ED050AB1EECF
:1057C000602AB4EEC20AF1EE10FA06DDB4EEE00A89
:1057D000F1EE10FA01D2C0ED101A90ED000AD0EDF2
:1057E000100A60EE201AC0ED0A1A90ED0B0A90ED37
:1057F000012A02EE200A70EEC10A80ED0B0A90ED3C
:105800000E2A80ED0F2A90ED0D2A80ED0E2AC0EDB4
:105810000D0A90ED021A00E02EE021EE201A80ED34
:105820000C1AD0ED040AB4EEE00AF1EE10FA06DC30
:10583000F1EE600AB4EEE00AF1EE10FA01D2C0ED2A
:105840000B0A90ED0B0A31EE800A30EE010A80ED72
:10585000090AD0ED030AB4EEE00AF1EE10FA06DC14
:10586000F1EE600AB4EEE00AF1EE10FA01D2C0EDFA
:10587000090A90ED090A7047B0EE610A704700000E
:105880000000000000282FD000292DD091ED000A43
:1058900080ED000A91ED010A80ED010A91ED020A06
:1058A00080ED020A91ED030A80ED030A91ED040AEE
:1058B00080ED040A91ED050A80ED050A9FED0B0AC3
:1058C00080ED0F0A80ED0E0A80ED0D0A80ED090AC9
:1058D00080ED0C0A80ED0B0A80ED0A0A80ED120AB9
:1058E00080ED110A80ED100A7047000000000000F2
:1058F0007047002801DC404200B270472DE9F041BA
:105900007A4C00257A4E6570607800EB800101EBDF
:10591000C00131440979090602D5A580E580B8E0C7
:10592000401CC0B260700528EED37048A178714F5A
:10593000C08821B102290CD0032914D024E0C82842
:1059400022D96C480C3804F00BFB0121A170E580D2
:105950001AE02146C82817D98D70E580707C40F088
:10596000800070740EE0C8280ED9384604F0F8FAAA
:10597000A570E580B07F5D4940F08000B0772131AF
:105980002820C87003F054FA20695B4BB0F900106E
:105990005E42994219DAB0F902209A4215DAB0F95A
:1059A0000420B24211DDB0F906209A420DDA827A63
:1059B000022A0AD190F80BC02246BCF1010F04D193
:1059C00092F802C0BCF1000F12D0B1423BDDB0F939
:1059D00002202146B2421BDDB0F904209A4250DA7F
:1059E000B0F90620B2424CDD827A022A06D048E0A5
:1059F000D088401CE0803F480C3821E0C07A012864
:105A00003FD18878E0B3C888401CC880022035E0C8
:105A10009A4236DAB0F904209A4232DAB0F9062016
:105A20009A422EDA827A022A2BD1C07A012828D112
:105A3000887828B3C888401CC8800320A0703846E6
:105A400004F094FA1EE0224699421ADAB0F90210E4
:105A5000B14216DDB0F90410B14212DDB0F9061002
:105A6000B1420EDD817A02290BD1C07A022808D119
:105A7000907828B1D088401CD0800420A07001E02C
:105A8000FFE7E5806369E26844F62061981A88427E
:105A900002D9A570BDE8F08142F21071884206D9A2
:105AA0002AB1A07818B144F61F611F2005E0934287
:105AB00005D022B1A07840B15F2003F0C1F9A178F0
:105AC000204611B18188491CA180A088B0F5C87F0B
:105AD00003D9A17809B1A58005E0C82803D9A07829
