:020000040800F2
:10000000001B0020290200080F2B00087D28000893
:100010000D2B000879060008893500080000000053
:10002000000000000000000000000000592D000842
:100030008D07000800000000412B00085B2D000820
:10004000430200084302000843020008430200087C
:10005000430200084302000843020008430200086C
:10006000430200084302000843020008430200085C
:10007000D5060008430200084302000843020008B6
:10008000430200084302000843020008430200083C
:100090007D060008430200084302000843020008EE
:1000A000430200084302000843020008430200081C
:1000B00043020008052E000843020008430200081E
:1000C00043020008430200084302000843020008FC
:1000D00043020008253400084302000831340008B8
:1000E00043020008430200084302000843020008DC
:1000F00043020008430200084302000843020008CC
:1001000043020008430200084302000843020008BB
:1001100043020008430200084302000843020008AB
:1001200043020008E1060008ED060008430200084B
:10013000430200084302000843020008430200088B
:100140008906000843020008430200084302000831
:1001500043020008F906000805070008F534000806
:10016000430200084302000843020008430200085B
:100170004302000843020008430200080000000098
:10018000430200084302000800F002F800F03CF8C7
:100190000AA090E8000C82448344AAF10107DA45E2
:1001A00001D100F031F8AFF2090EBAE80F0013F0F8
:1001B000010F18BFFB1A43F0010318474C620000FF
:1001C0006C620000103A24BF78C878C1FAD8520790
:1001D00024BF30C830C144BF04680C6070470000C1
:1001E0000023002400250026103A28BF78C1FBD840
:1001F000520728BF30C148BF0B6070471FB505F0DC
:10020000D8FE1FBD10B510BD00F07DF91146FFF7F7
:10021000F5FF04F08FFC00F09BF903B4FFF7F2FF49
:1002200003BC00F09FF900000948804709480047D7
:10023000FEE7FEE7FEE7FEE7FEE7FEE7FEE7FEE796
:10024000FEE7FEE704480549054A064B70470000F3
:10025000F52D00088901000800150020001B002072
:10026000001700200017002053EA020C00F06980FC
:100270002DE9F04B4FF00006002B1FBFB3FA83F5BA
:1002800003FA05F424FA05F65E4012BF1643B2FAEB
:1002900082F502FA05F4C5F120051EBF22FA05FC1D
:1002A00044EA0C04203556EA044C4FEA144418BFC3
:1002B000641C4FF000084FF00009904271EB030CF2
:1002C00039D3002919BFB1FA81F701FA07F6B0FA5C
:1002D00080F700FA07F6C7F120071EBF20FA07FCD7
:1002E00046EA0C062037B6FBF4FCA7EB0507103FE7
:1002F00007F01F0BCBF120060CFA0BFB2CFA06F6CD
:1003000044BFB3460026202FA4BF5E464FF0000B2B
:100310005BEA060C08BF4FF0010B19EB0B09ABFBB6
:10032000027C48EB0608C01B06FB02CC0BFB03CC8F
:1003300071EB0C01C1E70B46024641464846BDE859
:10034000F08B13B54FF000004FF00001AFF30080C9
:10035000BDE81C407047032A40F2308010F0030CC7
:1003600000F0158011F8013BBCF1020F624498BF08
:1003700011F801CB00F8013B38BF11F8013BA2F1A5
:10038000040298BF00F801CB38BF00F8013B11F020
:10039000030300F07C80083AC0F0088051F8043B69
:1003A000083A51F804CBA0E80810F5E7121D5CBF2D
:1003B00051F8043B40F8043BAFF30080D20724BF60
:1003C00011F8013B11F801CB48BF11F8012B24BFF4
:1003D00000F8013B00F801CB48BF00F8012B704743
:1003E0004FF000020429C0F0128010F0030C00F05E
:1003F0001B80CCF1040CBCF1020F18BF00F8012BDC
:10040000A8BF20F8022BA1EB0C0100F00DB85FEAA9
:10041000C17C24BF00F8012B00F8012B48BF00F875
:10042000012B70474FF0000200B5134694469646E4
:10043000203922BFA0E80C50A0E80C50B1F12001F7
:10044000BFF4F7AF090728BFA0E80C5048BF0CC0A5
:100450005DF804EB890028BF40F8042B08BF704703
:1004600048BF20F8022B11F0804F18BF00F8012B75
:10047000704770477047704710B500F03FF800684C
:1004800010BD10B5044600F039F8046010BD10B579
:10049000203AC0F00B80B1E81850203AA0E818507C
:1004A000B1E81850A0E81850BFF4F5AF5FEA027C3D
:1004B00024BFB1E81850A0E8185044BF18C918C0AC
:1004C000BDE810405FEA827C24BF51F8043B40F84D
:1004D000043B08BF7047D20728BF31F8023B48BF32
:1004E00011F8012B28BF20F8023B48BF00F8012B70
:1004F0007047000000487047A01400200048704773
:10050000A014002070477546FFF7F4FFAE460500C3
:100510006946534620F00700854618B020B5FFF71E
:1005200091FEBDE820404FF000064FF000074FF06D
:1005300000084FF0000B21F00701AC46ACE8C00901
:10054000ACE8C009ACE8C009ACE8C0098D4670470A
:1005500010B50446AFF300802046BDE81040FFF719
:100560005CBE000001491820ABBEFEE72600020079
:100570009FED0E0AF2EE020A80ED050A80ED060AF2
:1005800080ED000AC0ED040A80ED010ADFED080AE3
:1005900080ED020AC0ED030A80ED070A80ED080A2B
:1005A00080ED090A80ED0A0A704700000000000093
:1005B0000000F04270EEC01AB1EE400ADFED272ACB
:1005C00070EE600AB0EE612A41EE221A2448B0EEC5
:1005D000600A41EE620AB0EE403AC0ED001A01EE48
:1005E000223A01EE622A9FED1F0AC0ED040A1E495D
:1005F00080ED083A80ED0C2A21EE801A60EE800A28
:1006000063EE001A22EE002AB3EE030A80ED011A0F
:1006100021EE001AC0ED050AC0ED091A80ED0D2A81
:10062000BDEEC11A60EE800A11EE100AFDEEE00A7E
:100630004042C8620D480E49C0ED0B0A61EE800AC7
:1006400022EE000AFDEEE00ABDEEC00A10EE900AAE
:100650004042C862074880ED0B0A70470000104214
:10066000780400204276F43FE404002008060020CD
:100670002C07002050080020FEE70000014800F091
:100680005EBA000034010020014800F058BA0000B2
:100690005C01002010B50D4C0023082288B0A04258
:1006A00001D1940103E00A4CA04207D10624CDE910
:1006B00000430293CDE903328DF814300A4606ABAD
:1006C000694600F0DDF808B010BD000034010020DC
:1006D0005C010020014800F0B1BD0000580300207B
:1006E000014800F0ABBD0000B8030020014800F055
:1006F000A5BD000098020020014800F09FBD000049
:1007000018040020014800F099BD0000F802002004
:1007100001681823CAB2103AB2FBF3F2054B6FF32B
:100720000901032A9B5CC36500D9091D8165084640
:1007300070470000C65F000810B5014600208B69B5
:100740008A6A4FF0C07453B1B3F5005F15D072B12F
:10075000012A0CD0022A0AD0032A09D104E01AB1D6
:10076000012A06D0022A03D1C96AC90100D5012095
:1007700010BDC96AA142FAD010BD002AF7D0012AE3
:10078000F2D0022AF3D0032AF3D010BD704772B61C
:10079000FEE700002A48BBEE030A2B4990ED0A1A37
:1007A0002848C1EE000AB3EE031AC0ED030AD1EDEA
:1007B0000A1A2649C1EE812AC0ED072A91ED0A2ABC
:1007C0002349C2EE011AC0ED0B1A91ED0A1A81EE0F
:1007D000002A9FED201A60EE810A22EE810A61EE66
:1007E000811ADFED1D2A80ED0F2A22EE011A30EE6C
:1007F000C02AC0ED020A80ED060AC0ED0A1A32EEE8
:10080000612A80ED0E1A32EE012A82EE223A30EE93
:10081000602A30EE800A32EE612A30EE210A72EE52
:10082000012A30EE010AB5EE002A62EE822A20EE9D
:10083000020A80ED153AC0ED132A80ED140A7047C4
:10084000E404002078040020080600202C07002083
:1008500050080020960A063F0000104390F8202020
:10086000012A07D0022A05D0416A41F48021416261
:1008700001207047006842690A43426100207047C6
:10088000F0B590F820500468A468012D05D0022D21
:1008900003D0416A41F4802153E014F0406F01D14C
:1008A000E5004BD5C4F30164022C03D9416A41F43D
:1008B000000146E00125A5401D608D684FF4C0731E
:1008C0009DB1CE6835434E6845EAC605066803EB20
:1008D0000417F5514FF4C275076805EB04150E694E
:1008E0007E51097D012905D009E00E88CD6845EAD1
:1008F0004655EBE701684E5946F480764E51117922
:10090000D2F805504FF4C67641EA0525016806EB9A
:1009100004168D511178D2F801204FF4C47541EAC4
:100920000221026805EB04155151006803EB041124
:10093000425842F0010242500020F0BD416A41F4A9
:10094000001141620120F0BD10B590F82020012A6D
:1009500007D0022A05D0416A41F48021416201207A
:1009600010BD3B48D0F8002242F00102C0F800223E
:10097000D0F8002222F47C52C0F80022D0F80022E5
:100980004B6A42EA0322C0F800220A7D02F01F03EC
:1009900001229A40D0F81C329343C0F81C32CB6934
:1009A000B3B9D0F80C329343C0F80C328C894B6841
:1009B00064F31F434C6900EBC404C4F840320C8953
:1009C0000B6864F31F434C6900EBC404C4F8443261
:1009D000CB69012B16D1D0F80C321343C0F80C327E
:1009E0000C884B6864F31F434C6900EBC404C4F8E3
:1009F00040320C89CB6864F31F434C6900EBC4049C
:100A0000C4F844328B69002BD0F804320ED0134363
:100A1000C0F804320B69002BD0F8143208D013430D
:100A2000C0F81432096A012904D008E09343EFE7C3
:100A30009343F5E7D0F81C121143C0F81C12D0F80C
:100A4000001221F00101C0F80012002010BD0000CA
:100A500000640040704730B590F82040012C05D06C
:100A6000022C03D0416A41F480215DE00468002932
:100A700055D02469A40754D04FF4D874056804EB0A
:100A800001142D5915F00405956005682D594ED0B7
:100A9000ED08556005682C5904F00204D4604FF449
:100AA000DA74056804EB01142D5905F00F05156182
:100AB00005682D59C5F30725956105682C59240C47
:100AC00054614FF4DC72046802EB0112A4581C70EC
:100AD0000468A458240A5C700468A458240C9C7010
:100AE0000468A258120EDA704FF4DE72046802EB4A
:100AF0000112A4581C710468A458240A5C7104688B
:100B0000A458240C9C710468A258120EDA71006873
:100B100081B1016941F020010161002030BDE4682C
:100B2000A8E7416A41F400114162012030BD6D0D1A
:100B30001560AFE7C16841F02001C160EDE72DE924
:100B4000F05F0546006800244669D0F80490876885
:100B5000D0F80CB0D0F810A0D0F81880F10748D029
:100B6000F90714D001218160B80703D5284600F0A9
:100B700004FB0CE0780702D54FF4006407E0380767
:100B800002D54FF4805402E0284600F0F5FAF8054B
:100B900016D529684FF480708860B80503D52846BB
:100BA00000F0EDFA0CE0780502D544F4005407E0BB
:100BB000380502D544F4804402E0284600F0DEFA0D
:100BC000F80316D529684FF480308860B80303D540
:100BD000284600F0D6FA0CE0780302D544F400442D
:100BE00007E0380302D544F4803402E0284600F0E0
:100BF000C7FA300707D55FEACB6004D52968102013
:100C000044F40074C86070074FF0080707D55FEA26
:100C10000B7004D52868C760284600F099F9B00722
:100C200006D52868C068800702D0284600F092F9EF
:100C3000700607D55FEACA6004D52968102044F41D
:100C400080640861B00607D55FEA0A7004D5286899
:100C50000761284600F060FAF00606D528680069AA
:100C6000800702D0284600F058FAB00308D55FEAA2
:100C7000C96005D5296810204860284600F04EFA62
:100C8000F00307D55FEA097004D528684760284655
:100C900000F078FA300446D55FEA497040D5F00597
:100CA00004D55FEAC87001D044F00104B00504D552
:100CB0005FEA887001D544F00204700504D55FEA4C
:100CC000487001D544F00404300529D518F0700FA0
:100CD00026D008F07000402815D006DC102809D076
:100CE00020280AD0302816D10AE050280ED06028DB
:100CF00011D10EE044F008040DE044F010040AE0C5
:100D000044F0200407E044F0400404E044F0800490
:100D100001E044F480742868816921F070018161E8
:100D2000296804204860002C05D0686A2043686266
:100D30002846FFF78FFEBDE8F09F70B5040003D092
:100D400094F8200010B104E0012070BD204600F0AE
:100D500081F82068016841F00101016000F0A0FC09
:100D60000546052604E000F09BFC401B0A2811D82C
:100D700020684068C007F6D02068016821F00201B1
:100D8000016000F08DFC05460BE000F089FC401B83
:100D90000A2806D9606A40F40030606284F8206056
:100DA000D2E7206840688007EFD4207E01282068C1
:100DB00001683DD021F080010160607E012820683B
:100DC000016838D021F040010160A07E0128206830
:100DD000016833D021F020010160E07E0128206805
:100DE00001682ED041F010010160207F01282068A9
:100DF000016829D021F008010160607F0128206886
:100E0000016824D021F004010160D4E90201084303
:100E1000D4E90412114308436168491E084321685C
:100E2000C86100206062012084F82000002070BDAD
:100E300041F08001C0E741F04001C5E741F02001E9
:100E4000CAE721F01001CFE741F00801D4E741F0F3
:100E50000401D9E7F0B587B0044614216846FFF7CE
:100E6000E1FA364B3648DFF8D0E01968D4F800C014
:100E7000334A03250226092710300024491CF44573
:100E800022D11960012907D1016841F00071016088
:100E9000006800F000700590106840F008001060D5
:100EA0001068CDE9005600F00800CDE904706946ED
:100EB0002448CDE9024500F0FBFA00220521142068
:100EC00000F05CFC142032E0DFF87CE0F44530D127
:100ED000D0F800C04CF0806CC0F800C0D0F800C062
:100EE00001290CF0806CCDF814C0196007D101689D
:100EF00041F000710160006800F00070059010681A
:100F000040F002001060106802AB00F00200059093
:100F10006020CDE9000683E8B00069460B4800F088
:100F2000C7FA00220521402000F028FC402000F0F4
:100F300017FC07B0F0BD0000006400400000002076
:100F400030380240000C02400068004000040240BB
:100F50007047000070B564490126644D8AB088422C
:100F60006AD107AB6A4600215F48FFF774FD07A806
:100F700003F0D0FEB0F90010B0F9022000EE101A14
:100F8000B0F904300098B8EEC00A40F20324A0F291
:100F90000321A04239D00CDC032844D0881C42D065
:100FA000012830D1BCEEC00A10EE100A81B25048C0
:100FB0003FE0012930D0022925D1BCEEC00A10EE55
:100FC000100A95ED050A80B285ED060A00EE100ABA
:100FD000F8EE400A9FED470A80EE801ADFED460AE0
:100FE00021EE201A85ED051A6B63696800290AD184
:100FF00001EE100AB8EE411AC1EE001A21EEA00A65
:1010000085ED000A6E600AB070BDBCEEC00A10EE3D
:10101000100A81B239480CE0BCEEC00A10EE100A8A
:1010200081B2374805E0BCEEC00A10EE100A81B26A
:10103000344803F0C3FCE6E733498842E3D107AB09
:101040006A4600213048FFF706FD304C08B1032006
:10105000A06007A803F05EFE0099072922D00629A8
:10106000D1D1A168E160B0F90000A060012827D0CB
:101070000228C8D195ED050A254910EE100A08444A
:1010800024498842BFD2608A00EE900AF8EE600AD6
:1010900070EE600AF5EEC00AF1EE10FA14DD85F884
:1010A0002061B0E701882180428862808388A38024
:1010B000B0F90600A8634842208050426080A2E751
:1010C0000229A0D1AE609EE700EE900AF8EE600A19
:1010D00030EE600AB5EEC00AF1EE10FA93D20220AB
:1010E00085F820018FE700003401002074090020FA
:1010F0000806002000F8FF450000B4432C0700203C
:1011000050080020E40400205C010020D0040020EE
:10111000FFFF5FBFFFFF130370477047704700007A
:1011200070B5044690F82000012804D0606A40F4AD
:101130000020606218E0022084F820002068016826
:1011400021F00101016000F0ABFA05460EE000BF9E
:1011500000F0A6FA401B0A2808D9606A40F4003063
:101160006062052084F82000012070BD206840687E
:10117000C007EDD1606270BD70477047704770471F
:101180007047704770472DE9F0410446876D00F0C5
:1011900087FA064694F835000025022806D08020FC
:1011A000606584F834500120BDE8F0812068016852
:1011B00021F0160101602068416921F08001416140
:1011C000206C08B9A06C20B12068016821F00801EA
:1011D00001602068016821F0010101600CE000F06D
:1011E0005FFA801B052807D920206065032084F85A
:1011F000350084F83450D7E720680068C007EED186
:1012000094F85C103F208840B860012084F83500D5
:1012100084F834500020C7E790F83510022903D035
:101220008021416501207047052180F83510006854
:10123000016821F001010160002070472DE9F843A9
:1012400004464FF00009CDF8009063484FF4165162
:10125000A56D0068B0FBF1F72E6894F85C100820CB
:1012600000FA01F131420FD021680A6852070BD50C
:101270000A6822F004020A6094F85C108840A860B2
:10128000606D40F00100606594F85C104FF001085B
:1012900008FA01F0304208D021684969090604D5EE
:1012A000A860606D40F00200606594F85C10042056
:1012B0008840304208D021680968890704D5A860B1
:1012C000606D40F00400606594F85C101020884068
:1012D000304218D021680968090714D5A860206831
:1012E0000168490304D50068000308D5A16C07E034
:1012F0000168C90503D4016821F008010160216C6F
:1013000009B12046884794F85C102020884030427C
:1013100031D021680968C9062DD5A86094F8350038
:1013200005282068016806D0490347D500680003F6
:101330001DD4616C1CE021F0160101602068416938
:1013400021F080014161206C08B9A06C20B12068B7
:10135000016821F00801016094F85C103F2088408A
:10136000A86084F8358084F83490216D1FE0E16B2B
:1013700009B120468847606D00282BD0606DC007FA
:1013800014D0052084F835002068016821F001019F
:1013900001600098401C0090B84203D820680068A3
:1013A000C007F6D184F8358084F83490E16C0029C8
:1013B00010D001B02046BDE8F04308470168C905D8
:1013C000D5D4016821F01001016084F8358084F8DB
:1013D0003490CCE7BDE8F883F40000202DE9F0411B
:1013E000044600F05DF906465CB1022084F8350041
:1013F000002584F834502068016821F00101016063
:101400000DE00120BDE8F08100F04AF9801B0528BD
:1014100005D920206065032084F83500F2E72068B4
:101420000068C007F0D12268116820480140D4E963
:1014300001031843D4E9033633431843636918435F
:10144000A3691843E3691843236A18430843616A90
:10145000042903D1D4E90B13194308431060206811
:101460004069666A20F0070130460E4301270428D0
:101470000CD1A06A0643E06A40B12046FFF75CF950
:1014800020B14020606584F83570BAE72068466175
:101490002046FFF73DF994F85C203F2191408160A0
:1014A000656584F835700020ACE700003F8010F0DF
:1014B0002DE9F84FDFF8BCA1002201250AF1040B49
:1014C00003264FF00F090BF1040E00BF0B6805FA5D
:1014D00002F42340A34270D10F7907F00307012FD4
:1014E00001D0022F16D187684FEA420806FA08FC9D
:1014F00027EA0C07D1F80CC00CFA08FC4CEA070CE0
:10150000C0F808C04768A7430C79C4F3001494409E
:101510003C4344600C79E443A4070AD0C4684FEA12
:10152000420C06FA0CF7BC438F6807FA0CF7274306
:10153000C7600C7904F00304022C12D1D40800EB2C
:10154000840CDCF820405707FF0E09FA07F824EA5C
:101550000804D1F8108008FA07F848EA0408CCF823
:10156000208004684FEA420C06FA0CF7BC430F795E
:1015700007F0030707FA0CF7274307604C6814F4D9
:10158000403F70D03C4C276847F480472760246870
:1015900022F0030704F480440094384C07EB040C59
:1015A000DCF8084897074FEA177809FA08F7BC43B0
:1015B000334FB84202D1002724E054E0314FB84203
:1015C00001D101271EE0304FB84201D1022719E0B6
:1015D0002E4FB84201D1032714E02D4FB84201D15C
:1015E00004270FE02B4FB84201D105270AE02A4F0C
:1015F000B84201D1062705E0284FB84201D107279C
:1016000000E0082707FA08F72743CCF80878DAF84B
:1016100000405746D1F804C09C435FEACC3C00D55B
:101620001C433C60DBF800405F46D1F804C09C439B
:101630005FEA8C3C00D51C433C60DEF800407746F6
:10164000D1F804C09C435FEACC2C00D51C433C601D
:10165000084F0C373C68D1F804C09C435FEA8C2CDF
:1016600000D51C433C60521C102AFFF42FAFBDE88C
:10167000F88F0000003C0140443802400030014037
:10168000000002400004024000080240000C02403A
:10169000001002400014024000180240001C0240EA
:1016A0000148806870470000E80000200248816817
:1016B0000278114481607047E80000200B4810B5A3
:1016C000016841F400710160016841F480610160CA
:1016D000016841F480710160032000F06FF80F2071
:1016E00000F006F800F024F8002010BD003C024095
:1016F00070B50D4D04464FF47A712878B1FBF0F0C7
:101700000A490968B1FBF0F000F00CFB48B9102C55
:1017100007D200222146501E00F030F800206C60F5
:1017200070BD012070BD0000E8000020F400002022
:101730000A4808B5016841F480410160006800F47E
:10174000804000900548001F016841F08051016011
:10175000006800F08050009008BD0000443802404E
:10176000002809DB00F01F020121914040098000A0
:1017700000F1E020C0F8001170470000F0B40E4BFB
:101780001B680C46C3F30223C3F10705042D00D9DF
:101790000425191D072901D2002300E0DB1E0126C4
:1017A00006FA05F1491E214099409E40761E1640DA
:1017B0003143F0BC01F016BF0CED00E0064900F02B
:1017C000070208684FF6FF03184040EA0220034A68
:1017D00010430860704700000CED00E00000FA05BF
:1017E0002DE9F0470E46050065D0DFF81481D8F8E2
:1017F0000000F7B200F00700B04207D288F800708E
:10180000D8F8000000F00700B04254D128683D4CE1
:10181000810712D5400703D5206840F4E0502060CE
:101820002878000703D5206840F4604020602068D5
:10183000A96820F0F000084320602878C0072DD068
:10184000304968680839012812D0022813D00328CB
:1018500011D00968890700292DDA216821F00301D8
:1018600001432160FFF71CFF814641F2883A0EE0F8
:1018700009688903EFE709688901ECE7FFF710FFC2
:10188000A0EB0901514502D90320BDE8F08720688B
:10189000696800F00C00B0EB810FEFD1D8F80010B0
:1018A000404601F00701B14207D90770006800F017
:1018B0000700B04201D00120E7E72878400705D5AE
:1018C0002068E96820F4E050084320602878000789
:1018D00006D52068296920F4604040EAC1002060F4
:1018E00000F038F82168084AC1F30311515CC84080
:1018F0000649086006480068FFF7FAFE0020C4E7C2
:10190000003C024008380240CE5F0008F40000208E
:10191000EC0000200448054900680968044AC1F346
:101920008221515CC8407047F40000200838024012
:10193000DE5F00080448054900680968044AC1F3ED
:101940004231515CC8407047F40000200838024022
:10195000DE5F0008154810B5006810F00C0214484E
:1019600013D01449042A0FD0082A0ED10F4C241F7B
:101970002268236802F03F025B0207D52068C0F3AB
:101980008810A0FB010106E0084610BD2168C1F3E4
:101990008811A1FB00010023FEF766FC2168C1F35A
:1019A0000141491C4900B0FBF1F010BD083802406C
:1019B0000024F400001BB7002DE9F84F04006ED09E
:1019C0002078DFF84C93C007A9F104054AD009F14B
:1019D00004000168C1F38101012908D00068C0F347
:1019E000810002280AD1D9F80000400206D52868F3
:1019F000800337D560680028E1D033E06068B0F537
:101A0000803F10D0B0F5A02F286810D020F480308F
:101A10002860286820F4802028606068A8B1FFF75B
:101A20003FFE06460DE0286840F48030F4E740F4BD
:101A300080202860F7E700BFFFF732FE801B642894
:101A400073D828688003F7D50CE0FFF729FE064617
:101A500005E000BFFFF724FE801B6428F0D828684B
:101A60008003F7D42078DFF8AC8280074FF0000ABB
:101A70003ED5A748001D016811F00C0F08D0006882
:101A8000C0F3810002280BD1D9F80000400207D42E
:101A90002868800716D5E068012800D112E033E1FC
:101AA000E068B8B10120C8F80000FFF7F9FD06466C
:101AB00005E000BFFFF7F4FD801B0228C0D82868AE
:101AC0008007F7D52868216920F0F80040EAC100B6
:101AD00028600DE0C8F800A0FFF7E2FD064604E02C
:101AE000FFF7DEFD801B02281FD828688007F7D487
:101AF0002078000722D5864F87486169703771B119
:101B000001210160FFF7CCFD064604E0FFF7C8FDA8
:101B1000801B022809D838688007F7D50EE0C0F886
:101B200000A0FFF7BDFD064605E082E0FFF7B8FD27
:101B3000801B02287DD838688007F7D420784007BA
:101B400068D5DFF8CCB100270BF13C0BDBF80000C7
:101B5000C0000BD4DBF8001041F08051CBF800102E
:101B6000DBF80000012700F0805000906B4E3068D9
:101B7000C00510D4306840F480703060FFF790FDED
:101B8000009005E0FFF78CFD0099401A022850D81C
:101B90003068C005F6D55E4EA0686C3601280FD0BF
:101BA0000528306810D020F001003060306820F047
:101BB00004003060A068B8B1FFF772FD00900FE03C
:101BC000306840F00100F4E740F004003060F7E7CF
:101BD000FFF766FD0099411A41F28830814266D8CC
:101BE00030688007F4D50EE0FFF75AFD009007E05B
:101BF000FFF756FD0099411A41F28830814256D8CC
:101C000030688007F4D42FB1DBF8001021F0805148
:101C1000CBF80010A069C8B33D49091D0968C1F39C
:101C2000810102294AD00228504607D0C8F8600036
:101C300000E03CE0FFF734FD04463BE04746C8F8CF
:101C40006000FFF72DFD064605E000BFFFF728FD09
:101C5000801B02282BD828688001F7D4D4E907011B
:101C60000843A16A2E4A490802EB0141626A41EA2F
:101C70008211084394F82C1040EA0161C9F8001061
:101C800001203866FFF70CFD044606E03EE000BF89
:101C9000FFF706FD001B022809D828688001F7D548
:101CA00034E000BFFFF7FCFC001B022802D9032030
:101CB000BDE8F88F28688001F4D427E00128F7D028
:101CC000D9F80000E26900F4800191421CD1226A37
:101CD00000F03F01914217D147F6C071626A01409E
:101CE000B1EB821F10D1A26A4FF0FF3300F44031F4
:101CF00003EB5202B1EB024F06D194F82C1000F026
:101D00007060B0EB016F01D00120D1E70020CFE778
:101D10000438024000004742800E474200700040F5
:101D20000000FFFF10B5401EB0F1807F01D30120FD
:101D300010BD4FF0E02460610F21601701F052FCEC
:101D40000020A06107202061002010BD704770476F
:101D500070B590F83C20012A32D0012480F83C4034
:101D6000022280F83D2003685A689D6822F07006C0
:101D70000A6832435A60134B02689A4214D0B2F197
:101D8000804F11D0104B9A420ED0104B9A420BD07C
:101D90000F4B9A4208D00F4B9A4205D00E4B9A42F5
:101DA00002D00E4B9A4204D1496825F080031943B2
:101DB000916080F83D40002180F83C10084670BDDD
:101DC000022070BD000001400004004000080040F7
:101DD000000C004000040140004001400018004099
:101DE00010B5040003D094F83D0010B107E00120C5
:101DF00010BD002084F83C00204600F01FF80220AF
:101E000084F83D00211D206801F002F8012084F8CB
:101E1000460084F83E0084F83F0084F8400084F8CF
:101E2000410084F8420084F8430084F8440084F8B8
:101E3000450084F83D00002010BD000008B5006892
:101E40000B49884212D10B48016841F00201016040
:101E50000068002200F00200009005211D20FFF71D
:101E60008DFCBDE808401D20FFF77ABC08BD0000CE
:101E7000000400404038024090F83D10012901D094
:101E800001207047022180F83D100168CA6842F0C5
:101E90000102CA6000681149884214D0B0F1804F35
:101EA00011D00F4988420ED00E4988420BD00E49FE
:101EB000884208D00D49884205D00D49884202D099
:101EC0000C49884204D1816801F00701062903D03A
:101ED000016841F0010101600020704700000140ED
:101EE0000004004000080040000C004000040140D5
:101EF000004001400018004070B5044690F83C00D6
:101F00000025012817D0012684F83C60022084F8BF
:101F10003D002068826822F0770222F47F428260CE
:101F20000868502838D00DDC20284FD005DC90B34D
:101F3000102811D14AE0022070BD302846D0402838
:101F40000AD13BE060282FD070280DD0B0F5805F1B
:101F500003D0B0F5005F12D0012584F83D60002069
:101F600084F83C00284670BDCB68D1E90121206887
:101F700000F0B2FF2068816841F0770109E0CB688A
:101F8000D1E90121206800F0A7FF2068816841F4B1
:101F900080418160E1E719E0CA684968206800F083
:101FA000ADFF5021206806E0CA684968206800F04B
:101FB000B6FF6021206800F099FFCEE7CA68496843
:101FC000206800F09BFF40212068F4E7226801466A
:101FD0001046F0E7704770B50446006801694FF09D
:101FE0000005C943890715D4C168C943890711D4BD
:101FF000E91E016101202077206880698007204662
:1020000002D0FFF7E7FF04E000F098F8204600F068
:1020100096F8257720680169C943490717D4C16834
:10202000C943490713D46FF00401016102202077EE
:102030002068806910F4407F204602D0FFF7CAFF75
:1020400004E000F07BF8204600F079F8257720685E
:102050000169C943090716D4C168C943090712D4E5
:102060006FF008010161042020772068C0698007B3
:10207000204602D0FFF7AEFF04E000F05FF82046F4
:1020800000F05DF8257720680169C943C90617D4B7
:10209000C168C943C90613D46FF01001016108205B
:1020A00020772068C06910F4407F204602D0FFF7F7
:1020B00091FF04E000F042F8204600F040F8257758
:1020C00020680169C943C90708D1C168C943C90764
:1020D00004D1891E0161204600F032F820680169B0
:1020E000C943090609D4C168C943090605D46FF07C
:1020F000800101612046FFF729FE20680169C9437C
:10210000490609D4C168C943490605D46FF04001A6
:102110000161204600F054F820680169C94389062E
:102120000BD4C168C943890607D46FF0200101614F
:102130002046BDE87040FFF70ABE70BD704770478B
:1021400010B51D4C2068401C0A2190FBF1F2206064
:1021500001FB120038B9FEF71DFB02F0FBFF02F095
:10216000C9FE02F0BDFF20683C2190FBF1F201FBAB
:10217000120008B903F062F921684FF4FA7091FB7C
:10218000F0F200FB121008B901F048F820680721AE
:1021900090FBF1F201FB120030B902F035F907486B
:1021A000008F00B202F0E2F82068B0F57A7F01DB20
:1021B0000120206010BD0000740000207409002080
:1021C0007047704770470000F8B50168044608681A
:1021D000CA684B6910F00F0F4FF000055AD003F09A
:1021E000010602F49077374365D0C10705D0D105C9
:1021F00003D5216C41F001012164410705D5D907C0
:1022000003D0216C41F002012164810705D5D90773
:1022100003D0216C41F004012164010707D502F0CD
:102220002001314303D0216C41F008012164216C6D
:1022300000293BD0800604D5900602D5204600F048
:10224000AFFE20684069216CC0F3801001F00801E6
:10225000014320462BD000F07CFE206840694006F8
:1022600021D52068143050E8001F21F0400140E8DB
:102270000012002AF5D1A06BA8B16C490165A06BD2
:10228000FEF7CAFF002811D0A06B016D01B0BDE8B8
:10229000F040084783060ED593060CD52046BDE8CE
:1022A000F84000F07DBE2046FFF78CFFF8BDFFF739
:1022B00089FF2564F8BD266B2023012E79D1C6063F
:1022C00077D5D60675D508684868009048694006F5
:1022D00040D5A16B086840680004000CEAD0A28DCC
:1022E0008242E7D9E085C869B0F5807F2DD02068AB
:1022F0000C3050E8001F21F4807140E80012002AE1
:10230000F5D12068143050E8001F21F0010140E8A9
:102310000012002AF5D12068143050E8001F21F087
:10232000400140E80012002AF5D184F83E302563D0
:1023300020680C3050E8001F21F0100140E8001226
:10234000002AF5D1A06BFEF71EFFA08DE18D401A8B
:1023500081B229E0A08DE18D401A81B2E08D002884
:10236000A8D00029A6D020680C3050E8002F22F415
:10237000907240E80026002EF5D12068143050E815
:10238000002F22F0010240E80026002EF5D184F84B
:102390003E30256320680C3050E8002F22F01002F8
:1023A00040E80023002BF5D12046FFF70AFFF8BDD7
:1023B000FFE705062BD5150629D594F83D00212801
:1023C000F5D1A068B0F5805F01D12069B0B1206A75
:1023D000411C2162216800784860E08C401E0004A6
:1023E000000CE084E3D12068C16821F08001C16065
:1023F0002068C16841F04001C160D8E7206A0088C8
:10240000C0F308004860206A801C2062E5E74006AF
:10241000CDD55006CBD5CA68204622F04002CA600E
:1024200084F83D3000F029FAC1E70000432F00088E
:1024300070B5040004D094F83D00002510B106E00A
:10244000012070BD84F83C50204600F023F8242081
:1024500084F83D002068C16821F40051C160204625
:1024600000F0FEFD2068016921F4904101612068BF
:10247000416921F02A0141612068C16841F400519D
:10248000C1602564202084F83D0084F83E000020CF
:1024900070BD00002DE9F04F87B005461421684655
:1024A000FDF7C0FF9648DFF8548214380221D5F8B2
:1024B00000C0934B0322CF03002406154FF00709F9
:1024C0004FF0006BC4456CD1D3F800C04CF0100C39
:1024D000C3F800C01B6803F010030593036843F0C2
:1024E00002030360036803F002030593036843F0EB
:1024F0000103036000688A4600F001000590802017
:10250000CDE9000A0DF1080C90468CE810036946ED
:102510007C48FEF7CDFF7010CDE9000A0DF1080AE6
:1025200069468AE810037848FEF7C2FFDFF8E081C9
:1025300076494046C8F80010C0E901B4C0E9034636
:10254000C8F81440C8F81840C8E90747D946BA4641
:10255000C8F82440FEF742FF08B1FEF718F96C4FA7
:102560006A48C5F8388060377830C8F83850E7E8EE
:102570000209402051C7664847F814496030BC61E1
:10258000C7E9074A7C62FEF729FF08B1FEF7FFF8AA
:102590006F63012200212520BD63FFF7EFF825209E
:1025A00044E0DFF87081C44545D1554B1B1FD3F87B
:1025B00000C04CF4802CC3F800C01B6803F48023D7
:1025C0000593036843F004030360006800F004000F
:1025D00005904FF440608DE81300CDE9032969466A
:1025E0004D48FEF765FFDFF828814C4908F1C00827
:1025F0004046C8F80010C0E901B4C0E90346C8F875
:102600001440C8F81840C8E90747C8F82440FEF746
:10261000E5FE08B1FEF7BBF8C5F8388000220421BA
:102620002720C8F83850FFF7A9F82720FFF798F8B7
:1026300007B0BDE8F08FDFF8E880C445F8D1D3F8E3
:1026400000C0A1464CF0200CC3F800C01B6803F08A
:1026500020030593036843F040030360006800F023
:10266000400005904FF484408DE813000820CDE928
:10267000032069462B48FEF71BFF2449DFF8A8809A
:1026800018394046C8F800104FF0206AC0E901A48C
:10269000C0E90346C8F814404FF40031C8F81840A8
:1026A000C8E90741C8F82440FEF798FE08B1FEF7D4
:1026B0006EF81D4C1548C5F8388060346030C8F895
:1026C0003850C4E9000A4020A060C4E90396C4F869
:1026D0001490C4F81890C4E907972046C4F82490D1
:1026E000FEF77CFE08B1FEF752F86C63002211463B
:1026F0004720A563FFF742F8472097E70010014005
:10270000443802400004024000000240406402409D
:102710009802002000480040000802402860024063
:102720000014014000180240B803002090F83E3029
:10273000202B0ED159B152B190F83C30012B08D06A
:10274000012380F83C300023036300F00FBD01201B
:1027500070470220704700001648B2EE041A90F845
:102760002B10303900EE101A90F82A10303900EE94
:10277000901AB8EEC00A90F82D10F8EEE00A303941
:10278000352200EE810A00EE901A9FED0B1A0B49DC
:10279000F8EEE00A00EE810A81ED000A81784078C7
:1027A00000EB800001EB4000054908600149054845
:1027B000FFF7BCBFFC000020CDCCCC3DD0000020FA
:1027C000D4000020CC0100202DE9F843044690F805
:1027D0003D001F4616460D4620284CD1C5B1BEB15E
:1027E00094F83C00012846D0012084F83C004FF0CA
:1027F0000008C4F84080212084F83D00FEF750FF17
:10280000A6848146E684A068B0F5805F03D004E02A
:102810000120BDE8F883206928B12E465FF000054D
:1028200084F83C800EE00026FAE78021204600F084
:10283000B8FCA0B9AEB116F8010B21684860E08C75
:10284000401EE084E08C4B464FF0000200970028C9
:10285000EBD14FF04001204600F0A3FC30B1032043
:10286000D7E735F8020BC0F30800E6E7202084F82C
:102870003D000020CDE70220CBE77047FEE70000D7
:10288000104810B50E4901600321416000214FF44A
:1028900080228160C0E903124FF4E00242610176B8
:1028A000012242768276C17601774177FEF745FABA
:1028B000002803D0BDE81040FDF769BF10BD00003F
:1028C0000064004034010020104810B50E4901603A
:1028D0000321416000214FF480228160C0E903128E
:1028E0004FF4E00242610176012242768276C1769F
:1028F00001774177FEF721FA002803D0BDE81040A8
:10290000FDF745BF10BD0000006800405C010020DD
:102910001D4808B5016841F400110160016801F427
:1029200000110091016841F48001016000680022FB
:1029300000F48000009011460C20FEF71FFF0C20D1
:10294000FEF70EFF002205213920FEF717FF392080
:10295000FEF706FF002205213A20FEF70FFF3A207E
:10296000FEF7FEFE002205214520FEF707FF452069
:10297000FEF7F6FE002205214620FEF7FFFEBDE829
:1029800008404620FEF7ECBE30380240194808B532
:10299000016841F002010160016801F0020100914B
:1029A000016841F040010160016801F040010091BF
:1029B000016841F001010160016801F0010100912D
:1029C000016841F008010160016801F0080100910F
:1029D000016841F004010160016801F00401009107
:1029E000016841F080010160006800F08000009003
:1029F00008BD00003038024010B586B000241748EA
:102A00000094019402940394049413490594016082
:102A10005321C0E9011440F2E731C0E90314846195
:102A2000FFF7DEF908B1FDF7B2FE4FF480500090D9
:102A300069460A48FFF760FA08B1FDF7A8FE04945A
:102A400004A906480594FFF783F9002801D0FDF793
:102A50009EFE06B010BD000000040040840100206E
:102A60000C4810B50A4901604FF4E1314160002182
:102A700081600C22C160C0E904128161C161FFF76D
:102A8000D7FC002803D0BDE81040FDF780BE10BD84
:102A900000100140CC0100200C4810B50A4901602B
:102AA0000B494160002181600422C160C0E9041229
:102AB0008161C161FFF7BCFC002803D0BDE8104074
:102AC000FDF765BE10BD0000004800401002002068
:102AD000A08601000C4810B50A4901604FF4E131AD
:102AE0004160002181600C22C160C0E90412816153
:102AF000C161FFF79DFC002803D0BDE81040FDF741
:102B000046BE10BD0014014054020020FEE7FEE75F
:102B10009FED0A0A80ED030A80ED040A80ED000AA9
:102B200080ED010A80ED020A80ED050A80ED060ABB
:102B300080ED070A80ED080A7047000000000000E1
:102B40007047002801DC404200B2704770B5194C54
:102B5000B4F90000FFF7F5FF40F29465A84217DCD6
:102B6000B4F90200FFF7EDFFA84211DCB4F904004C
:102B7000FFF7E7FFA8420BDCB4F90600FFF7E1FF1F
:102B8000A84205DCA07A18B1E07A08B1002070BD37
:102B9000002020806080A080E08020810221A1723E
:102BA000E172A081E0812082A074E074A082012003
:102BB00070BD00007A00002030B5144B1C686569B8
:102BC00045F0400565611B68DC6844F01004DC607A
:102BD0000F4B1C68256825F0010525601C682568D9
:102BE000ED07F7D11D680B4CAC601C68E0601868FD
:102BF0000161186842601868016841F48021016031
:102C00001868016841F00101016030BD1002002028
:102C1000580300200448004038B51B480168CA68C2
:102C200022F40052CA60194A11680B6823F00103AC
:102C30000B601368242159600068016841680091A5
:102C4000134C13684FF40011A34202D9104B4C3BB4
:102C500004E0104CA34203D90D4B503B196008E02F
:102C60000C4D0C4C603DB83CAB4201D9E16000E03A
:102C7000A160C16841F40051C1601068016841F071
:102C80000101016038BD000010020020580300203F
:102C900058640240B860024030B5284801684B696A
:102CA00043F040034B6101684B6943F080034B6183
:102CB0000068C16841F01001C160214801680B68DB
:102CC00023F001030B6001680B68DB07F7D11D4D92
:102CD0004FF40013A94202D91A4C4C3C04E01A4CA0
:102CE000A14203D9174C503C236008E0164D164C06
:102CF000603DB83CA94201D9E36000E0A360134BFA
:102D00008B6004681249E1600468216101684A60CF
:102D100001680A6842F480220A600068016841F094
:102D2000010101600B4801680A6822F001020A6093
:102D300001680A68D207F7D18B6030BD54020020C9
:102D4000B803002058640240B860024004140140F7
:102D5000880C0020180400207047FEF7A7BC000074
:102D600030B593B030216846FDF75CFB14210CA808
:102D7000FDF758FB1D480025016841F080510160B6
:102D8000006800F0805011901948016841F48041BA
:102D900001600068022400F480401190012000903E
:102DA000000401908001CDE9064006200890A8208B
:102DB000CDE9090404200B906846FEF7FDFD08B13B
:102DC00072B6FEE70CA90F2081E831004FF4A05045
:102DD0000F904FF48050109005210CA8FEF700FDD5
:102DE000002801D072B6FEE713B030BD4038024073
:102DF000007000400248016841F4700101607047B2
:102E000088ED00E00148FFF7E6B8000084010020EB
:102E1000F0B50268254C264D264E274F274B4FF024
:102E2000804CA04209D0604507D0A84205D0B042EE
:102E300003D0B84201D0984204D122F0700E4A6803
:102E400042EA0E02A0421BD0604519D0A84217D01A
:102E5000B04215D0B84213D0984211D0184DA842B4
:102E60000ED0184DA8420BD0174DA84208D0174DD0
:102E7000A84205D0164DA84202D0164DA84203D153
:102E800022F44075CA682A434D6922F080022A4321
:102E900002608A68C2620A688262A04201D09842D7
:102EA00001D10969016301214161F0BD00000140C8
:102EB0000004004000080040000C004000040140F5
:102EC000004001400044014000480140001800401B
:102ED000001C00400020004010B5846842EA032234
:102EE00024F47F440A432243826010BD826822F0AA
:102EF00070020A4342F007018160704710B5036A0F
:102F0000046A24F001040462846924F0F00444EAB1
:102F1000021423F00A020A438461026210BD10B554
:102F2000036A23F0100303628369046A23F4704385
:102F300043EA023224F0A00343EA011182610162F4
:102F400010BD10B5806B0021C185C184FFF73AF92F
:102F500010BD01680C3151E8002F22F4907241E855
:102F60000023002BF5D10168143151E8002F22F025
:102F7000010241E80023002BF5D1016B012909D1A1
:102F800001680C3151E8002F22F0100241E80023C3
:102F9000002BF5D1202180F83E10002101637047FD
:102FA00008B590F83E10222901D0022008BD8268A1
:102FB0004FF480539A4201D1016921B1816A9A424A
:102FC0001BD04AB10AE00268816A5268C2F3080263
:102FD0000A80816A891C08E0026972B1026852683D
:102FE00002F07F020A70816A491C8162C18D491E0C
:102FF0000904090CC18503D019E002685268F1E7A1
:103000000168CA6822F02002CA600168CA6822F416
:103010008072CA6001684A6922F001024A61202177
:1030200080F83E10016B012903D0FFF795FB0020CB
:1030300008BD0021016301680C3151E8002F22F026
:10304000100241E80023002BF5D101680A68D2067E
:1030500002D50A6849680091818DFFF7B2F8E6E76A
:1030600070B5044600680169E26821F440511143DB
:1030700001612169A068E26908436169114308435D
:103080002168CA6849F20C639A430243CA60206807
:103090004169A26921F440711143416131492068BD
:1030A000884202D03049884202D1FEF743FC01E059
:1030B000FEF730FCE2690023192164253226B2F5BF
:1030C000004F626828D0A0FB0101930F9200FDF72A
:1030D000CBF80146B0FBF5F06FF01802504301EB5E
:1030E000800006EB0010B0FBF5F000F0F002B1FB41
:1030F000F5F002EB0012B1FBF5F06FF01803584346
:1031000001EB800006EB0010B0FBF5F000F00F00C3
:1031100021681044886070BDA0FB010192185B41DA
:10312000FDF7A2F80146B0FBF5F00201B1FBF5F0A6
:103130006FF01803584301EB800006EBC000B0FBB2
:10314000F5F000F0F80002EB4002B1FBF5F0584357
:1031500001EB800006EBC000B0FBF5F000F00700CB
:10316000D6E7000000100140001401408162828512
:10317000C28500210164222280F83E2080F83C10A4
:103180000168CA6842F48072CA6001684A6942F004
:1031900001024A610068C16841F02001C16000205D
:1031A00070472DE9F041984617460E460446069DA5
:1031B00027E0681C25D02DB1FEF772FAA0EB0800BD
:1031C000A8421ED920680C3050E8001F21F4D071AD
:1031D00040E80012002AF5D12068143050E8001FA2
:1031E00021F0010140E80012002AF5D1202084F8E6
:1031F0003D0084F83E00002084F83C000320BDE838
:10320000F0812068006836EA000004D00020B8424F
:10321000CFD00020F3E70120F9E700002DE9F04FBF
:1032200085B014274FF487744FF420780097CDE9C8
:10323000038402250326DFF87C90CDE90165012394
:1032400099ED000A1A4619461BA000F06DF84FF4DC
:10325000A06B0097CDE903B4DFF860A0CDE901656C
:103260009AED000A01231A46B8EEC00A194614A0C6
:1032700000F05AF80097CDE90384CDE901650123F8
:1032800099ED000A1A4602210BA000F04DF80097B4
:10329000CDE903B4CDE901659AED000A01231A4690
:1032A000B8EEC00A022106A000F03EF805B0BDE865
:1032B000F08F0000D000002030393000D400002012
:1032C00030393100F0B585B014274FF487744FF4CE
:1032D00020700097CDE90304022503260E48CDE9AE
:1032E0000165012390ED000A1A4619460BA000F073
:1032F0001BF8B8010097CDE903040948CDE9016541
:1033000090ED000A01231A46B8EEC00A194605A03E
:1033100000F00AF805B0F0BDD000002030393000D0
:10332000D4000020303931002DE9F05F3A4C884656
:103330002DED028B0546DDE90E9A40F20110DDF815
:1033400030B036492080B0EE408A1E461746881EAF
:1033500001F0CAFA31489FED320A001F1523418857
:1033600061808088A0802878A0716878E071A87852
:10337000207214F8090F28EE000A68F3020020F00A
:103380003800283004F80809BDEEC00A2089224A16
:1033900067F389102081607A66F385006072A189E5
:1033A00069F30901A181B4F809106BF38E11A4F837
:1033B000091061890D9860F3CF116181B4F80D1087
:1033C0006AF38C01A4F80D10E189109860F34F1195
:1033D000E18110EE100A218A60F3090110EE100A53
:1033E0002182810AB4F8110061F38C00A4F8110065
:1033F00010EE100A4FF6FF7101EA6051608A61F326
:103400004F10608240F20131BDEC028BA520BDE877
:10341000F05F01F091BC00003F0C0020DC000020B8
:1034200000007A440148FEF7CFBE0000CC01002026
:1034300038B52A4800680168890603D501684068E4
:10344000009038BD26490968C906FAD50168406868
:10345000244A0090106801684FF024030C032249AD
:10346000046824F00104046016D414686068C0F194
:10347000240080B20880636011680B6843F4002365
:103480000B6011680A6842F001020A601228D8D164
:1034900015491648891C16E010684468C4F12404D4
:1034A000A4B20C8043601248816A21F40021816239
:1034B0001068016841F001010160122CC1D10A4974
:1034C0000A48891C243001F0BFFDFFF73FFB0128AB
:1034D000B7D1BDE838402420FFF79EBB1002002082
:1034E000004800405803002078000020080B00200E
:1034F000006002401F4818B40068C00637D51E4857
:1035000001680A6849680091816B09680A681B4B69
:1035100012030A684FF4007422F001020A60816B02
:1035200009684A68C2F5007292B21A804C60816BD9
:1035300009680B680CD443F400230B60806B0068AF
:10354000016841F0010101600D4901F580600BE067
:1035500023F400230B60806B0068016841F00101D7
:103560000160084901F5007018BC01F022B918BCCF
:10357000704700000014014054020020E6000020C3
:10358000880C0020880E0020FEE700000021C160AA
:10359000016101604160816041618161C1610162DD
:1035A0009FED030A416280ED0A0A80ED0B0A704725
:1035B0000000000003B401984100009850EAC120C7
:1035C00018BF04204A0D18BF40F0010040F2FF72FE
:1035D000B2EB515F08BF40F00200012808BF052090
:1035E00002B070470907090E002804DB00F1E02053
:1035F00080F80014704700F00F0000F1E02080F820
:10360000141D70470000000010B52F499FED2C1BC2
:103610002DED020B84B0059820F000408842D8BF01
:103620009DED040B2DDD2949884209D1049840B94C
:103630004FF00100FCF725FF00F0A2FC06B010BD22
:1036400005DB9DED040B00F08FFC06B010BD684655
:103650009DED040B00F0A0F810F0030004BF9DEDF9
:10366000021B9DED000B0CD001280ED09DED021B1E
:103670009DED000B022817D0012000F0DDFB06B005
:1036800010BD00F0A5FA06B010BD9DED021B9DED2A
:10369000000B012000F0D0FB51EC100B01F08CFF6F
:1036A00006B041EC100B10BD00F092FA51EC100B7B
:1036B00001F082FF06B041EC100B10BD00000000CD
:1036C0000000000000000000FB21E93F0000F07F47
:1036D00010B52F499FED2C1B2DED020B84B00598E2
:1036E00020F000408842DCBF00209DED040B32DD5D
:1036F0002849884209D1049840B94FF00100FCF7ED
:10370000C0FE00F03DFC06B010BD05DB9DED040BD6
:1037100000F02AFC06B010BD68469DED040B00F0D9
:103720003BF810F0030011D0012818D09DED021BCA
:103730009DED000B02281AD000F04AFA51EC100B54
:1037400001F03AFF06B041EC100B10BD9DED021BDD
:103750009DED000B012000F06FFB06B010BD9DED4C
:10376000021B9DED000B00F033FA06B010BD0120E6
:1037700000F062FB51EC100B01F01EFF06B041ECB3
:10378000100B10BD00000000000000000000000051
:10379000FB21E93F0000F07F2DE9F14F04462DEDBC
:1037A000020B2DED088B8AB09FEDE70B80ED020B2D
:1037B000139EE74826F0004585420ADC9DED120B7A
:1037C000002084ED000B0AB0BDEC088B03B0BDE80F
:1037D000F08FE0489FEDE0AB9FEDE1BBA84247DDF5
:1037E000E14F9FEDE39B9FEDE48B9DED120B53ECBE
:1037F0001A2B51EC100B002E1CDD02F07FFA41EC6D
:10380000100BBD4208D053EC1B2B51EC100B02F0F7
:1038100075FAC4E900010BE053EC192B51EC100BC5
:1038200002F06CFA53EC182B02F068FAC4E90001BC
:103830000120C8E701F0FEFE41EC100BBD4208D0AC
:1038400053EC1B2B51EC100B01F0F4FEC4E900010A
:103850000BE053EC192B51EC100B01F0EBFE53EC89
:10386000182B01F0E7FEC4E900014FF0FF30AAE792
:10387000C348A84279DB9DED120B51EC100B00F010
:103880006BFF41EC180B9FEDC00B53EC102B02F0BB
:103890002BF99FEDBF1B53EC112B01F0CBFE02F077
:1038A000C9F8074602F0F5F841EC190B53EC1A2B56
:1038B00002F01AF953EC182B02F014FA41EC180B31
:1038C00053EC1B2B51EC190B02F00EF9DFF8C8A2D8
:1038D00041EC100B4FEA15580125FA4453EC102B1C
:1038E00051EC180B02F00AFA032DC4E900013DD097
:1038F000C1F30A5005EB4511A8EB000011398142D4
:1039000034DA0AEB051BB0EE48AA9BED000BF0EE93
:1039100068AA53EC102B51EC190B02F0E5F841ECBE
:103920001B0B51EC1A0B53EC1B2B02F0E7F941EC8B
:10393000180B51EC1A0B53EC182B02F0DFF953EC77
:103940001B2B02F0DBF99BED020B41EC1A0B53EC45
:10395000102B51EC190B02F0C7F853EC1A2B02F0A4
:10396000CDF941EC100B6D1CB8E70EE0002EA8BF9E
:103970003846BFF628AF94ED000B51EC100B01F068
:103980001BFEC4E9000178421DE7C6F3130040F4B2
:10399000801EC6F30A50A0F2F530471100F01F0553
:1039A000C5F12000DDF848B008900020069007908F
:1039B0000520EC467949002D07EB0002794408BF49
:1039C00051F8221009D051F8223001EB8201AB40AE
:1039D0004A68089922FA01F11943A1FB0E26A1FBBE
:1039E0000B131A449A4234BF0123002303EB060849
:1039F0000CEB8003D3E901A60E448E4234BF0121B3
:103A0000002192448A4411B1924502D903E09245C3
:103A100001D2012100E00021C3E901A641444CF894
:103A20002010011EA0F10100C4DC029800F100503A
:103A3000850F0298DDE903678000DDF8148002F04D
:103A400028F841EC1A0B304602F03AF89FED541B6F
:103A500053EC112B02F048F841EC1B0B384602F0F6
:103A60002FF89FED511B53EC112B02F03DF841EC68
:103A7000180B404602F024F89FED4D1B53EC112B20
:103A800002F032F841EC190B51EC180B53EC192BE6
:103A900001F0D0FD53EC1B2B01F0CCFD53EC1A2BA5
:103AA00001F0C8FDCDE90801002008909DED080B4C
:103AB00053EC1A2B51EC100B02F020F953EC1B2B9A
:103AC00002F01CF953EC182B02F018F953EC192BE7
:103AD00002F008F99FED381B53EC112B02F004F8AB
:103AE0009FED370B41EC180B53EC102B9DED080BA1
:103AF00051EC100B01F0F8FF53EC182B01F09AFD7C
:103B00009FED310B41EC180B53EC102B9DED080B86
:103B100051EC100B01F0E8FF53EC182B01F08AFD7B
:103B200041EC100B139810F0004F06D06D4251EC91
:103B3000100B01F041FD41EC100B284684ED000B09
:103B400041E600000000000000000000000000004E
:103B5000FB21E93F7CD9024000004054FB21F93FA2
:103B60003163621A61B4D03DFB21F93F00000000CF
:103B70000000601A61B4D03D7370032E8A19A33B14
:103B8000FB2139410000000083C8C96D305FE43F6C
:103B9000000000000000E03F3A2A000088290000F1
:103BA000000000000000103E000000000000103C7B
:103BB000000000000000103A182D4454FB21F93D8C
:103BC0003326A611460B113C00000054FB21F93DA1
:103BD00010B52DED040B2DED088B82B0B0EE419A9F
:103BE000F0EE619A0B9820F000449FED4BABB4F1DE
:103BF000795F11DA9DED0A0B51EC100B01F01AFF01
:103C0000002801BFB0EE4A0AF0EE6A0A02B0BDEC2D
:103C1000088B04BF04B010BD9DED0A0B53EC102BB4
:103C200051EC100B01F060FF41EC180B3C480621F1
:103C3000B0EE480AF0EE680A784400F081F853ECE0
:103C4000182B51EC100B01F04FFF9DED0A0B41ECCE
:103C50001B0B53EC192B51EC100B01F045FF41EC01
:103C6000190B53EC1B2B51EC180B01F03DFF53ECDF
:103C7000192B02F043F89FED2C0B41EC190B53EC80
:103C8000102B51EC180B01F02FFF41EC100B2848C2
:103C9000844210DA53EC192B51EC100B02F02EF881
:103CA00053EC1A2B02F01EF841EC100B02B0BDECE5
:103CB000088B04B010BD1F48A042BCBF9FED1E1B67
:103CC0008DED001B06DBA4F5001001900020009094
:103CD0009DED001B51EC100B53EC112B02F00EF874
:103CE0009DED000B41EC180B53EC102B51EC1A0B13
:103CF00002F004F841EC1A0B53EC192B51EC180BA1
:103D000001F0FCFF53EC1A2B01F0ECFF41EC100B1F
:103D1000CCE7000000000000000000000000F03FC1
:103D2000AC26000000000000000000000000E03FA2
:103D30003333D33F0000E93F000000000000D23FD2
:103D400070B504462DED028B4D1E00EBC500B0EEA4
:103D5000408AF0EE608A90ED000B35F0060017D037
:103D600053EC182B51EC100B01F0BEFE41EC100B84
:103D70006D1E04EBC50090ED001B51EC100B53ECD5
:103D8000112B01F057FC41EC100B35F00600E7D188
:103D9000022D36D0042D1CD0062D1CBFBDEC028B8D
:103DA00070BD53EC182B51EC100B01F09DFE94EDFF
:103DB0000A1B53EC112B01F03DFC53EC182B01F0C6
:103DC00093FE94ED081B53EC112B01F033FC41ECF6
:103DD000100B53EC182B51EC100B01F085FE94EDF9
:103DE000061B53EC112B01F025FC53EC182B01F0B2
:103DF0007BFE94ED040B53EC102B01F01BFC41EC0B
:103E0000100B53EC182B51EC100B01F06DFE94EDE0
:103E1000021B53EC112B01F00DFC53EC182B01F09D
:103E200063FE94ED001B53EC112B01F003FCBDEC81
:103E3000028B41EC100B70BD31B504462DED040B27
:103E40002DED0A8BB0EE41BAF0EE61BA0B989DED04
:103E50000A0B20F00040B0F1795F0DDA51EC100B45
:103E6000FFF7A8FB042808BF00F09AF89DED0A0BA5
:103E7000BDEC0A8B05B030BD53EC102B51EC100B90
:103E800001F032FE41EC180B9DED0A0B53EC182BA0
:103E900051EC100B01F028FE41EC190B2C48B0EE50
:103EA000480AF0EE680A05217844FFF749FF9FEDC4
:103EB0002ACBB0EE40AAF0EE60AA9CB353EC1C2BC8
:103EC00051EC190B01F010FE41EC1C0B53EC1A2BBA
:103ED00051EC190B01F008FE9FED210B41EC190B81
:103EE00053EC102B51EC1B0B01F0FEFD53EC192B86
:103EF00001F004FF53EC182B01F0F6FD53EC1B2BE3
:103F000001F0FCFE53EC1C2B01F0F8FE9DED0A1BAA
:103F100053EC112B01F0E6FEBDEC0A8B05B041EC31
:103F2000100B30BDFFE753EC1A2B51EC180B01F0CE
:103F3000DBFD53EC1C2B01F07DFB53EC192B01F046
:103F4000D3FD9DED0A1B53EC112B01F073FBE3E74E
:103F50003425000000000000495555555555C5BF92
:103F6000000000000000E03F10B553EC102B51ECB6
:103F7000100B01F05FFB41EC100B10BD00000000C6
:103F80009FED050B10B553EC102B51EC100B01F00D
:103F9000F9FB41EC100B10BD000000000000000018
:103FA0009FED050B10B553EC102B51EC100B01F0ED
:103FB0009BFD41EC100B10BD000000000000001044
:103FC00010B5354800F0FEFD344800F0FBFD3448E4
:103FD00000F0F8FD334800F0F5FD334800F0F2FD45
:103FE0002D489FED320A3C38DFED320A80ED260A7B
:103FF0009FED2F0AB1EE061A80ED270AC0ED280AC0
:1040000080ED290A80ED2A0ADFED2B0A80ED2B0ACC
:10401000C0ED450ADFED290AC0ED460AC0ED470AAA
:104020001E48DFED270A3C38C0ED450A1C483C38E5
:1040300080ED451A1B489FED231A3C38C0ED450A18
:1040400019483C38C0ED450A1F4880ED0A1A9FED1B
:104050001F1A80ED0B1A80ED0C0A1D48C0ED0C0AEA
:10406000DFED1C0AC0ED0D0A80ED0E0A1648FEF7C2
:104070004FFD1748FCF77CFA00F0C8FF00F0DCFFAA
:1040800000F022F91448FDF7F7FE00F00FFDBDE83F
:104090001040FFF717B90000B009002020050020EC
:1040A00044060020680700208C080020C3F5283E45
:1040B000000000000AD7A33C9A995940CDCCCC3DD2
:1040C0003333A34033339340980A00206666E63FBB
:1040D000CC0A00209A99993F8401002010B590EDF8
:1040E000040AD0ED030A594A30EE600A80ED000A56
:1040F0001278012A13D0022A36D110EE102A544B1E
:104100009A4208DA10EE102A524B9A4203D29FEDDF
:10411000520A80ED000A514A926832B338E0D1ED7C
:10412000000A4F4A60EE800AC0ED050A90ED011AC0
:10413000D1ED021A30EE411A21EE211A80ED071A54
:1041400080ED010A30EE810A10EE101A914202DD74
:104150009FED440A06E010EE101A434A914201D93D
:104160009FED420A80ED080A10BD10EE102A404B68
:10417000DFED400A9A4202DD30EE600A06E010EE02
:10418000102A3D4B9A4203D930EE200A80ED000AF6
:1041900010EE102A4FF07E54384BA24209DC10EE8C
:1041A000102A9A4205D8D0ED020A70EE800AC0EDBE
:1041B000020A8268A24202DDF7EE000A03E09A4298
:1041C00003D9FFEE000AC0ED020AD1ED000A4FF05C
:1041D0007F5360EE800AC0ED050A91ED011AD0ED23
:1041E000021A61EE211AC0ED061A90ED011A91ED46
:1041F000022A10EE901A30EE411AF7EE080A9942A0
:1042000021EE021A80ED071A80ED010A01DDC0EDF2
:10421000050A1B494269BFEE082A8A4201D980ED8E
:10422000052A90ED050A30EE010A30EE210A10EE63
:10423000102A9A4202DDC0ED080A10BD10EE102AC5
:104240008A428FD980ED082A10BD000004000020AA
:10425000CDCC8C3FCDCC8CBF000000007409002079
:104260000000164300004842000016C3000048C288
:10427000000034430000B443000034C3000080BF9A
:104280000000C0BF30B50C4605000CD0022C0AD986
:104290000548A11E0288284600F002FB291901F8F2
:1042A000020D000A487030BDF800002030B50C4601
:1042B000050008D0022C06D9FF22611E00F006FB83
:1042C000291901F8010C30BD10B58AB00020012178
:1042D0000090019002900390CDE9051004900E200B
:1042E00008910791099069460D48FCF72DFB0F20B6
:1042F000059069460B48FCF727FB04460848FCF785
:104300000FFF0848FCF70CFF02210548FCF7A6FA4E
:1043100002210448FCF7A2FA0AB0204610BD0000B2
:10432000340100205C01002000B589B040F2052274
:1043300000920022082301920292CDE903238DF816
:104340001420020A8DF818208DF81900080A8DF83B
:104350001A008DF81B1008AB06AA69460248FCF744
:104360008FFA09B000BD00005C01002000B589B0E3
:10437000002140F2FF12019200910822CDE90412BF
:104380000791020A8DF81C208DF81D0003918DF80D
:104390001E108DF818108DF81F1008916B4607AA93
:1043A00001A90348FCF76CFA009809B0C0B200BD3F
:1043B000340100200E48B0F8F8100E480A0A0270C6
:1043C00041700D49B1F8F8100A0A8270C1700B49AA
:1043D000B1F8F8100A0A027141710949B1F8F810F0
:1043E0000A0A8271C17101460648FCF753B9000000
:1043F000E40400206C000020080600202C070020A8
:10440000500800203401002010B500F021F800F021
:104410001BFC0A4C01202070094800F0F5FB0948FC
:1044200000F0F2FB084800F0EFFB084800F0ECFB5E
:1044300000202070BDE81040FFF7BCBF0400002042
:104440002005002044060020680700208C0800207A
:104450002DE9F0413F4D404CB5F9000004F11C013D
:1044600000EE100AB8EEC00A84ED150AB5F9020094
:1044700000EE900AF8EEE00AC4ED160AB5F9040061
:1044800001EE100A081FB8EEC11A84ED171A84ED68
:10449000060AC4ED070AD4ED090A94ED080A00F0F3
:1044A00039FF207838B194ED060A84ED150A94EDB1
:1044B000070A84ED160AA868A8B301280CD00228C0
:1044C00028D003282FD19FED250A84ED170A84ED0B
:1044D000150A84ED160A26E01F495831081F00F01E
:1044E000AFF8204E9FED1E0A1F4F86ED140A96ED81
:1044F000050A022086ED130A387006F13C0000F030
:1045000083FB0020387096ED180AFEEE000A20EEBC
:10451000200A06E010495831081F00F091F89FED7D
:10452000130A84ED170AB5F9000000EE100AB8EE80
:10453000C00A84ED080AB5F9020000EE100AB8EED0
:10454000C00A84ED090A543494EC030ABDE8F04132
:1045500000F00EB8D00400200C0000200000000085
:104560000080A74374090020040000209A99993F15
:104570002DE9F0472DED028BFCF71CF800F05AF9FD
:104580002E4DB0F5605F05F5927605F5127705F5CD
:104590005B7841DD01F07DFA8946044649EC180B51
:1045A000E86AC0EBC000C00201F073FA53EC182BAC
:1045B00001F0E8F801F03EFAE862F06A49EC184BC5
:1045C000C0EBC000C00201F064FA53EC182B01F0FC
:1045D000D9F801F02FFAF062F86A49EC184BC0EBF9
:1045E000C000C00201F055FA53EC182B01F0CAF8D4
:1045F00001F020FAF862D8F82C0049EC184BC0EB17
:10460000C0004446C00201F044FA53EC182B01F0FC
:10461000B9F801F00FFAE062E86AC5F8E400F06A60
:10462000C6F8E400F86AC7F8E400D8F82C10C8F817
:10463000E410BDEC028BBDE8F0870000E40400202C
:1046400070B506463E480D462DED048B90ED050AEB
:104650003C4910EE100ADFED3C0A884201DA30EEE8
:10466000200A9FED3A1A3B4C30EE410A80EE201AA8
:10467000B0EE000ADFED360A21EE000A20EE200A35
:1046800084ED0A0A10EE100A01F022FC41EC100B36
:10469000FEF7BAFFB0EE408AF0EE608AA06901F042
:1046A00017FC53EC182B01F01FFA41EC180BA06A11
:1046B00001F00EFC41EC100BFFF70AF8B0EE409A47
:1046C000F0EE609AE06901F003FC53EC192B01F065
:1046D0000BFA53EC182B00F0ADFF00F079FF3060BF
:1046E000A06A01F0F5FB41EC100BFEF7F1FFB0EE14
:1046F000408AF0EE608AA06901F0EAFB53EC182BC7
:1047000001F0F2F941EC180BA06A01F0E1FB41EC79
:10471000100BFEF779FFB0EE409AF0EE609AE06978
:1047200001F0D6FB53EC192B01F0DEF953EC182BFA
:1047300001F0E4FA00F04CFF2860BDEC048B70BD82
:10474000740900200080A7430000B4430080A74301
:10475000DC0F49400C00002082B0CDE9000121F0BF
:10476000004001909DED000B02B051EC100B704722
:10477000EFF3108172B6436802699A4201D9026868
:10478000026112F8013B02618268521C8260C268B9
:10479000521E81F31088C260184670478B185B1E4A
:1047A0000160C0E901320022C0E9032141611046E5
:1047B00070472DE9F0475FEA01080546EFF31086E0
:1047C00072B62FD0AC686CB369686869884201D949
:1047D00028686861944200DD14460F1A7F1CA742C6
:1047E00006DB22464146FBF7B6FD686920440DE032
:1047F000A4EB07093A464146FBF7ADFD08EB07017C
:104800004A462868FBF7A7FD286848446861A868FD
:10481000001BA860E8682044E860204686F3108802
:10482000BDE8F08786F310884FF0FF30F8E7C068E6
:10483000704700001648C06A002800DA4042154957
:10484000CA6A5142002A01DB134600E00B4683424C
:1048500002DD100000D508460F49CA6A5142002AFD
:1048600001DB134600E00B46834202DD100000D559
:1048700008460A49CA6A5142002A01DB134600E091
:104880000B46834202DD100000D508467047000049
:10489000E4040020080600202C0700205008002017
:1048A00010B558B1084C491E0BD310F8013B5340CA
:1048B000DBB234F8133083EA1222F4E74FF6FF70CC
:1048C00010BD104610BD0000E660000810B5054C94
:1048D00004E000BF10F8013B5340E25C491EF9D2EE
:1048E000104610BDE65F000870B50C46054600F0A6
:1048F000C3F865282ED007DC072849D2DFE800F08E
:10490000480C11161B2025006638052840D2DFE828
:1049100000F0262B30353A000120288040F20110AB
:1049200035E0022028804FF4817030E00320288099
:1049300040F203102BE0042028804FF4827026E020
:104940000520288040F2051021E0062028804FF441
:1049500083701CE06520288040F2651017E0662017
:1049600028804FF4B37012E06720288040F267106F
:104970000DE0682028804FF4B47008E0692028809A
:1049800040F2691003E06A2028804FF4B57020805F
:1049900070BD0000054B10B55C6804601889088084
:1049A000A3F11B00008B108010BD00001F0C002025
:1049B0000149098B01807047040C00202DE9F0416A
:1049C0000D4600EE105A2DED028B0446B8EE408ADB
:1049D00000EE105AD0ED058A1646B8EE400AC0ED3A
:1049E000068A80ED058A80ED130A006B1F4630446D
:1049F00001F04FF89FED1E1B53EC112B01F074F8E2
:104A000000F0E6FD00EE100A84ED0A0ABDEEC00AD1
:104A100084ED1E0A84ED3A0AC4E90C67606838B96F
:104A200000EE105A0120B8EE400A84ED000A6060E2
:104A300038EE680A206A10EE101AB1F18B4F01DDD2
:104A4000401E05E010EE101A11F16A5F01D9401CFA
:104A50002062400300EE100AB8EEC00A30EE080AE9
:104A6000BDEEC00A84ED090ABDEC028BBDE8F08101
:104A7000000000000000E03F01480078704700009F
:104A8000040C0020034A93780370D2F803000860F6
:104A900070470000BE000020034A128902800248CD
:104AA0001B30408908807047040C002070B51F48F7
:104AB0000024A0F11805046004711D48C5F81D40CC
:104AC00085F8214040F8094F202144600481847218
:104AD00017486C701430AD1CFBF782FC05F1080020
:104AE0001B210460001D0460A5F805401048EC710E
:104AF000A5F803403430FBF773FC0D4810214F300C
:104B0000FBF76EFC0A4810215F30FBF769FC2C7044
:104B10006C70AC70EC622C8685F832402C6205F12A
:104B20002600AC840460848070BD0000A8000020D2
:104B3000D00B0020FCF7C2FDFEF712F9FDF726FFAF
:104B4000FDF79EFEFDF7C0FEFDF756FFFDF788FF5F
:104B5000FDF7DEFEFDF7A0FFFDF7BCFF00F016F845
:104B6000FFF72EFA352205490548FDF7DFFD064817
:104B70009FED040A80ED070AFEE70000FC0000201C
:104B8000CC01002000000000740900200849012029
:104B900081F83C000749022081F83C00064981F871
:104BA0003C00064981F83C00054981F83C0070470B
:104BB00074090020E4040020080600202C070020CF
:104BC000500800200178012904D0022918D19C3016
:104BD000FEF7DCBC9FED0B0A80ED040A80ED050AB0
:104BE00080ED010A80ED020A80ED030A80ED060ADD
:104BF00080ED070A80ED080A80ED090A2C30E7E70E
:104C0000704700000000000070B50178012908D04D
:104C1000022917D100F1CC019C30BDE8704000F0B2
:104C200089BC00F15C01041D0D462046FFF756FAD1
:104C300094ED080A294604F12800BDEEC00A84ED6F
:104C40000D0AEAE770BD000010B52F4C9FED2D0A4C
:104C5000A21C84ED0C0A94ED0D0A911C84ED0E0A41
:104C600001F13000FFF796FE9FED280A284884EDF9
:104C70000F0AF7EE000AC4ED100A90ED391AB8EEEB
:104C8000C11A21EE201A21EE001ABDEEC11A11EE52
:104C9000101A09B2C0F8E41000F5927090ED391ABC
:104CA000B8EEC11A21EE201A21EE001ABDEEC11A8B
:104CB00011EE101A09B2C0F8E41000F5927090EDF0
:104CC000391AB8EEC11A21EE201A21EE001ABDEEF3
:104CD000C11A11EE101A09B2C0F8E41000F5927072
:104CE00090ED391AB8EEC11A61EE200A20EE800A62
:104CF00084ED0B0ABDEEC00A10EE101A09B2C0F81E
:104D0000E41010BD000000000C0000208FC2753DB3
:104D1000E404002001884ABA06490A80428852BA4F
:104D20004A80828852BA8A80C08840BAC8800846C1
:104D300070470000DE000020FFB5A1B00446BDF8BA
:104D40009060174606F1090085B229466846FBF7D0
:104D500069FB8DF80040194CBDF89000ADF80100DA
:104D600020788DF8030005216846FFF79FFABDF80B
:104D70008800ADF80500324639460DF10700FBF713
:104D8000EAFA29466846FFF77DFA2078FF2813D013
:104D9000401C20700A4C6FF04000216808606423BA
:104DA0002A4669462046FDF70FFD20680168C94381
:104DB0004906FBD425B0F0BD0020EAE7D80000206A
:104DC0005402002018B40021ADF8001047490268D1
:104DD00040F202248A6102790A77B0F80520ADF822
:104DE000002092B2A2F20223A2425DD01EDCB2F5F4
:104DF000817F48D00EDC012A30D0022A3BD0032A22
:104E00003CD0B2EB640203D1D0F80700C1F80A002D
:104E100018BC7047A2F58072033A39D0012A3ED0FF
:104E2000FE2AF5D1C11D1B22314846E0042B4AD091
:104E300008DC012B3DD0022B42D0032BE8D1C079F6
:104E4000C870E5E7052B41D0062B48D0FF2BDFD1FA
:104E500050F8072F8A6280888885D9E7244950F85E
:104E6000072F343941F8092F42684A6002890A81C4
:104E7000807A8872CCE7C0794870C9E7C11D1C48A8
:104E80002022203819E0D0F80700C1F80E00BFE753
:104E9000B0F80720A1F80720407A4872B8E7B0F8C8
:104EA0000700A1F80500B3E7C11D114810221B300F
:104EB00003E0C11D0E4810222B3018BCFBF74BBA83
:104EC000C0798870A4E7C0790871A1E750F8072F6E
:104ED00041F82E2F82888A808079887198E750F86F
:104EE000072FC1F822208088C88491E79000002015
:104EF000040C00202DE9F041A527414C4148FFF763
:104F000096FC414E0025706172E03E48FFF730FC90
:104F1000307094F8861006294BD2DFE801F00313B5
:104F20001D2D384DB8420AD1012184F88610B4F8FD
:104F30008710A31D4A1CA4F88720C85458E0A4F881
:104F4000875055E0A080B4F88710A31D4A1CA4F830
:104F50008720C854022017E0A188A31D41EA002140
:104F6000A180B4F887104A1CA4F88720C854A088F0
:104F700077281ED2032007E0B4F88710A31D4A1C2F
:104F8000A4F88720C854042084F8860030E0B4F8E0
:104F90008710A31D4A1CA4F88720C854B4F88700C2
:104FA000052825D10521A01D00F0B0FA08B1052083
:104FB000EAE784F88650C2E7A288B4F8871009327D
:104FC000914204D2A31D4A1CA4F88720C854A1888A
:104FD000B4F88700093188420AD384F88650A4F8CF
:104FE0008750A01D00F074FA10B1A01DFFF7EAFE73
:104FF0000448FFF71CFC002887D1BDE8F0810000C1
:10500000500B00208810002090000020084910B5A7
:105010004FF40072A1F50070FDF73EFE0549BDE8B2
:1050200010404FF48062A1F11800FFF7B7BB0000F9
:10503000880E0020A010002002492422A1F12400A3
:10504000FDF7BABD2C0B0020002847D0002945D021
:105050000278437842EA0322C2F30A020A804278C5
:105060008378D20842EA4312C2F30A024A80827865
:10507000C378920942EA8302037942EA8322C2F3A7
:105080000A028A8002794379520842EAC312C2F3C3
:105090000A02CA804279C2F301128A7242799209E5
:1050A000CA728279C37942EA03228A81027A437AF8
:1050B00042EA0322CA81827AC37A42EA03220A823E
:1050C000027B8A74427BCA74827BC37B42EA0322DE
:1050D0008A82027C407C42EA0020088170470000FE
:1050E00030B58DB0FFF7C8FC044608A909A8FFF742
:1050F000D3FC07AA0AA90BA8FFF7C4FC9DED0A0A76
:1051000000252046BDF820200095BDEEC00A8DF890
:105110000000100ABDF824308DF8010010EE101ABE
:105120008DF80220180A01958DF803008DF80430DF
:10513000080A8DF805008DF806109DF81C408DF8C2
:10514000074069460248FBF7A5FA0DB030BD0000E4
:105150005C010020084991ED050ABDEEC00A10EE81
:10516000100A91ED0A0A00B2BDEEC00A10EE101A44
:1051700009B2FFF7D9B8000074090020F0B530EE8D
:10518000411A70EEE11A6248FDEEE00A0146BDEEFA
:10519000C11AFDEEE11ABDEEC00A067801254B6981
:1051A0000222F6B1D1ED022A91ED042A0324002156
:1051B000012E36D00746022ED7ED031A4FD0032E0C
:1051C0001ED1B8EEE11AB4EEC21AF1EE10FA69DDA2
:1051D000B8EEE21AB4EEC21AF1EE10FA62DDC16066
:1051E00026E011EE101A002900DA4942994208DD42
:1051F00010EE101A002900DA4942642901DD057019
:10520000F0BD11EE901A002900DA49429942F7DD0B
:1052100010EE901A002900DA49425A29F0DD027096
:10522000F0BDB8EEE21AB4EEC21AF1EE10FA01DDEA
:1052300081601CE010EE102A002A00DA5242012A96
:1052400001DC017062E011EE901A002900DA494297
:105250009942E5DD10EE901A1EE049421EE0F8EE9C
:10526000E11AF4EEC21AF1EE10FA02DDC16001702B
:10527000F0BD10EE902A002A00DA5242012A02DC28
:105280000170C160F0BD11EE101A002900DA494228
:105290009942F7DD10EE101A0029DEDB5A29F1DD04
:1052A0000470F0BDB8EEE21AB4EEC21AF1EE10FAD4
:1052B00001DD8160B3E7B8EEE11AB4EEC21AF1EE97
:1052C00010FA01DDC1609AE710EE903A002B00DA87
:1052D0005B42012B09DC10EE103A002B00DA5B4236
:1052E000012B02DC0170C16010E010EE903A002B3F
:1052F00000DA5B42012B01DC0570C16010EE103A50
:10530000002B00DA5B42012BCBDC02708160F0BD28
:105310000C00002030B5B0EE603AF0EE403A0C469A
:105320000546D1ED000A90ED000AF0EE431AB0EE0A
:10533000631AFFF723FF404A107800283FD0012866
:105340003ED002285AD0032839D1D068401CD06002
:1053500002280BDC94ED000AD2ED040A30EE430A79
:1053600080EE201A82ED121A82ED143A9068401CE9
:10537000906001280BDC95ED000AD2ED040A30EEB6
:10538000630A80EE201A82ED111AC2ED133A00EE84
:10539000100AD2ED130A92ED111AB8EEC00A41EECE
:1053A000000AC5ED000AD2ED030A92ED140A92ED4F
:1053B000121AF8EEE00A01EE200A84ED000A30BD70
:1053C0009068401C906001280BDC95ED000AD2ED3E
:1053D000040A30EE630A80EE201A82ED111AC2ED43
:1053E000133A00EE100AD2ED130A92ED111AB8EE3C
:1053F000C00A41EE000AC5ED000A30BDD068401C6D
:10540000D06002280BDC94ED000AD2ED040A30EEE5
:10541000430A80EE201A82ED121A82ED143A00EE51
:10542000100AD2ED140A92ED121AB8EEC00A41EE3B
:10543000000AC4ED000A30BD0C00002038B5224C33
:105440006068401C60606846FFF7B2FABDF8001063
:105450004D20372918D006DC28290BD02D290BD058
:1054600032290AD10EE03C2907D050290ED06429F8
:1054700003D10DE0492000E04A2060702079C00788
:1054800008D00EE04B20F8E74C20F6E75120F4E777
:105490005520F2E70C4914230122491C0B48FDF763
:1054A00093F961681E2091FBF0F200FB121028B9FD
:1054B0001423012204490548FDF786F96068642831
:1054C00001DB0020606038BDC8000020CC01002056
:1054D00030B50C46050014D0022C12D90A48A11E82
:1054E00002882846FFF7DCF92919C2B211F8023CFC
:1054F0009A4206D111F8011CB1EB102F01D1012005
:1055000030BD002030BD0000F800002030B50C4652
:1055100005000CD0022C0AD9FF22611EFFF7D6F934
:10552000291911F8011C814201D1012030BD002050
:1055300030BD000030B5D0E90323D21A1D4B026004
:105540001C78012C33D1002A144600DA6442B4F5E9
:10555000FA7F846801DC1444846041F28835AC42EF
:1055600002DC6D42AC4200DA856000EE102AD1ED1B
:10557000030AB8EEC00A20EE800ABDEEC00A10EEA3
:10558000102A426190ED020AD1ED040AB8EEC00A79
:1055900020EE800ABDEEC00A10EE101A816111449F
:1055A0005A68914202DC5242914201DA026230BDF5
:1055B000016230BD0400002081F00041704780F09E
:1055C0000040704721F00041704720F000407047D4
:1055D00021F00042A2F16052B2F5801F01F00043B9
:1055E00028BFD2F17F6C0BD95FEA001C43EAC202EC
:1055F00042EB507018BF704728BF20F00100704781
:10560000B2F5801FBCBF184670474FEA410C1CF52D
:10561000001F02D2084600F0D1BC70B500F00EFBAE
:1056200000000089FFF7F6BF4FF00040A0F58000B2
:105630007047000010B591EA030F48BF83F00043A4
:1056400000F16483841A71EB030C05D2121943EB49
:105650000C03001B61EB0C01DFF824E14FEA11544D
:10566000A4EB135C1EEA430F18BF9EEA445F73D09D
:1056700023EA0E03DCF1200E21EA045143F48013E7
:1056800032D322FA0CFE10EB0E0023FA0CFE41EB93
:105690000E01CCF1200E03FA0EFE10EB0E0051F1BC
:1056A0000001B1F5801FCCF1200E32D201EB045184
:1056B00012FA0EF2BDE8104058BF7047401C38BFC8
:1056C0005FEA420218BF7047002814BF20F00100B3
:1056D00041F100014FEA410313F5001F38BF704745
:1056E000A1F1C04100F0F8BA012A43EB0302ACF18A
:1056F000200CDCF11F0E32BF4FF0000E23FA0CF32A
:1057000010EB030041EB0451B4EB115FD0D0A1EBDF
:10571000045101F5801149085FEA300001EB0451A2
:105720000ED350F1000038BF12FA0EFE08D1BDE8CA
:105730001040C9E7401C38BF5FEA4202CAD1C3E744
:10574000BDE810404FEA410313F5001F38BF704712
:10575000A1F1C04100F0C0BA9EEA445F08D011EA4E
:105760005E0FBDE8104004BF01F00041002070470B
:10577000BDE8104070B500F061FA00BF64FBBE3EAA
:105780000000E0FF2DE9C04130B4DFF8A0C23CEAE0
:10579000111418BF3CEA131400F0EC8081EA0305F1
:1057A0001CEA111444EAD57418BF1CEA131500F062
:1057B000C780A4EB05044FF0004545EAC12145EA46
:1057C000C32341EA505143EA525304F17F74994292
:1057D00004F500344FEAC0204FEAC22208BF9042CD
:1057E00000F09C804FEA13650FF24016765D4FEA99
:1057F000134506FB05F7C7F1807706FB07F74FEA6D
:10580000D737A7FB03687642C8F58038A7FB06CEDA
:1058100038BFA8F1010807FB08E64FF0000EA6FB11
:10582000028CE6FB03CEDCF1000CCEF1004E38BF5B
:10583000AEF1010EA6FB0C584FF000074FF000052B
:10584000E6FB0E87A1FB08C6A0FB07CE16EB0E06F3
:1058500045F10005E1FB076515F1E04E7EBFA4F5BB
:1058600080345FEA46066D4116F1800745F1000578
:105870004FEA17274FEA066647EA0567A6F1DE46B4
:10588000B6F1805F4FEA15251FD9384624F0010C88
:1058900005EBC471BCF1FE6F01EB0C1102D8F0BC3A
:1058A000BDE8008124425CBF01F5801E9EEAC47FF2
:1058B00002D4F0BCBDE80081244238D4F0BCA1F190
:1058C000C041BDE8004100F007BA4FEAD22242EAE7
:1058D00043524FEAD323A7FB02864FEAD02040EA87
:1058E000415007FB03661EEA0E0F4FEAD12105FB6C
:1058F000026658BFA6EB0056B6EB00564FEA520EB2
:105900004EEAC37E18EB0E0E56EB530EBDD518EBC8
:1059100002085E417F1C55F10005B6E74FF4801583
:105920004FF000074FF000064FF00008ADE7F0BC65
:105930004FF0000001F1C04101F00041BDE80081DD
:1059400011EA0C1F0CEA131500D00CE013EA0C1F2F
:1059500000F025804FF00000F0BC81EA030101F067
:105960000041BDE80081F0BCBDE8004181EA0301CF
:1059700000F0B2B9F0BCBDE8004170B500F05EF9CE
:10598000097EFC3E00F007B881EA03014FF00000F9
:1059900001F00041704781EA030100F09DB9F0BCBD
:1059A000BDE800414FF0000021497047FFFDFBF9C1
:1059B000F7F5F4F2F0EEEDEBE9E8E6E4E3E1E0DE42
:1059C000DDDBDAD8D7D5D4D3D1D0CFCDCCCBCAC8B4
:1059D000C7C6C5C4C2C1C0BFBEBDBCBBBAB9B8B7DB
:1059E000B6B5B4B3B2B1B0AFAEADACABAAA9A8A8CE
:1059F000A7A6A5A4A3A3A2A1A09F9F9E9D9C9C9B9C
:105A00009A99999897979695959493939291919046
:105A10008F8F8E8E8D8C8C8B8B8A898988888787D7
:105A20008685858484838382828181800000FF074C
:105A30000000F87F4FEA41034FEA5353A3F5806318
:105A4000D3F11E03C8BFD3F1210C0CDD4FF000428F
:105A500042EAC12242EA505232FA03FC8CEAE17C6B
:105A6000ACEBE1707047102BC4BF0020704703F50A
:105A7000787CBCF1FF3F04D06FF0004282EA210045
:105A8000704770B500F0DAF8499224800020704722
:105A9000F2E710F0004248BF4042B0FA80F310FA3B
:105AA00003F10AD0C3F11D0303F580634FEA4150AF
:105AB00002EB035202EBD12170474FF00000704718
:105AC000B0FA80F310FA03F10AD0C3F11D0303F515
:105AD00080634FEA41504FEA035202EBD1217047F5
