:020000040800F2
:10000000101B002029020008EB2A000859280008CC
:10001000E92A00087906000865350008000000009C
:10002000000000000000000000000000352D000866
:100030008D070008000000001D2B0008372D000868
:10004000430200084302000843020008430200087C
:10005000430200084302000843020008430200086C
:10006000430200084302000843020008430200085C
:10007000D5060008430200084302000843020008B6
:10008000430200084302000843020008430200083C
:100090007D060008430200084302000843020008EE
:1000A000430200084302000843020008430200081C
:1000B00043020008E12D0008430200084302000843
:1000C00043020008430200084302000843020008FC
:1000D0004302000801340008430200080D34000800
:1000E00043020008430200084302000843020008DC
:1000F00043020008430200084302000843020008CC
:1001000043020008430200084302000843020008BB
:1001100043020008430200084302000843020008AB
:1001200043020008E1060008ED060008430200084B
:10013000430200084302000843020008430200088B
:100140008906000843020008430200084302000831
:1001500043020008F906000805070008D13400082A
:10016000430200084302000843020008430200085B
:100170004302000843020008430200080000000098
:10018000430200084302000800F002F800F03CF8C7
:100190000AA090E8000C82448344AAF10107DA45E2
:1001A00001D100F031F8AFF2090EBAE80F0013F0F8
:1001B000010F18BFFB1A43F0010318474466000003
:1001C00064660000103A24BF78C878C1FAD8520794
:1001D00024BF30C830C144BF04680C6070470000C1
:1001E0000023002400250026103A28BF78C1FBD840
:1001F000520728BF30C148BF0B6070471FB506F0DB
:10020000D2F81FBD10B510BD00F07DF91146FFF703
:10021000F5FF04F051FD00F09BF903B4FFF7F2FF86
:1002200003BC00F09FF900000948804709480047D7
:10023000FEE7FEE7FEE7FEE7FEE7FEE7FEE7FEE796
:10024000FEE7FEE704480549054A064B70470000F3
:10025000D12D00088901000810150020101B002076
:10026000101700201017002053EA020C00F06980DC
:100270002DE9F04B4FF00006002B1FBFB3FA83F5BA
:1002800003FA05F424FA05F65E4012BF1643B2FAEB
:1002900082F502FA05F4C5F120051EBF22FA05FC1D
:1002A00044EA0C04203556EA044C4FEA144418BFC3
:1002B000641C4FF000084FF00009904271EB030CF2
:1002C00039D3002919BFB1FA81F701FA07F6B0FA5C
:1002D00080F700FA07F6C7F120071EBF20FA07FCD7
:1002E00046EA0C062037B6FBF4FCA7EB0507103FE7
:1002F00007F01F0BCBF120060CFA0BFB2CFA06F6CD
:1003000044BFB3460026202FA4BF5E464FF0000B2B
:100310005BEA060C08BF4FF0010B19EB0B09ABFBB6
:10032000027C48EB0608C01B06FB02CC0BFB03CC8F
:1003300071EB0C01C1E70B46024641464846BDE859
:10034000F08B13B54FF000004FF00001AFF30080C9
:10035000BDE81C407047032A40F2308010F0030CC7
:1003600000F0158011F8013BBCF1020F624498BF08
:1003700011F801CB00F8013B38BF11F8013BA2F1A5
:10038000040298BF00F801CB38BF00F8013B11F020
:10039000030300F07C80083AC0F0088051F8043B69
:1003A000083A51F804CBA0E80810F5E7121D5CBF2D
:1003B00051F8043B40F8043BAFF30080D20724BF60
:1003C00011F8013B11F801CB48BF11F8012B24BFF4
:1003D00000F8013B00F801CB48BF00F8012B704743
:1003E0004FF000020429C0F0128010F0030C00F05E
:1003F0001B80CCF1040CBCF1020F18BF00F8012BDC
:10040000A8BF20F8022BA1EB0C0100F00DB85FEAA9
:10041000C17C24BF00F8012B00F8012B48BF00F875
:10042000012B70474FF0000200B5134694469646E4
:10043000203922BFA0E80C50A0E80C50B1F12001F7
:10044000BFF4F7AF090728BFA0E80C5048BF0CC0A5
:100450005DF804EB890028BF40F8042B08BF704703
:1004600048BF20F8022B11F0804F18BF00F8012B75
:10047000704770477047704710B500F03FF800684C
:1004800010BD10B5044600F039F8046010BD10B579
:10049000203AC0F00B80B1E81850203AA0E818507C
:1004A000B1E81850A0E81850BFF4F5AF5FEA027C3D
:1004B00024BFB1E81850A0E8185044BF18C918C0AC
:1004C000BDE810405FEA827C24BF51F8043B40F84D
:1004D000043B08BF7047D20728BF31F8023B48BF32
:1004E00011F8012B28BF20F8023B48BF00F8012B70
:1004F0007047000000487047AC1400200048704767
:10050000AC14002070477546FFF7F4FFAE460500B7
:100510006946534620F00700854618B020B5FFF71E
:1005200091FEBDE820404FF000064FF000074FF06D
:1005300000084FF0000B21F00701AC46ACE8C00901
:10054000ACE8C009ACE8C009ACE8C0098D4670470A
:1005500010B50446AFF300802046BDE81040FFF719
:100560005CBE000001491820ABBEFEE72600020079
:100570009FED0E0AF1EE0C0A80ED050A80ED060AE9
:1005800080ED000AC0ED040A80ED010ADFED080AE3
:1005900080ED020AC0ED030A80ED070A80ED080A2B
:1005A00080ED090A80ED0A0A704700000000000093
:1005B0000000DC42F1EE401ADFED282A31EEE02A9D
:1005C00070EEC00A26482849F0EE421A01EE222AAF
:1005D000B0EE600A41EE620AB0EE403A41EE621AB5
:1005E00001EE223A80ED002A9FED1E0AC0ED040ABA
:1005F00080ED083AC0ED0C1A22EE001A60EE800A77
:1006000023EE002A61EE801AB3EE030A80ED011A90
:1006100021EE001AC0ED050A80ED092AC0ED0D1A81
:10062000BDEEC11A60EE800A11EE100AFDEEE00A7E
:100630004042C8620D480E49C0ED0B0A62EE000A46
:1006400021EE800AFDEEE00ABDEEC00A10EE900A2F
:100650004042C862074880ED0B0A70470000104214
:10066000C80400204276F43F380500205C060020D4
:1006700080070020A4080020FEE70000014800F0E9
:100680005EBA00003C010020014800F058BA0000AA
:100690006401002010B50D4C0023082288B0A04250
:1006A00001D1940103E00A4CA04207D10624CDE910
:1006B00000430293CDE903328DF814300A4606ABAD
:1006C000694600F0DDF808B010BD00003C010020D4
:1006D00064010020014800F0A7BD00006003002075
:1006E000014800F0A1BD0000C0030020014800F057
:1006F0009BBD0000A0020020014800F095BD000055
:1007000020040020014800F08FBD000000030020FD
:1007100001681823CAB2103AB2FBF3F2054B6FF32B
:100720000901032A9B5CC36500D9091D8165084640
:1007300070470000BA63000810B5014600208B69BD
:100740008A6A4FF0C07453B1B3F5005F15D072B12F
:10075000012A0CD0022A0AD0032A09D104E01AB1D6
:10076000012A06D0022A03D1C96AC90100D5012095
:1007700010BDC96AA142FAD010BD002AF7D0012AE3
:10078000F2D0022AF3D0032AF3D010BD704772B61C
:10079000FEE700002A48BBEE030A2B4990ED0A1A37
:1007A0002848C1EE000AB3EE031AC0ED030AD1EDEA
:1007B0000A1A2649C1EE812AC0ED072A91ED0A2ABC
:1007C0002349C2EE011AC0ED0B1A91ED0A1A81EE0F
:1007D000002A9FED201A60EE810A22EE810A61EE66
:1007E000811ADFED1D2A80ED0F2A22EE011A30EE6C
:1007F000C02AC0ED020A80ED060AC0ED0A1A32EEE8
:10080000612A80ED0E1A32EE012A82EE223A30EE93
:10081000602A30EE800A32EE612A30EE210A72EE52
:10082000012A30EE010AB5EE002A62EE822A20EE9D
:10083000020A80ED153AC0ED132A80ED140A7047C4
:1008400038050020C80400205C0600208007002036
:10085000A4080020960A063F0000104390F82020CC
:10086000012A07D0022A05D0416A41F48021416261
:1008700001207047006842690A43426100207047C6
:10088000F0B590F820500468A468012D05D0022D21
:1008900003D0416A41F4802153E014F0406F01D14C
:1008A000E5004BD5C4F30164022C03D9416A41F43D
:1008B000000146E00125A5401D608D684FF4C0731E
:1008C0009DB1CE6835434E6845EAC605066803EB20
:1008D0000417F5514FF4C275076805EB04150E694E
:1008E0007E51097D012905D009E00E88CD6845EAD1
:1008F0004655EBE701684E5946F480764E51117922
:10090000D2F805504FF4C67641EA0525016806EB9A
:1009100004168D511178D2F801204FF4C47541EAC4
:100920000221026805EB04155151006803EB041124
:10093000425842F0010242500020F0BD416A41F4A9
:10094000001141620120F0BD10B590F82020012A6D
:1009500007D0022A05D0416A41F48021416201207A
:1009600010BD3B48D0F8002242F00102C0F800223E
:10097000D0F8002222F47C52C0F80022D0F80022E5
:100980004B6A42EA0322C0F800220A7D02F01F03EC
:1009900001229A40D0F81C329343C0F81C32CB6934
:1009A000B3B9D0F80C329343C0F80C328C894B6841
:1009B00064F31F434C6900EBC404C4F840320C8953
:1009C0000B6864F31F434C6900EBC404C4F8443261
:1009D000CB69012B16D1D0F80C321343C0F80C327E
:1009E0000C884B6864F31F434C6900EBC404C4F8E3
:1009F00040320C89CB6864F31F434C6900EBC4049C
:100A0000C4F844328B69002BD0F804320ED0134363
:100A1000C0F804320B69002BD0F8143208D013430D
:100A2000C0F81432096A012904D008E09343EFE7C3
:100A30009343F5E7D0F81C121143C0F81C12D0F80C
:100A4000001221F00101C0F80012002010BD0000CA
:100A500000640040704730B590F82040012C05D06C
:100A6000022C03D0416A41F480215DE00468002932
:100A700055D02469A40754D04FF4D874056804EB0A
:100A800001142D5915F00405956005682D594ED0B7
:100A9000ED08556005682C5904F00204D4604FF449
:100AA000DA74056804EB01142D5905F00F05156182
:100AB00005682D59C5F30725956105682C59240C47
:100AC00054614FF4DC72046802EB0112A4581C70EC
:100AD0000468A458240A5C700468A458240C9C7010
:100AE0000468A258120EDA704FF4DE72046802EB4A
:100AF0000112A4581C710468A458240A5C7104688B
:100B0000A458240C9C710468A258120EDA71006873
:100B100081B1016941F020010161002030BDE4682C
:100B2000A8E7416A41F400114162012030BD6D0D1A
:100B30001560AFE7C16841F02001C160EDE72DE924
:100B4000F05F0546006800244669D0F80490876885
:100B5000D0F80CB0D0F810A0D0F81880F10748D029
:100B6000F90714D001218160B80703D5284600F0A9
:100B7000FAFA0CE0780702D54FF4006407E0380772
:100B800002D54FF4805402E0284600F0EBFAF80555
:100B900016D529684FF480708860B80503D52846BB
:100BA00000F0E3FA0CE0780502D544F4005407E0C5
:100BB000380502D544F4804402E0284600F0D4FA17
:100BC000F80316D529684FF480308860B80303D540
:100BD000284600F0CCFA0CE0780302D544F4004437
:100BE00007E0380302D544F4803402E0284600F0E0
:100BF000BDFA300707D55FEACB6004D5296810201D
:100C000044F40074C86070074FF0080707D55FEA26
:100C10000B7004D52868C760284600F099F9B00722
:100C200006D52868C068800702D0284600F092F9EF
:100C3000700607D55FEACA6004D52968102044F41D
:100C400080640861B00607D55FEA0A7004D5286899
:100C50000761284600F056FAF00606D528680069B4
:100C6000800702D0284600F04EFAB00308D55FEAAC
:100C7000C96005D5296810204860284600F044FA6C
:100C8000F00307D55FEA097004D528684760284655
:100C900000F06EFA300446D55FEA497040D5F005A1
:100CA00004D55FEAC87001D044F00104B00504D552
:100CB0005FEA887001D544F00204700504D55FEA4C
:100CC000487001D544F00404300529D518F0700FA0
:100CD00026D008F07000402815D006DC102809D076
:100CE00020280AD0302816D10AE050280ED06028DB
:100CF00011D10EE044F008040DE044F010040AE0C5
:100D000044F0200407E044F0400404E044F0800490
:100D100001E044F480742868816921F070018161E8
:100D2000296804204860002C05D0686A2043686266
:100D30002846FFF78FFEBDE8F09F70B5040003D092
:100D400094F8200010B104E0012070BD204600F0AE
:100D500081F82068016841F00101016000F096FC13
:100D60000546052604E000F091FC401B0A2811D836
:100D700020684068C007F6D02068016821F00201B1
:100D8000016000F083FC05460BE000F07FFC401B97
:100D90000A2806D9606A40F40030606284F8206056
:100DA000D2E7206840688007EFD4207E01282068C1
:100DB00001683DD021F080010160607E012820683B
:100DC000016838D021F040010160A07E0128206830
:100DD000016833D021F020010160E07E0128206805
:100DE00001682ED041F010010160207F01282068A9
:100DF000016829D021F008010160607F0128206886
:100E0000016824D021F004010160D4E90201084303
:100E1000D4E90412114308436168491E084321685C
:100E2000C86100206062012084F82000002070BDAD
:100E300041F08001C0E741F04001C5E741F02001E9
:100E4000CAE721F01001CFE741F00801D4E741F0F3
:100E50000401D9E7F0B587B0044614216846FFF7CE
:100E6000E1FA364B3648DFF8D0E01968D4F800C014
:100E7000334A03250226092710300024491CF44573
:100E800022D11960012907D1016841F00071016088
:100E9000006800F000700590106840F008001060D5
:100EA0001068CDE9005600F00800CDE904706946ED
:100EB0002448CDE9024500F0F1FA00220521142072
:100EC00000F052FC142032E0DFF87CE0F44530D131
:100ED000D0F800C04CF0806CC0F800C0D0F800C062
:100EE00001290CF0806CCDF814C0196007D101689D
:100EF00041F000710160006800F00070059010681A
:100F000040F002001060106802AB00F00200059093
:100F10006020CDE9000683E8B00069460B4800F088
:100F2000BDFA00220521402000F01EFC402000F008
:100F30000DFC07B0F0BD0000006400400000002080
:100F400030380240000C02400068004000040240BB
:100F50007047000070B561490126614D8AB0884232
:100F60006AD107AB6A4600215C48FFF774FD07A809
:100F700004F082F8B0F90010B0F9022000EE101A67
:100F8000B0F904300098B8EEC00A40F20324A0F291
:100F90000321A04239D00CDC032844D0881C42D065
:100FA000012830D1BCEEC00A10EE100A81B24D48C3
:100FB0003FE0012930D0022925D1BCEEC00A10EE55
:100FC000100A95ED050A80B285ED060A00EE100ABA
:100FD000F8EE400A9FED440A80EE801ADFED430AE6
:100FE00021EE201A85ED051A6B63696800290AD184
:100FF00001EE100AB8EE411AC1EE001A21EEA00A65
:1010000085ED000A6E600AB070BDBCEEC00A10EE3D
:10101000100A81B236480CE0BCEEC00A10EE100A8D
:1010200081B2344805E0BCEEC00A10EE100A81B26D
:10103000314803F085FDE6E730498842E3D107AB4C
:101040006A4600212D48FFF706FD2D4C08B103200C
:10105000E06007A804F010F80099072916D00629C7
:10106000D1D1E1682161B0F90000E06001282CD005
:101070000228C8D1A08A811FB1F5B17FC3D2E18A0D
:10108000401A002825DD85F82061BCE7028822800F
:10109000418861808388A380B0F9060000EE100AC1
:1010A000B8EEC00ABCEEC00A10EE100A80B200EE24
:1010B000100AA082C2F10000B8EE400A85ED050AD0
:1010C0002080C1F1000060809DE702299BD1AE60C5
:1010D00099E798D5022085F8200194E73C0100208B
:1010E000C80900205C06002000F8FF450000B4435A
:1010F00080070020A408002038050020640100209B
:1011000020050020704770477047000070B5044606
:1011100090F82000012804D0606A40F4002060624A
:1011200018E0022084F820002068016821F0010105
:10113000016000F0ABFA05460EE000BF00F0A6FA31
:10114000401B0A2808D9606A40F40030606205201C
:1011500084F82000012070BD20684068C007EDD1F0
:10116000606270BD70477047704770477047704746
:1011700070472DE9F0410446876D00F087FA064676
:1011800094F835000025022806D08020606584F898
:1011900034500120BDE8F0812068016821F016017B
:1011A00001602068416921F080014161206C08B92B
:1011B000A06C20B12068016821F00801016020685E
:1011C000016821F0010101600CE000F05FFA801B72
:1011D000052807D920206065032084F8350084F8AD
:1011E0003450D7E720680068C007EED194F85C104F
:1011F0003F208840B860012084F8350084F83450DE
:101200000020C7E790F83510022903D080214165FE
:1012100001207047052180F835100068016821F031
:1012200001010160002070472DE9F84304464FF0AA
:101230000009CDF8009063484FF41651A56D006881
:10124000B0FBF1F72E6894F85C10082000FA01F169
:1012500031420FD021680A6852070BD50A6822F084
:1012600004020A6094F85C108840A860606D40F049
:101270000100606594F85C104FF0010808FA01F075
:10128000304208D021684969090604D5A860606D1C
:1012900040F00200606594F85C1004208840304201
:1012A00008D021680968890704D5A860606D40F0FE
:1012B0000400606594F85C1010208840304218D01B
:1012C00021680968090714D5A860206801684903E6
:1012D00004D50068000308D5A16C07E00168C905C2
:1012E00003D4016821F008010160216C09B1204696
:1012F000884794F85C1020208840304231D0216823
:101300000968C9062DD5A86094F83500052820681D
:10131000016806D0490347D5006800031DD4616CFD
:101320001CE021F0160101602068416921F0800174
:101330004161206C08B9A06C20B12068016821F0DF
:101340000801016094F85C103F208840A86084F890
:10135000358084F83490216D1FE0E16B09B120469F
:101360008847606D00282BD0606DC00714D0052021
:1013700084F835002068016821F0010101600098BF
:10138000401C0090B84203D820680068C007F6D11E
:1013900084F8358084F83490E16C002910D001B0D5
:1013A0002046BDE8F04308470168C905D5D4016867
:1013B00021F01001016084F8358084F83490CCE786
:1013C000BDE8F883FC0000202DE9F041044600F060
:1013D0005DF906465CB1022084F83500002584F8EA
:1013E00034502068016821F0010101600DE0012006
:1013F000BDE8F08100F04AF9801B052805D92020BE
:101400006065032084F83500F2E720680068C007B3
:10141000F0D12268116820480140D4E90103184343
:10142000D4E903363343184363691843A369184367
:10143000E3691843236A18430843616A042903D106
:10144000D4E90B1319430843106020684069666AA9
:1014500020F0070130460E43012704280CD1A06A72
:101460000643E06A40B12046FFF766F920B140200C
:10147000606584F83570BAE7206846612046FFF75A
:1014800047F994F85C203F2191408160656584F8BC
:1014900035700020ACE700003F8010F02DE9F84FD8
:1014A000DFF8BCA1002201250AF1040B03264FF04E
:1014B0000F090BF1040E00BF0B6805FA02F423407C
:1014C000A34270D10F7907F00307012F01D0022F3B
:1014D00016D187684FEA420806FA08FC27EA0C078B
:1014E000D1F80CC00CFA08FC4CEA070CC0F808C094
:1014F0004768A7430C79C4F3001494403C4344600C
:101500000C79E443A4070AD0C4684FEA420C06FAF7
:101510000CF7BC438F6807FA0CF72743C7600C79B8
:1015200004F00304022C12D1D40800EB840CDCF884
:1015300020405707FF0E09FA07F824EA0804D1F8FB
:10154000108008FA07F848EA0408CCF820800468FC
:101550004FEA420C06FA0CF7BC430F7907F0030779
:1015600007FA0CF7274307604C6814F4403F70D02B
:101570003C4C276847F480472760246822F0030723
:1015800004F480440094384C07EB040CDCF8084861
:1015900097074FEA177809FA08F7BC43334FB84268
:1015A00002D1002724E054E0314FB84201D1012795
:1015B0001EE0304FB84201D1022719E02E4FB84249
:1015C00001D1032714E02D4FB84201D104270FE0C9
:1015D0002B4FB84201D105270AE02A4FB84201D16A
:1015E000062705E0284FB84201D1072700E0082769
:1015F00007FA08F72743CCF80878DAF8004057468E
:10160000D1F804C09C435FEACC3C00D51C433C604D
:10161000DBF800405F46D1F804C09C435FEA8C3C95
:1016200000D51C433C60DEF800407746D1F804C08A
:101630009C435FEACC2C00D51C433C60084F0C3720
:101640003C68D1F804C09C435FEA8C2C00D51C4355
:101650003C60521C102AFFF42FAFBDE8F88F000049
:10166000003C01404438024000300140000002408C
:101670000004024000080240000C0240001002403A
:101680000014024000180240001C0240014880681B
:1016900070470000F0000020024881680278114481
:1016A00081607047F00000200B4810B5016841F4DC
:1016B00000710160016841F480610160016841F4DA
:1016C00080710160032000F06FF80F2000F006F831
:1016D00000F024F8002010BD003C024070B50D4D14
:1016E00004464FF47A712878B1FBF0F00A49096892
:1016F000B1FBF0F000F00CFB48B9102C07D200222F
:101700002146501E00F030F800206C6070BD0120B2
:1017100070BD0000F0000020FC0000200A4808B561
:10172000016841F480410160006800F4804000904D
:101730000548001F016841F080510160006800F019
:101740008050009008BD000044380240002809DBAA
:1017500000F01F02012191404009800000F1E020CB
:10176000C0F8001170470000F0B40E4B1B680C4627
:10177000C3F30223C3F10705042D00D90425191D65
:10178000072901D2002300E0DB1E012606FA05F13D
:10179000491E214099409E40761E16403143F0BCC0
:1017A00001F00EBF0CED00E0064900F007020868EA
:1017B0004FF6FF03184040EA0220034A1043086036
:1017C000704700000CED00E00000FA052DE9F0473D
:1017D0000E46050065D0DFF81481D8F80000F7B296
:1017E00000F00700B04207D288F80070D8F8000077
:1017F00000F00700B04254D128683D4C810712D553
:10180000400703D5206840F4E050206028780007A6
:1018100003D5206840F4604020602068A96820F06B
:10182000F000084320602878C0072DD03049686850
:101830000839012812D0022813D0032811D00968D2
:10184000890700292DDA216821F003010143216075
:10185000FFF71CFF814641F2883A0EE009688903D0
:10186000EFE709688901ECE7FFF710FFA0EB09013A
:10187000514502D90320BDE8F0872068696800F06F
:101880000C00B0EB810FEFD1D8F80010404601F00A
:101890000701B14207D90770006800F00700B042A5
:1018A00001D00120E7E72878400705D52068E968DE
:1018B00020F4E050084320602878000706D520680F
:1018C000296920F4604040EAC100206000F038F847
:1018D0002168084AC1F30311515CC84006490860F9
:1018E00006480068FFF7FAFE0020C4E7003C02400B
:1018F00008380240C2630008FC000020F400002009
:101900000448054900680968044AC1F38221515C12
:10191000C8407047FC00002008380240D26300082D
:101920000448054900680968044AC1F34231515C22
:10193000C8407047FC00002008380240D26300080D
:10194000154810B5006810F00C02144813D0144963
:10195000042A0FD0082A0ED10F4C241F22682368B6
:1019600002F03F025B0207D52068C0F38810A0FB9D
:10197000010106E0084610BD2168C1F38811A1FBF2
:1019800000010023FEF770FC2168C1F30141491CEE
:101990004900B0FBF1F010BD083802400024F4000B
:1019A000001BB7002DE9F84F04006ED02078DFF857
:1019B0004C93C007A9F104054AD009F1040001685D
:1019C000C1F38101012908D00068C0F38100022819
:1019D0000AD1D9F80000400206D52868800337D51F
:1019E00060680028E1D033E06068B0F5803F10D037
:1019F000B0F5A02F286810D020F480302860286827
:101A000020F4802028606068A8B1FFF73FFE0646FA
:101A10000DE0286840F48030F4E740F4802028602E
:101A2000F7E700BFFFF732FE801B642873D82868F1
:101A30008003F7D50CE0FFF729FE064605E000BF5E
:101A4000FFF724FE801B6428F0D828688003F7D4B1
:101A50002078DFF8AC8280074FF0000A3ED5A74817
:101A6000001D016811F00C0F08D00068C0F3810060
:101A700002280BD1D9F80000400207D4286880075B
:101A800016D5E068012800D112E033E1E068B8B172
:101A90000120C8F80000FFF7F9FD064605E000BF89
:101AA000FFF7F4FD801B0228C0D828688007F7D50F
:101AB0002868216920F0F80040EAC10028600DE0A4
:101AC000C8F800A0FFF7E2FD064604E0FFF7DEFDE0
:101AD000801B02281FD828688007F7D420780007C9
:101AE00022D5864F87486169703771B10121016045
:101AF000FFF7CCFD064604E0FFF7C8FD801B022877
:101B000009D838688007F7D50EE0C0F800A0FFF7C5
:101B1000BDFD064605E082E0FFF7B8FD801B022808
:101B20007DD838688007F7D42078400768D5DFF87B
:101B3000CCB100270BF13C0BDBF80000C0000BD44C
:101B4000DBF8001041F08051CBF80010DBF800000A
:101B5000012700F0805000906B4E3068C00510D413
:101B6000306840F480703060FFF790FD009005E031
:101B7000FFF78CFD0099401A022850D83068C00544
:101B8000F6D55E4EA0686C3601280FD00528306867
:101B900010D020F001003060306820F00400306088
:101BA000A068B8B1FFF772FD00900FE0306840F018
:101BB0000100F4E740F004003060F7E7FFF766FD4E
:101BC0000099411A41F28830814266D83068800716
:101BD000F4D50EE0FFF75AFD009007E0FFF756FD41
:101BE0000099411A41F28830814256D83068800706
:101BF000F4D42FB1DBF8001021F08051CBF80010A5
:101C0000A069C8B33D49091D0968C1F381010229D2
:101C10004AD00228504607D0C8F8600000E03CE0F7
:101C2000FFF734FD04463BE04746C8F86000FFF785
:101C30002DFD064605E000BFFFF728FD801B0228AA
:101C40002BD828688001F7D4D4E907010843A16A9A
:101C50002E4A490802EB0141626A41EA82110843B7
:101C600094F82C1040EA0161C9F800100120386690
:101C7000FFF70CFD044606E03EE000BFFFF706FD5F
:101C8000001B022809D828688001F7D534E000BF7E
:101C9000FFF7FCFC001B022802D90320BDE8F88FE7
:101CA00028688001F4D427E00128F7D0D9F8000093
:101CB000E26900F4800191421CD1226A00F03F01E8
:101CC000914217D147F6C071626A0140B1EB821FA1
:101CD00010D1A26A4FF0FF3300F4403103EB5202FF
:101CE000B1EB024F06D194F82C1000F07060B0EB0D
:101CF000016F01D00120D1E70020CFE70438024076
:101D000000004742800E4742007000400000FFFF85
:101D100010B5401EB0F1807F01D3012010BD4FF0FF
:101D2000E02460610F21601701F04AFC0020A061EF
:101D300007202061002010BD7047704770B590F8F3
:101D40003C20012A32D0012480F83C40022280F855
:101D50003D2003685A689D6822F070060A68324385
:101D60005A60134B02689A4214D0B2F1804F11D0DE
:101D7000104B9A420ED0104B9A420BD00F4B9A4206
:101D800008D00F4B9A4205D00E4B9A4202D00E4B10
:101D90009A4204D1496825F080031943916080F884
:101DA0003D40002180F83C10084670BD022070BD07
:101DB000000001400004004000080040000C00400A
:101DC00000040140004001400018004010B504002C
:101DD00003D094F83D0010B107E0012010BD0020B1
:101DE00084F83C00204600F01FF8022084F83D00F3
:101DF000211D206800F0FAFF012084F8460084F8D5
:101E00003E0084F83F0084F8400084F8410084F8E4
:101E1000420084F8430084F8440084F8450084F8C4
:101E20003D00002010BD000008B500680B49884245
:101E300012D10B48016841F00201016000680022E4
:101E400000F00200009005211D20FFF78DFCBDE889
:101E500008401D20FFF77ABC08BD000000040040C8
:101E60004038024090F83D10012901D00120704710
:101E7000022180F83D100168CA6842F00102CA6080
:101E800000681149884214D0B0F1804F11D00F4939
:101E900088420ED00E4988420BD00E49884208D0A5
:101EA0000D49884205D00D49884202D00C4988422C
:101EB00004D1816801F00701062903D0016841F0CF
:101EC0000101016000207047000001400004004053
:101ED00000080040000C00400004014000400140A8
:101EE0000018004070B5044690F83C000025012819
:101EF00017D0012684F83C60022084F83D00206859
:101F0000826822F0770222F47F42826008685028BB
:101F100038D00DDC20284FD005DC90B3102811D12B
:101F20004AE0022070BD302846D040280AD13BE06C
:101F300060282FD070280DD0B0F5805F03D0B0F5A9
:101F4000005F12D0012584F83D60002084F83C0039
:101F5000284670BDCB68D1E90121206800F0AAFFB6
:101F60002068816841F0770109E0CB68D1E901215F
:101F7000206800F09FFF2068816841F48041816003
:101F8000E1E719E0CA684968206800F0A5FF502120
:101F9000206806E0CA684968206800F0AEFF60214A
:101FA000206800F091FFCEE7CA684968206800F019
:101FB00093FF40212068F4E7226801461046F0E7CD
:101FC000704770B50446006801694FF00005C943C9
:101FD000890715D4C168C943890711D4E91E016175
:101FE00001202077206880698007204602D0FFF713
:101FF000E7FF04E000F098F8204600F096F8257717
:1020000020680169C943490717D4C168C943490712
:1020100013D46FF0040101610220207720688069E9
:1020200010F4407F204602D0FFF7CAFF04E000F022
:102030007BF8204600F079F8257720680169C943CC
:10204000090716D4C168C943090712D46FF0080103
:102050000161042020772068C0698007204602D0F3
:10206000FFF7AEFF04E000F05FF8204600F05DF8F7
:10207000257720680169C943C90617D4C168C943D7
:10208000C90613D46FF01001016108202077206881
:10209000C06910F4407F204602D0FFF791FF04E0B2
:1020A00000F042F8204600F040F8257720680169EA
:1020B000C943C90708D1C168C943C90704D1891EEA
:1020C0000161204600F032F820680169C943090621
:1020D00009D4C168C943090605D46FF080010161C4
:1020E0002046FFF729FE20680169C943490609D443
:1020F000C168C943490605D46FF04001016120461B
:1021000000F04CF820680169C94389060BD4C16806
:10211000C943890607D46FF0200101612046BDE85C
:102120007040FFF70ABE70BD7047704710B51A4C7B
:102130002068401C0A2190FBF1F2206001FB120094
:1021400038B9FEF727FB03F0B7F903F085F803F081
:1021500079F920683C2190FBF1F201FB120008B9EB
:1021600003F01EFB21684FF4FA7091FBF0F200FBC4
:10217000121008B901F040F82068072190FBF1F235
:1021800001FB120008B902F0A9F92068B0F57A7FC6
:1021900001DB0120206010BD8000002070477047E7
:1021A00070470000F8B5016804460868CA684B69C2
:1021B00010F00F0F4FF000055AD003F0010602F4A3
:1021C0009077374365D0C10705D0D10503D5216C81
:1021D00041F001012164410705D5D90703D0216CE5
:1021E00041F002012164810705D5D90703D0216C94
:1021F00041F004012164010707D502F020013143B9
:1022000003D0216C41F008012164216C00293BD0EE
:10221000800604D5900602D5204600F0AFFE206867
:102220004069216CC0F3801001F008010143204691
:102230002BD000F07CFE20684069400621D5206844
:10224000143050E8001F21F0400140E80012002A3D
:10225000F5D1A06BA8B16C490165A06BFEF7D2FF68
:10226000002811D0A06B016D01B0BDE8F040084717
:1022700083060ED593060CD52046BDE8F84000F045
:102280007DBE2046FFF78CFFF8BDFFF789FF256470
:10229000F8BD266B2023012E79D1C60677D5D60648
:1022A00075D50868486800904869400640D5A16B1C
:1022B000086840680004000CEAD0A28D8242E7D989
:1022C000E085C869B0F5807F2DD020680C3050E8DB
:1022D000001F21F4807140E80012002AF5D1206827
:1022E000143050E8001F21F0010140E80012002ADC
:1022F000F5D12068143050E8001F21F0400140E87B
:102300000012002AF5D184F83E30256320680C3095
:1023100050E8001F21F0100140E80012002AF5D11A
:10232000A06BFEF726FFA08DE18D401A81B229E057
:10233000A08DE18D401A81B2E08D0028A8D000293F
:10234000A6D020680C3050E8002F22F4907240E8AC
:102350000026002EF5D12068143050E8002F22F01E
:10236000010240E80026002EF5D184F83E302563B6
:1023700020680C3050E8002F22F0100240E80023C3
:10238000002BF5D12046FFF70AFFF8BDFFE7050651
:102390002BD5150629D594F83D002128F5D1A06844
:1023A000B0F5805F01D12069B0B1206A411C216283
:1023B000216800784860E08C401E0004000CE08436
:1023C000E3D12068C16821F08001C1602068C16844
:1023D00041F04001C160D8E7206A0088C0F30800DE
:1023E0004860206A801C2062E5E74006CDD5500693
:1023F000CBD5CA68204622F04002CA6084F83D303E
:1024000000F029FAC1E700001F2F000870B5040092
:1024100004D094F83D00002510B106E0012070BD05
:1024200084F83C50204600F023F8242084F83D0036
:102430002068C16821F40051C160204600F0FEFD13
:102440002068016921F4904101612068416921F00F
:102450002A0141612068C16841F40051C1602564CE
:10246000202084F83D0084F83E00002070BD00006C
:102470002DE9F04F87B0054614216846FDF7D2FFDD
:102480009648DFF8548214380221D5F800C0934BE7
:102490000322CF03002406154FF007094FF0006B0D
:1024A000C4456CD1D3F800C04CF0100CC3F800C088
:1024B0001B6803F010030593036843F002030360F5
:1024C000036803F002030593036843F0010303600C
:1024D00000688A4600F0010005908020CDE9000ADE
:1024E0000DF1080C90468CE8100369467C48FEF715
:1024F000D5FF7010CDE9000A0DF1080A69468AE897
:1025000010037848FEF7CAFFDFF8E08176494046BD
:10251000C8F80010C0E901B4C0E90346C8F8144087
:10252000C8F81840C8E90747D946BA46C8F8244051
:10253000FEF74AFF08B1FEF72AF96C4F6A48C5F862
:10254000388060377830C8F83850E7E80209402012
:1025500051C7664847F814496030BC61C7E9074A6B
:102560007C62FEF731FF08B1FEF711F96F630022BC
:1025700005212520BD63FFF7F7F8252044E0DFF8AB
:102580007081C44545D1554B1B1FD3F800C04CF496
:10259000802CC3F800C01B6803F4802305930368F4
:1025A00043F004030360006800F0040005904FF45A
:1025B00040608DE81300CDE9032969464D48FEF7D8
:1025C0006DFFDFF828814C4908F1C0084046C8F883
:1025D0000010C0E901B4C0E90346C8F81440C8F8C7
:1025E0001840C8E90747C8F82440FEF7EDFE08B1D7
:1025F000FEF7CDF8C5F83880002204212720C8F85E
:102600003850FFF7B1F82720FFF7A0F807B0BDE872
:10261000F08FDFF8E880C445F8D1D3F800C0A146B8
:102620004CF0200CC3F800C01B6803F02003059396
:10263000036843F040030360006800F04000059029
:102640004FF484408DE813000820CDE9032069464B
:102650002B48FEF723FF2449DFF8A88018394046AD
:10266000C8F800104FF0206AC0E901A4C0E9034691
:10267000C8F814404FF40031C8F81840C8E90741C1
:10268000C8F82440FEF7A0FE08B1FEF780F81D4C04
:102690001548C5F8388060346030C8F83850C4E94F
:1026A000000A4020A060C4E90396C4F81490C4F85E
:1026B0001890C4E907972046C4F82490FEF784FEDA
:1026C00008B1FEF764F86C63002201214720A5637E
:1026D000FFF74AF8472097E70010014044380240CE
:1026E000000402400000024040640240A0020020BA
:1026F00000480040000802402860024000140140E9
:1027000000180240C003002090F83E30202B0ED16C
:1027100059B152B190F83C30012B08D0012380F818
:102720003C300023036300F00FBD012070470220FE
:10273000704700001648B2EE041A90F82B1030399A
:1027400000EE101A90F82A10303900EE901AB8EE08
:10275000C00A90F82D10F8EEE00A3039352200EE6C
:10276000810A00EE901A9FED0B1A0B49F8EEE00A71
:1027700000EE810A81ED000A8178407800EB80004C
:1027800001EB40000549086001490548FFF7BCBF5F
:1027900004010020CDCCCC3DDC000020E000002076
:1027A000D40100202DE9F843044690F83D001F466F
:1027B00016460D4620284CD1C5B1BEB194F83C0058
:1027C000012846D0012084F83C004FF00008C4F8EE
:1027D0004080212084F83D00FEF758FFA684814602
:1027E000E684A068B0F5805F03D004E00120BDE876
:1027F000F883206928B12E465FF0000584F83C80FC
:102800000EE00026FAE78021204600F0B8FCA0B9CF
:10281000AEB116F8010B21684860E08C401EE084E0
:10282000E08C4B464FF0000200970028EBD14FF0B0
:102830004001204600F0A3FC30B10320D7E735F873
:10284000020BC0F30800E6E7202084F83D000020DA
:10285000CDE70220CBE77047FEE70000104810B537
:102860000E4901600321416000214FF48022816004
:10287000C0E903124FF4E002426101760122427680
:102880008276C17601774177FEF757FA002803D0A8
:10289000BDE81040FDF77BBF10BD000000640040A4
:1028A0003C010020104810B50E4901600321416031
:1028B00000214FF480228160C0E903124FF4E0024E
:1028C00042610176012242768276C17601774177B4
:1028D000FEF733FA002803D0BDE81040FDF757BFDC
:1028E00010BD000000680040640100201D4808B5CC
:1028F000016841F400110160016801F400110091C8
:10290000016841F4800101600068002200F4800049
:10291000009011460C20FEF727FF0C20FEF716FF53
:10292000002205213920FEF71FFF3920FEF70EFF98
:10293000002205213A20FEF717FF3A20FEF706FF96
:10294000002205214520FEF70FFF4520FEF7FEFE81
:10295000002205214620FEF707FFBDE8084046207B
:10296000FEF7F4BE30380240194808B5016841F05E
:1029700002010160016801F002010091016841F06B
:1029800040010160016801F040010091016841F0DF
:1029900001010160016801F001010091016841F04D
:1029A00008010160016801F008010091016841F02F
:1029B00004010160016801F004010091016841F027
:1029C00080010160006800F08000009008BD0000F8
:1029D0003038024010B586B00024174800940194A6
:1029E0000294039404941349059401605321C0E9AF
:1029F000011440F2E731C0E903148461FFF7E6F9FE
:102A000008B1FDF7C4FE4FF48050009069460A48B3
:102A1000FFF768FA08B1FDF7BAFE049404A9064866
:102A20000594FFF78BF9002801D0FDF7B0FE06B042
:102A300010BD0000000400408C0100200C4810B5BF
:102A40000A4901604FF4E1314160002181600C22AC
:102A5000C160C0E904128161C161FFF7D7FC0028A1
:102A600003D0BDE81040FDF792BE10BD001001403C
:102A7000D40100200C4810B50A4901600B4941609F
:102A8000002181600422C160C0E904128161C1613A
:102A9000FFF7BCFC002803D0BDE81040FDF777BE6F
:102AA00010BD00000048004018020020A086010070
:102AB0000C4810B50A4901604FF4E1314160002132
:102AC00081600C22C160C0E904128161C161FFF71D
:102AD0009DFC002803D0BDE81040FDF758BE10BD96
:102AE000001401405C020020FEE7FEE79FED0A0AA9
:102AF00080ED030A80ED040A80ED000A80ED010AF2
:102B000080ED020A80ED050A80ED060A80ED070AD5
:102B100080ED080A704700000000000070470028A0
:102B200001DC404200B2704770B5194CB4F90000A6
:102B3000FFF7F5FF40F29465A84217DCB4F90200F4
:102B4000FFF7EDFFA84211DCB4F90400FFF7E7FF3F
:102B5000A8420BDCB4F90600FFF7E1FFA84205DC50
:102B6000A07A18B1E07A08B1002070BD0020208062
:102B70006080A080E08020810221A172E172A081AA
:102B8000E0812082A074E074A082012070BD00006A
:102B90008600002030B5144B1C68656945F040057F
:102BA00065611B68DC6844F01004DC600F4B1C6836
:102BB000256825F0010525601C682568ED07F7D11B
:102BC0001D680B4CAC601C68E060186801611868F7
:102BD00042601868016841F480210160186801684A
:102BE00041F00101016030BD1802002060030020A7
:102BF0000448004038B51B480168CA6822F40052F6
:102C0000CA60194A11680B6823F001030B6013684E
:102C1000242159600068016841680091134C1368D1
:102C20004FF40011A34202D9104B4C3B04E0104C6E
:102C3000A34203D90D4B503B196008E00C4D0C4CDE
:102C4000603DB83CAB4201D9E16000E0A160C168E1
:102C500041F40051C1601068016841F00101016058
:102C600038BD0000180200206003002058640240B4
:102C7000B860024030B5284801684B6943F0400312
:102C80004B6101684B6943F080034B610068C16888
:102C900041F01001C160214801680B6823F0010375
:102CA0000B6001680B68DB07F7D11D4D4FF4001373
:102CB000A94202D91A4C4C3C04E01A4CA14203D957
:102CC000174C503C236008E0164D164C603DB83C54
:102CD000A94201D9E36000E0A360134B8B60046854
:102CE0001249E1600468216101684A6001680A686C
:102CF00042F480220A600068016841F0010101602D
:102D00000B4801680A6822F001020A6001680A683B
:102D1000D207F7D18B6030BD5C020020C0030020D9
:102D200058640240B860024004140140940C002032
:102D3000200400207047FEF7AFBC000030B593B010
:102D400030216846FDF76EFB14210CA8FDF76AFBE5
:102D50001D480025016841F080510160006800F0C5
:102D6000805011901948016841F480410160006869
:102D7000022400F480401190012000900004019092
:102D80008001CDE9064006200890A820CDE909047D
:102D900004200B906846FEF705FE08B172B6FEE708
:102DA0000CA90F2081E831004FF4A0500F904FF490
:102DB0008050109005210CA8FEF708FD002801D0D6
:102DC00072B6FEE713B030BD4038024000700040DC
:102DD0000248016841F470010160704788ED00E02D
:102DE0000148FFF7EEB800008C010020F0B5026842
:102DF000254C264D264E274F274B4FF0804CA042A6
:102E000009D0604507D0A84205D0B04203D0B842EF
:102E100001D0984204D122F0700E4A6842EA0E02B4
:102E2000A0421BD0604519D0A84217D0B04215D09F
:102E3000B84213D0984211D0184DA8420ED0184D68
:102E4000A8420BD0174DA84208D0174DA84205D074
:102E5000164DA84202D0164DA84203D122F4407567
:102E6000CA682A434D6922F080022A4302608A68B8
:102E7000C2620A688262A04201D0984201D1096907
:102E8000016301214161F0BD0000014000040040E8
:102E900000080040000C00400004014000400140D8
:102EA000004401400048014000180040001C004060
:102EB0000020004010B5846842EA032224F47F44D5
:102EC0000A432243826010BD826822F070020A43E6
:102ED00042F007018160704710B5036A046A24F06C
:102EE00001040462846924F0F00444EA021423F02B
:102EF0000A020A438461026210BD10B5036A23F01E
:102F0000100303628369046A23F4704343EA0232C4
:102F100024F0A00343EA01118261016210BD10B5E3
:102F2000806B0021C185C184FFF73AF910BD0168AB
:102F30000C3151E8002F22F4907241E80023002B5D
:102F4000F5D10168143151E8002F22F0010241E867
:102F50000023002BF5D1016B012909D101680C3147
:102F600051E8002F22F0100241E80023002BF5D198
:102F7000202180F83E1000210163704708B590F8C9
:102F80003E10222901D0022008BD82684FF48053F0
:102F90009A4201D1016921B1816A9A421BD04AB19A
:102FA0000AE00268816A5268C2F308020A80816AF4
:102FB000891C08E0026972B10268526802F07F025F
:102FC0000A70816A491C8162C18D491E0904090C7D
:102FD000C18503D019E002685268F1E70168CA6848
:102FE00022F02002CA600168CA6822F48072CA60B6
:102FF00001684A6922F001024A61202180F83E10EE
:10300000016B012903D0FFF795FB002008BD0021CB
:10301000016301680C3151E8002F22F0100241E8F1
:103020000023002BF5D101680A68D20602D50A6890
:1030300049680091818DFFF7B2F8E6E770B5044664
:1030400000680169E26821F440511143016121697E
:10305000A068E26908436169114308432168CA68AE
:1030600049F20C639A430243CA6020684169A2692D
:1030700021F440711143416131492068884202D0F6
:103080003049884202D1FEF74BFC01E0FEF738FCE4
:10309000E2690023192164253226B2F5004F6268E7
:1030A00028D0A0FB0101930F9200FDF7DDF8014647
:1030B000B0FBF5F06FF01802504301EB800006EB17
:1030C0000010B0FBF5F000F0F002B1FBF5F002EB00
:1030D0000012B1FBF5F06FF01803584301EB8000CC
:1030E00006EB0010B0FBF5F000F00F002168104473
:1030F000886070BDA0FB010192185B41FDF7B4F838
:103100000146B0FBF5F00201B1FBF5F06FF01803DA
:10311000584301EB800006EBC000B0FBF5F000F077
:10312000F80002EB4002B1FBF5F0584301EB8000E0
:1031300006EBC000B0FBF5F000F00700D6E700009A
:10314000001001400014014081628285C285002187
:103150000164222280F83E2080F83C100168CA6891
:1031600042F48072CA6001684A6942F001024A6111
:103170000068C16841F02001C160002070472DE95E
:10318000F041984617460E460446069D27E0681C07
:1031900025D02DB1FEF77AFAA0EB0800A8421ED97F
:1031A00020680C3050E8001F21F4D07140E8001274
:1031B000002AF5D12068143050E8001F21F00101E9
:1031C00040E80012002AF5D1202084F83D0084F860
:1031D0003E00002084F83C000320BDE8F081206818
:1031E000006836EA000004D00020B842CFD00020AA
:1031F000F3E70120F9E700002DE9F04F85B014272F
:103200004FF487744FF420780097CDE903840225AA
:103210000326DFF87C90CDE90165012399ED000AD2
:103220001A4619461BA000F06DF84FF4A06B0097EA
:10323000CDE903B4DFF860A0CDE901659AED000A9D
:1032400001231A46B8EEC00A194614A000F05AF835
:103250000097CDE90384CDE90165012399ED000ACA
:103260001A4602210BA000F04DF80097CDE903B4F7
:10327000CDE901659AED000A01231A46B8EEC00AAD
:10328000022106A000F03EF805B0BDE8F08F000076
:10329000DC00002030393000E000002030393100FF
:1032A000F0B585B014274FF487744FF42070009761
:1032B000CDE90304022503260E48CDE9016501236B
:1032C00090ED000A1A4619460BA000F01BF8B80151
:1032D0000097CDE903040948CDE9016590ED000AA6
:1032E00001231A46B8EEC00A194605A000F00AF8F4
:1032F00005B0F0BDDC00002030393000E0000020D7
:10330000303931002DE9F05F3A4C88462DED028BC3
:103310000546DDE90E9A40F20110DDF830B036497D
:103320002080B0EE408A1E461746881E01F09EFBA4
:1033300031489FED320A001F152341886180808843
:10334000A0802878A0716878E071A878207214F8BD
:10335000090F28EE000A68F3020020F03800283038
:1033600004F80809BDEEC00A2089224A67F38910D3
:103370002081607A66F385006072A18969F3090192
:10338000A181B4F809106BF38E11A4F809106189BA
:103390000D9860F3CF116181B4F80D106AF38C01C0
:1033A000A4F80D10E189109860F34F11E18110EE3F
:1033B000100A218A60F3090110EE100A2182810AA5
:1033C000B4F8110061F38C00A4F8110010EE100A9B
:1033D0004FF6FF7101EA6051608A61F34F1060821D
:1033E00040F20131BDEC028BA520BDE8F05F01F099
:1033F00055BE0000800400200800002000007A4430
:103400000148FEF7CFBE0000D401002038B52A489D
:1034100000680168890603D501684068009038BDDE
:1034200026490968C906FAD501684068244A00900F
:10343000106801684FF024030C032249046824F04B
:103440000104046016D414686068C0F1240080B2DE
:103450000880636011680B6843F400230B601168F7
:103460000A6842F001020A601228D8D115491648AC
:10347000891C16E010684468C4F12404A4B20C80CE
:1034800043601248816A21F400218162106801685A
:1034900041F001010160122CC1D10A490A48891C7E
:1034A000243001F083FFFFF73FFB0128B7D1BDE8CF
:1034B00038402420FFF79EBB18020020004800403F
:1034C00060030020840000205C0B002000600240AC
:1034D0001F4818B40068C00637D51E4801680A683E
:1034E00049680091816B09680A681B4B12030A68DE
:1034F0004FF4007422F001020A60816B09684A6887
:10350000C2F5007292B21A804C60816B09680B6838
:103510000CD443F400230B60806B0068016841F019
:10352000010101600D4901F580600BE023F40023E7
:103530000B60806B0068016841F00101016008497F
:1035400001F5007018BC01F0F6B918BC7047000016
:10355000001401405C020020EC000020940C0020CC
:10356000940E0020FEE700000021C16001610160AF
:103570004160816041618161C16101629FED030A27
:10358000416280ED0A0A80ED0B0A704700000000DE
:1035900003B401984100009850EAC12018BF0420EC
:1035A0004A0D18BF40F0010040F2FF72B2EB515FCC
:1035B00008BF40F00200012808BF052002B0704794
:1035C0000907090E002804DB00F1E02080F8001450
:1035D000704700F00F0000F1E02080F8141D7047E4
:1035E00010B52F499FED2C1B2DED020B84B00598D3
:1035F00020F000408842D8BF9DED040B2DDD294905
:10360000884209D1049840B94FF00100FCF739FF16
:1036100000F0A2FC06B010BD05DB9DED040B00F030
:103620008FFC06B010BD68469DED040B00F0A0F8BD
:1036300010F0030004BF9DED021B9DED000B0CD0AC
:1036400001280ED09DED021B9DED000B022817D026
:10365000012000F0DDFB06B010BD00F0A5FA06B0B9
:1036600010BD9DED021B9DED000B012000F0D0FB75
:1036700051EC100B02F052F906B041EC100B10BDEA
:1036800000F092FA51EC100B02F048F906B041EC50
:10369000100B10BD00000000000000000000000042
:1036A000FB21E93F0000F07F10B52F499FED2C1B57
:1036B0002DED020B84B0059820F000408842DCBF5D
:1036C00000209DED040B32DD2849884209D1049881
:1036D00040B94FF00100FCF7D4FE00F03DFC06B00D
:1036E00010BD05DB9DED040B00F02AFC06B010BDFB
:1036F00068469DED040B00F03BF810F0030011D07C
:10370000012818D09DED021B9DED000B02281AD058
:1037100000F04AFA51EC100B02F000F906B041EC4F
:10372000100B10BD9DED021B9DED000B012000F064
:103730006FFB06B010BD9DED021B9DED000B00F070
:1037400033FA06B010BD012000F062FB51EC100B03
:1037500002F0E4F806B041EC100B10BD00000000D0
:103760000000000000000000FB21E93F0000F07FA6
:103770002DE9F14F04462DED020B2DED088B8AB09B
:103780009FEDE70B80ED020B139EE74826F0004506
:1037900085420ADC9DED120B002084ED000B0AB07F
:1037A000BDEC088B03B0BDE8F08FE0489FEDE0ABC7
:1037B0009FEDE1BBA84247DDE14F9FEDE39B9FED0D
:1037C000E48B9DED120B53EC1A2B51EC100B002ED9
:1037D0001CDD02F08DFC41EC100BBD4208D053EC17
:1037E0001B2B51EC100B02F083FCC4E900010BE031
:1037F00053EC192B51EC100B02F07AFC53EC182B04
:1038000002F076FCC4E900010120C8E702F0C4F828
:1038100041EC100BBD4208D053EC1B2B51EC100BAC
:1038200002F0BAF8C4E900010BE053EC192B51EC9B
:10383000100B02F0B1F853EC182B02F0ADF8C4E90C
:1038400000014FF0FF30AAE7C348A84279DB9DEDA5
:10385000120B51EC100B01F041F841EC180B9FEDED
:10386000C00B53EC102B02F039FB9FEDBF1B53EC48
:10387000112B02F091F802F09BFA074602F0C7FA0A
:1038800041EC190B53EC1A2B02F028FB53EC182BCC
:1038900002F022FC41EC180B53EC1B2B51EC190BE2
:1038A00002F01CFBDFF8C8A241EC100B4FEA1558E0
:1038B0000125FA4453EC102B51EC180B02F018FCC4
:1038C000032DC4E900013DD0C1F30A5005EB4511B9
:1038D000A8EB00001139814234DA0AEB051BB0EE87
:1038E00048AA9BED000BF0EE68AA53EC102B51ECAC
:1038F000190B02F0F3FA41EC1B0B51EC1A0B53ECD1
:103900001B2B02F0F5FB41EC180B51EC1A0B53EC9E
:10391000182B02F0EDFB53EC1B2B02F0E9FB9BEDA7
:10392000020B41EC1A0B53EC102B51EC190B02F06B
:10393000D5FA53EC1A2B02F0DBFB41EC100B6D1C9B
:10394000B8E70EE0002EA8BF3846BFF628AF94EDCA
:10395000000B51EC100B01F0E1FFC4E900017842CB
:103960001DE7C6F3130040F4801EC6F30A50A0F210
:10397000F530471100F01F05C5F12000DDF848B013
:1039800008900020069007900520EC467949002D0C
:1039900007EB0002794408BF51F8221009D051F812
:1039A000223001EB8201AB404A68089922FA01F10A
:1039B0001943A1FB0E26A1FB0B131A449A4234BFF4
:1039C0000123002303EB06080CEB8003D3E901A6D7
:1039D0000E448E4234BF0121002192448A4411B129
:1039E000924502D903E0924501D2012100E0002175
:1039F000C3E901A641444CF82010011EA0F10100CA
:103A0000C4DC029800F10050850F0298DDE90367DD
:103A10008000DDF8148002F0FAF941EC1A0B304610
:103A200002F00CFA9FED541B53EC112B02F056FAE6
:103A300041EC1B0B384602F001FA9FED511B53EC91
:103A4000112B02F04BFA41EC180B404602F0F6F94C
:103A50009FED4D1B53EC112B02F040FA41EC190B7A
:103A600051EC180B53EC192B01F096FF53EC1B2B68
:103A700001F092FF53EC1A2B01F08EFFCDE9080103
:103A8000002008909DED080B53EC1A2B51EC100B05
:103A900002F02EFB53EC1B2B02F02AFB53EC182BED
:103AA00002F026FB53EC192B02F016FB9FED381B9E
:103AB00053EC112B02F012FA9FED370B41EC180B6F
:103AC00053EC102B9DED080B51EC100B02F006FA95
:103AD00053EC182B01F060FF9FED310B41EC180BFC
:103AE00053EC102B9DED080B51EC100B02F0F6F986
:103AF00053EC182B01F050FF41EC100B139810F011
:103B0000004F06D06D4251EC100B01F007FF41EC65
:103B1000100B284684ED000B41E600000000000079
:103B20000000000000000000FB21E93F7CD90240BA
:103B300000004054FB21F93F3163621A61B4D03D6B
:103B4000FB21F93F000000000000601A61B4D03D85
:103B50007370032E8A19A33BFB213941000000003A
:103B600083C8C96D305FE43F000000000000E03F03
:103B70005A2E0000A82D0000000000000000103E9A
:103B8000000000000000103C000000000000103A9F
:103B9000182D4454FB21F93D3326A611460B113C48
:103BA00000000054FB21F93D10B52DED040B2DED67
:103BB000088B82B0B0EE419AF0EE619A0B9820F03B
:103BC00000449FED4BABB4F1795F11DA9DED0A0B28
:103BD00051EC100B02F0ECF8002801BFB0EE4A0ADD
:103BE000F0EE6A0A02B0BDEC088B04BF04B010BD51
:103BF0009DED0A0B53EC102B51EC100B02F06EF9FB
:103C000041EC180B3C480621B0EE480AF0EE680A79
:103C1000784400F081F853EC182B51EC100B02F0B3
:103C20005DF99DED0A0B41EC1B0B53EC192B51EC8C
:103C3000100B02F053F941EC190B53EC1B2B51EC18
:103C4000180B02F04BF953EC192B02F051FA9FEDCF
:103C50002C0B41EC190B53EC102B51EC180B02F010
:103C60003DF941EC100B2848844210DA53EC192B33
:103C700051EC100B02F03CFA53EC1A2B02F02CFA28
:103C800041EC100B02B0BDEC088B04B010BD1F4816
:103C9000A042BCBF9FED1E1B8DED001B06DBA4F5F3
:103CA00000100190002000909DED001B51EC100BC6
:103CB00053EC112B02F01CFA9DED000B41EC180B9C
:103CC00053EC102B51EC1A0B02F012FA41EC1A0BC8
:103CD00053EC192B51EC180B02F00AFA53EC1A2B87
:103CE00002F0FAF941EC100BCCE7000000000000F4
:103CF000000000000000F03FCC2A0000000000009F
:103D0000000000000000E03F3333D33F0000E93FF4
:103D1000000000000000D23F70B504462DED028B7C
:103D20004D1E00EBC500B0EE408AF0EE608A90EDCB
:103D3000000B35F0060017D053EC182B51EC100B8C
:103D400002F0CCF841EC100B6D1E04EBC50090EDB9
:103D5000001B51EC100B53EC112B01F01DFE41EC3C
:103D6000100B35F00600E7D1022D36D0042D1CD003
:103D7000062D1CBFBDEC028B70BD53EC182B51EC13
:103D8000100B02F0ABF894ED0A1B53EC112B01F071
:103D900003FE53EC182B02F0A1F894ED081B53EC32
:103DA000112B01F0F9FD41EC100B53EC182B51ECE9
:103DB000100B02F093F894ED061B53EC112B01F05D
:103DC000EBFD53EC182B02F089F894ED040B53EC47
:103DD000102B01F0E1FD41EC100B53EC182B51ECD2
:103DE000100B02F07BF894ED021B53EC112B01F049
:103DF000D3FD53EC182B02F071F894ED001B53EC3B
:103E0000112B01F0C9FDBDEC028B41EC100B70BD14
:103E100031B504462DED040B2DED0A8BB0EE41BA01
:103E2000F0EE61BA0B989DED0A0B20F00040B0F166
:103E3000795F0DDA51EC100BFFF7AAFB042808BFDD
:103E400000F09AF89DED0A0BBDEC0A8B05B030BD71
:103E500053EC102B51EC100B02F040F841EC180B16
:103E60009DED0A0B53EC182B51EC100B02F036F8B9
:103E700041EC190B2C48B0EE480AF0EE680A052117
:103E80007844FFF749FF9FED2ACBB0EE40AAF0EE51
:103E900060AA9CB353EC1C2B51EC190B02F01EF8DA
:103EA00041EC1C0B53EC1A2B51EC190B02F016F8D9
:103EB0009FED210B41EC190B53EC102B51EC1B0B1C
:103EC00002F00CF853EC192B02F012F953EC182BFA
:103ED00002F004F853EC1B2B02F00AF953EC1C2BF4
:103EE00002F006F99DED0A1B53EC112B02F0F4F8D9
:103EF000BDEC0A8B05B041EC100B30BDFFE753EC75
:103F00001A2B51EC180B01F0E9FF53EC1C2B01F0BC
:103F100043FD53EC192B01F0E1FF9DED0A1B53EC1F
:103F2000112B01F039FDE3E75429000000000000E7
:103F3000495555555555C5BF000000000000E03FEC
:103F400010B553EC102B51EC100B01F025FD41EC9A
:103F5000100B10BD000000009FED050B10B553ECD9
:103F6000102B51EC100B01F0CBFD41EC100B10BDF0
:103F700000000000000000009FED050B10B553ECA1
:103F8000102B51EC100B01F0A9FF41EC100B10BDF0
:103F9000000000000000001010B5344800F0D4FE0E
:103FA000334800F0D1FE334800F0CEFE324800F036
:103FB000CBFE324800F0C8FE2C489FED310A3C3859
:103FC000DFED310A80ED260A9FED2E0A9FED321AB1
:103FD00080ED270AC0ED280A80ED290A80ED2A0A23
:103FE000DFED2A0A80ED2B0AC0ED450ADFED280A35
:103FF000C0ED460AC0ED470A1D48DFED260A3C38F1
:10400000C0ED450A1B483C38C0ED450A1A483C380B
:10401000C0ED450A19483C3880ED451A1F48C0EDEF
:104020000C0ADFED1F0AC0ED0D0A80ED0E0A1E48D6
:10403000DFED1C0AC0ED0A0ADFED1C0AC0ED0B0A19
:1040400080ED0C0AFEF752FD1448FCF791FA01F0DE
:104050008FF901F0A3F900F021F91548FDF702FFEF
:1040600000F0E6FDBDE81040FFF71AB9040A002091
:104070007405002098060020BC070020E0080020FE
:10408000C3F5283E000000000AD7A33C9A99594086
:10409000CDCCCC3DCDCC9C40CDCCDC40200B002009
:1040A0009A99D93FCDCC0C40EC0A00205C8F423F5E
:1040B0008C01002010B590ED040AD0ED030A594A96
:1040C00030EE600A80ED000A1278012A13D0022A2D
:1040D00036D110EE102A544B9A4208DA10EE102A0C
:1040E000524B9A4203D29FED520A80ED000A514A88
:1040F000926832B338E0D1ED000A4F4A20EE801AC0
:1041000080ED051AD0ED010AD1ED021A70EE600AB9
:1041100060EEA10AC0ED070A80ED010A31EE200A27
:1041200010EE101A914202DD9FED440A06E010EEF7
:10413000101A434A914201D99FED420A80ED080AC4
:1041400010BD10EE102A404BDFED400A9A4202DD0E
:1041500030EE600A06E010EE102A3D4B9A4203D979
:1041600030EE200A80ED000A10EE102A4FF07E5447
:10417000384BA24209DC10EE102A9A4205D8D0ED45
:10418000020A70EE800AC0ED020A8268A24202DDD5
:10419000F7EE000A03E09A4203D9FFEE000AC0EDF1
:1041A000020AD1ED000A4FF0804260EE800AC0EDB5
:1041B000050A91ED011AD0ED021A61EE211AC0ED47
:1041C000061A90ED011A91ED022A10EE901A30EEC7
:1041D000411AF0EE000A914221EE021A80ED071A10
:1041E00080ED010A01DDC0ED050A41694FF0404351
:1041F000B8EE002A994201D980ED052A90ED050A12
:1042000030EE010A30EE210A10EE101A914202DD62
:10421000C0ED080A10BD10EE101A99428ED980ED3B
:10422000082A10BD0C000020CDCC8C3FCDCC8CBF1B
:1042300000000000C80900200000164300004842AA
:10424000000016C3000048C2000034430000B4431D
:10425000000034C3000080BF30B50C4605000CD010
:10426000022C0AD90548A11E0288284600F0DAFB74
:10427000291901F8020D000A487030BD0001002024
:1042800030B50C46050008D0022C06D9FF22611E6D
:1042900000F0DEFB291901F8010C30BD10B58AB021
:1042A000002001210090019002900390CDE90510BB
:1042B00004900E2008910791099069460D48FCF77B
:1042C00043FB0F20059069460B48FCF73DFB044675
:1042D0000848FCF71BFF0848FCF718FF02210548B7
:1042E000FCF7BCFA02210448FCF7B8FA0AB02046F1
:1042F00010BD00003C0100206401002090ED060A82
:10430000D0ED050A30EE600A80ED000AD0ED040A17
:10431000B1EE601AB4EEC10AF1EE10FA0ADDB4EEA5
:10432000E00AF1EE10FA05D2D0ED020A70EE800A32
:10433000C0ED020A90ED021AD0ED030AB4EEE01AC5
:10434000F1EE10FA01DDC0ED020A90ED021AF1EE75
:10435000600AB4EEE01AF1EE10FA01D2C0ED020AE2
:10436000D0ED0C0A164A20EE801A80ED071AD0ED27
:104370000D0AD0ED021A60EEA10AC0ED080AD0EDD8
:10438000011A90ED0E2A70EE611A61EE821AC0EDEC
:10439000091A80ED010A31EE210A30EE200A10EEF2
:1043A000101A914202DD9FED070A06E010EE101A86
:1043B000054A914201D99FED050A80ED0A0A70472E
:1043C00000007A4400007A4400007AC400007AC4F5
:1043D00000B589B0092200920022082301920292BE
:1043E000CDE903238DF81420020A8DF818208DF8EA
:1043F0001900080A8DF81A008DF81B1008AB06AAE0
:1044000069460248FCF73CFA09B000BD640100208F
:104410000E48B0F8F8100E480A0A027041700D49B3
:10442000B1F8F8100A0A8270C1700B49B1F8F8109F
:104430000A0A027141710949B1F8F8100A0A827139
:10444000C17101460648FCF725B900003805002077
:10445000780000205C06002080070020A4080020CF
:104460003C01002010B5174C9FED150A84ED060A9B
:1044700000EE100A2046B8EE400A84ED050AFFF768
:104480003DFFD4ED0A0A9FED101A80EE810A10EE6E
:10449000100A01F017FF9FED0D1B53EC112B01F0DB
:1044A0001BFE01F047FA01F00DFF9FED0A1B53ECD4
:1044B000112B01F013FD01F03DFA00EE100A10BDC2
:1044C00000004842200B002000007A441F85EB5179
:1044D000B81EF13F8FC2F5285C8FEA3F10B500F09F
:1044E00021F800F073FC0A4C01202070094800F00C
:1044F0004DFC094800F04AFC084800F047FC084819
:1045000000F044FC00202070BDE81040FFF780BFA1
:104510000C0000207405002098060020BC07002035
:10452000E00800202DE9F0414F4D504CB5F9000056
:1045300004F12C0100EE100AB8EEC00A84ED070A5F
:10454000B5F9020000EE900AF8EEE00AC4ED080AA0
:10455000B5F9040001EE100A081FB8EEC11A84ED87
:10456000091A84ED0A0AC4ED0B0AD4ED0D0A94ED84
:104570000C0A01F081F8207838B194ED0A0A84ED34
:10458000070A94ED0B0A84ED080A394842F25441B7
:104590000160E968F1B301290CD0022929D003296F
:1045A0004AD19FED340A84ED090A84ED070A84EDAF
:1045B000080A41E02D492031081F00F003F92F4E71
:1045C0009FED2D0A2E4F86ED140AA88A00EE100AE0
:1045D0000220B8EE400A86ED130A387006F13C005E
:1045E00000F0D4FB0020387096ED180AB1EE400AB6
:1045F00020E094ED070AB5EEC00AF1EE10FA12D1F0
:1046000094ED080AB5EEC00AF1EE10FA0BD194ED64
:10461000090A00E010E0B5EEC00AF1EE10FA02D18E
:1046200042F22831016011492031081F00F0CAF818
:10463000B0EE000A84ED090AB5F9000000EE100A98
:10464000B8EEC00A84ED0C0AB5F9020000EE100ABB
:10465000B8EEC00A84ED0D0A1C3494EC030ABDE8E0
:10466000F04100F047B800002005002014000020B1
:10467000100000200000000000002143C8090020B5
:104680000C00002000EE900A10B5F8EE600A134C02
:104690002046C4ED040A84ED030A00F083FCD4ED47
:1046A000080A9FED0F1A80EE810A10EE100A01F041
:1046B00009FE9FED0C1B53EC112B01F06DF901F07D
:1046C00039F901F0FFFD9FED091B53EC112B01F0AF
:1046D00005FC01F02FF900EE100A10BDEC0A0020D5
:1046E00000007A441F85EB51B81EF13F9A999999C1
:1046F0009999E93F2DE9F0472DED028BFBF75AFF21
:1047000000F05AF92E4DB0F5605F05F5927605F58B
:10471000127705F55B7841DD01F079FB89460446A7
:1047200049EC180BE86AC0EBC000C00201F06FFB57
:1047300053EC182B01F0E4F901F03AFBE862F06A5F
:1047400049EC184BC0EBC000C00201F060FB53EC19
:10475000182B01F0D5F901F02BFBF062F86A49EC57
:10476000184BC0EBC000C00201F051FB53EC182BFA
:1047700001F0C6F901F01CFBF862D8F82C0049ECF6
:10478000184BC0EBC0004446C00201F040FB53ECA4
:10479000182B01F0B5F901F00BFBE062E86AC5F8EF
:1047A000E400F06AC6F8E400F86AC7F8E400D8F854
:1047B0002C10C8F8E410BDEC028BBDE8F0870000B7
:1047C0003805002070B506463E480D462DED048B99
:1047D00090ED050A3C4910EE100ADFED3C0A8842D4
:1047E00001DA30EE200A9FED3A1A3B4C30EE410AD6
:1047F00080EE201AB0EE000ADFED360A21EE000A44
:1048000020EE200A84ED0E0A10EE100A01F05AFD87
:1048100041EC100BFEF7E4FEB0EE408AF0EE608A49
:10482000A06A01F04FFD53EC182B01F057FB41EC4F
:10483000180BA06B01F046FD41EC100BFEF734FFA6
:10484000B0EE409AF0EE609AE06A01F03BFD53EC66
:10485000192B01F043FB53EC182B01F09DF801F0EC
:1048600069F83060A06B01F02DFD41EC100BFEF7F4
:104870001BFFB0EE408AF0EE608AA06A01F022FDD4
:1048800053EC182B01F02AFB41EC180BA06B01F044
:1048900019FD41EC100BFEF7A3FEB0EE409AF0EECE
:1048A000609AE06A01F00EFD53EC192B01F016FB43
:1048B00053EC182B01F01CFC01F03CF82860BDEC17
:1048C000048B70BDC8090020000021430000B443E0
:1048D00000002143DC0F49401400002082B0CDE9E4
:1048E000000121F0004001909DED000B02B051EC61
:1048F000100B7047EFF3108172B6436802699A4259
:1049000001D90268026112F8013B02618268521CFF
:104910008260C268521E81F31088C26018467047D8
:104920008B185B1E0160C0E901320022C0E903213F
:104930004161104670472DE9F0475FEA01080546DE
:10494000EFF3108672B62FD0AC686CB369686869F3
:10495000884201D928686861944200DD14460F1A24
:104960007F1CA74206DB22464146FBF7F4FC686940
:1049700020440DE0A4EB07093A464146FBF7EBFC67
:1049800008EB07014A462868FBF7E5FC286848441D
:104990006861A868001BA860E8682044E8602046B9
:1049A00086F31088BDE8F08786F310884FF0FF305B
:1049B000F8E7C068704700001648C06A002800DAAF
:1049C00040421549CA6A5142002A01DB134600E001
:1049D0000B46834202DD100000D508460F49CA6A23
:1049E0005142002A01DB134600E00B46834202DD00
:1049F000100000D508460A49CA6A5142002A01DB64
:104A0000134600E00B46834202DD100000D5084645
:104A100070470000380500205C0600208007002059
:104A2000A408002010B558B1084C491E0BD310F84B
:104A3000013B5340DBB234F8133083EA1222F4E72F
:104A40004FF6FF7010BD104610BD0000DA6400087C
:104A500010B5054C04E000BF10F8013B5340E25C88
:104A6000491EF9D2104610BDDA63000870B50C4635
:104A7000054600F0C3F865282ED007DC072849D288
:104A8000DFE800F0480C11161B20250066380528C9
:104A900040D2DFE800F0262B30353A000120288094
:104AA00040F2011035E0022028804FF4817030E0A0
:104AB0000320288040F203102BE0042028804FF4CC
:104AC000827026E00520288040F2051021E00620B3
:104AD00028804FF483701CE06520288040F2651028
:104AE00017E0662028804FF4B37012E0672028801A
:104AF00040F267100DE0682028804FF4B47008E0A1
:104B00006920288040F2691003E06A2028804FF471
:104B1000B570208070BD0000054B10B55C68046066
:104B200018890880A3F11B00008B108010BD0000C5
:104B3000730C00200149098B01807047580C00203C
:104B40002DE9F0410D4600EE105A2DED028B044682
:104B5000B8EE408A00EE105AD0ED058A1646B8EE3F
:104B6000400AC0ED068A80ED058A80ED130A006BCD
:104B70001F46304401F04BF99FED1E1B53EC112BE7
:104B800001F0ACF900F0D6FE00EE100A84ED0A0A3E
:104B9000BDEEC00A84ED1E0A84ED3A0AC4E90C6732
:104BA000606838B900EE105A0120B8EE400A84ED72
:104BB000000A606038EE680A206A10EE101AB1F13F
:104BC0008B4F01DD401E05E010EE101A11F16A5FF7
:104BD00001D9401C2062400300EE100AB8EEC00A62
:104BE00030EE080ABDEEC00A84ED090ABDEC028B66
:104BF000BDE8F081000000000000E03F01480078BF
:104C000070470000580C0020034A93780370D2F8D4
:104C10000300086070470000CA000020034A1289A0
:104C2000028002481B30408908807047580C0020E1
:104C300070B51F480024A0F11805046004711D48D8
:104C4000C5F81D4085F8214040F8094F20214460F7
:104C50000481847217486C701430AD1CFBF7C0FBE4
:104C600005F108001B210460001D0460A5F8054043
:104C70001048EC71A5F803403430FBF7B1FB0D4848
:104C800010214F30FBF7ACFB0A4810215F30FBF7D7
:104C9000A7FB2C706C70AC70EC622C8685F83240EF
:104CA0002C6205F12600AC840460848070BD000095
:104CB000B4000020240C0020FCF7F6FCFEF73EF8C0
:104CC000FDF752FEFDF7CAFDFDF7ECFDFDF782FE94
:104CD000FDF7B4FEFDF70AFEFDF7CCFEFDF7E8FE9A
:104CE00000F016F8FFF758F9352205490548FDF799
:104CF0000BFD06489FED040A80ED070AFEE7000061
:104D000004010020D401002000000000C809002098
:104D10000849012081F83C000749022081F83C0045
:104D2000064981F83C00064981F83C00054981F8B4
:104D30003C007047C8090020380500205C060020B0
:104D400080070020A40800200178012904D002294E
:104D500018D19C30FEF708BC9FED0B0A80ED040AC9
:104D600080ED050A80ED010A80ED020A80ED030A5C
:104D700080ED060A80ED070A80ED080A80ED090A39
:104D80002C30E7E7704700000000000070B50178A4
:104D9000012908D0022917D100F1CC019C30BDE8CF
:104DA000704000F079BD00F15C01041D0D46204605
:104DB000FFF780F994ED080A294604F12800BDEEBA
:104DC000C00A84ED0D0AEAE770BD00002DE9F0414C
:104DD0002DED048B9FED6A0A6A4CA21C84ED100A2B
:104DE00094ED110A911C84ED120A01F14000FFF7C5
:104DF00093FE6088D4ED120A083880B294ED110A4F
:104E0000FFF740FC84ED130AA088FFF72BFB5E48F8
:104E100084ED140A5D4DD0ED390A41F2883642F234
:104E20002837F8EEE00A20EE801AD4ED130A21EEBE
:104E3000201ABDEEC11A11EE101A09B2C0F8E41022
:104E400000F5927090ED391AB8EEC11A21EE001AF1
:104E500021EE201ABDEEC11A11EE101A09B2C0F8E7
:104E6000E41000F5927090ED391AB8EEC11A21EEF7
:104E7000001A21EE201ABDEEC11A11EE101A09B265
:104E8000C0F8E41000F5927090ED391AB8EEC11A2E
:104E900021EE000A20EE200A84ED0F0ABDEEC00AC2
:104EA00010EE101A09B2C0F8E410608894ED118A6F
:104EB000410000EE101AB8EE400AB4EEC80AF1EE56
:104EC00010FA01D22E6013E000F0B8FF9FED301B06
:104ED00053EC112B01F002F841EC190B18EE100AFB
:104EE00001F0F0F953EC192B00F0BCFF00D22F6059
:104EF000A06801F0E7F99FED281B53EC112B00F09F
:104F0000EDFF41EC180BA08800F098FF53EC182B34
:104F100000F0A8FF03D24FF4FA60286004E028688C
:104F200040F6C411884211DC94ED020AF6EE000A44
:104F3000A08860EE200A00EE100AB8EE400AF4EEF7
:104F4000C00AF1EE10FA01D82E6004E0286841F2A0
:104F50007C51884210DC94ED020ADFED110AA08832
:104F600060EE200A00EE100AB8EE400AF4EEC00A25
:104F7000F1EE10FA00D82F60BDEC048BBDE8F08193
:104F80000000000014000020380500201000002060
:104F90009A9999999999F93FC3F5285C8FC2C53FB1
:104FA0008FC2753F90ED040AD0ED030A284A30EE17
:104FB000600A10EE101A80ED000A91420ADC10EE31
:104FC000101A244A914205D8D0ED020A70EE800AE8
:104FD000C0ED020A204A8168914202DDDFED1F0A1E
:104FE00004E01F4A914203D9DFED1E0AC0ED020A18
:104FF000D0ED0A0A1C4A20EE801A80ED051AD0ED89
:105000000B0AD0ED021A60EEA10AC0ED060AD0ED3F
:10501000011A90ED0C2A70EE611A61EE821AC0ED51
:10502000071A80ED010A31EE210A30EE200A10EE57
:10503000101A914202DD9FED0D0A06E010EE101AE3
:105040000B4A914201D99FED0B0A80ED080A704787
:1050500000002041000020C10000C8430000C843F8
:105060000000C8C30000C8C300007A4400007A44AE
:1050700000007AC400007AC401884ABA06490A804E
:10508000428852BA4A80828852BA8A80C08840BA1E
:10509000C880084670470000E4000020FFB5A1B0BA
:1050A0000446BDF89060174606F1090085B229460E
:1050B0006846FBF7B7F98DF80040194CBDF8900031
:1050C000ADF8010020788DF8030005216846FFF750
:1050D000D7F8BDF88800ADF80500324639460DF125
:1050E0000700FBF738F929466846FFF7B5F820783E
:1050F000FF2813D0401C20700A4C6FF0400021683C
:10510000086064232A4669462046FDF74BFB206869
:105110000168C9434906FBD425B0F0BD0020EAE789
:10512000040000205C02002018B40021ADF800103B
:105130004749026840F202248A6102790A77B0F88E
:105140000520ADF8002092B2A2F20223A2425DD067
:105150001EDCB2F5817F48D00EDC012A30D0022A55
:105160003BD0032A3CD0B2EB640203D1D0F8070055
:10517000C1F80A0018BC7047A2F58072033A39D012
:10518000012A3ED0FE2AF5D1C11D1B22314846E03E
:10519000042B4AD008DC012B3DD0022B42D0032B3C
:1051A000E8D1C079C870E5E7052B41D0062B48D07F
:1051B000FF2BDFD150F8072F8A6280888885D9E7D6
:1051C000244950F8072F343941F8092F42684A60C2
:1051D00002890A81807A8872CCE7C0794870C9E771
:1051E000C11D1C482022203819E0D0F80700C1F862
:1051F0000E00BFE7B0F80720A1F80720407A4872F8
:10520000B8E7B0F80700A1F80500B3E7C11D1148E1
:1052100010221B3003E0C11D0E4810222B3018BC99
:10522000FBF799B8C0798870A4E7C0790871A1E745
:1052300050F8072F41F82E2F82888A808079887154
:1052400098E750F8072FC1F822208088C88491E79A
:105250009C000020580C00202DE9F041A527414C6E
:105260004148FFF7A6FB414E0025706172E03E48C1
:10527000FFF740FB307094F8861006294BD2DFE828
:1052800001F003131D2D384DB8420AD1012184F8D5
:105290008610B4F88710A31D4A1CA4F88720C854B0
:1052A00058E0A4F8875055E0A080B4F88710A31DFB
:1052B0004A1CA4F88720C854022017E0A188A31D27
:1052C00041EA0021A180B4F887104A1CA4F8872085
:1052D000C854A08877281ED2032007E0B4F88710AE
:1052E000A31D4A1CA4F88720C854042084F8860013
:1052F00030E0B4F88710A31D4A1CA4F88720C854D6
:10530000B4F88700052825D10521A01D00F0B0FACA
:1053100008B10520EAE784F88650C2E7A288B4F80D
:1053200087100932914204D2A31D4A1CA4F8872099
:10533000C854A188B4F88700093188420AD384F898
:105340008650A4F88750A01D00F074FA10B1A01D7B
:10535000FFF7EAFE0448FFF72CFB002887D1BDE8E1
:10536000F0810000A40B0020941000209C0000207D
:10537000084910B54FF40072A1F50070FDF77AFCF2
:105380000549BDE810404FF48062A1F11800FFF715
:10539000C7BA0000940E0020AC100020024924225D
:1053A000A1F12400FDF7F6BB800B0020002847D0B8
:1053B000002945D00278437842EA0322C2F30A0268
:1053C0000A8042788378D20842EA4312C2F30A0282
:1053D0004A808278C378920942EA8302037942EADA
:1053E0008322C2F30A028A8002794379520842EA90
:1053F000C312C2F30A02CA804279C2F301128A724E
:1054000042799209CA728279C37942EA03228A8177
:10541000027A437A42EA0322CA81827AC37A42EA52
:1054200003220A82027B8A74427BCA74827BC37B1A
:1054300042EA03228A82027C407C42EA0020088100
:105440007047000030B58DB0FFF7D8FB044608A9BF
:1054500009A8FFF7E3FB07AA0AA90BA8FFF7D4FBEB
:105460009DED0A0A00252046BDF820200095BDEEDE
:10547000C00A8DF80000100ABDF824308DF8010034
:1054800010EE101A8DF80220180A01958DF803000D
:105490008DF80430080A8DF805008DF806109DF887
:1054A0001C408DF8074069460248FBF7F3F80DB041
:1054B00030BD000064010020084991ED130ABDEEE3
:1054C000C00A10EE100A91ED140A00B2BDEEC00A37
:1054D00010EE101A09B2FEF77BBF0000C8040020CE
:1054E000F0B530EE411A70EEE11A6248FDEEE00AC6
:1054F0000146BDEEC11AFDEEE11ABDEEC00A067806
:1055000001258B690222F6B1D1ED032A91ED052A1E
:1055100003240021012E36D00746022ED7ED041AAF
:105520004FD0032E1ED1B8EEE11AB4EEC21AF1EE3E
:1055300010FA69DDB8EEE21AB4EEC21AF1EE10FA12
:1055400062DD016126E011EE101A002900DA4942FD
:10555000994208DD10EE101A002900DA4942642948
:1055600001DD0570F0BD11EE901A002900DA494204
:105570009942F7DD10EE901A002900DA49425A29C3
:10558000F0DD0270F0BDB8EEE21AB4EEC21AF1EE30
:1055900010FA01DDC1601CE010EE102A002A00DACA
:1055A0005242022A01DC017062E011EE901A0029D9
:1055B00000DA49429942E5DD10EE901A1EE04942B8
:1055C0001EE0F8EEE11AF4EEC21AF1EE10FA02DD76
:1055D00001610170F0BD10EE902A002A00DA5242FB
:1055E000022A02DC01700161F0BD11EE101A0029DF
:1055F00000DA49429942F7DD10EE101A0029DEDB8D
:105600005A29F1DD0470F0BDB8EEE21AB4EEC21A08
:10561000F1EE10FA01DDC160B3E7B8EEE11AB4EEC5
:10562000C21AF1EE10FA01DD01619AE710EE903A2C
:10563000002B00DA5B42022B09DC10EE103A002B43
:1056400000DA5B42022B02DC0170016110E010EE17
:10565000903A002B00DA5B42022B01DC05700161FD
:1056600010EE103A002B00DA5B42022BCBDC02700A
:10567000C160F0BD1400002030B5B0EE603AF0EE2D
:10568000403A0C460546D1ED000A90ED000AF0EED6
:10569000431AB0EE631AFFF723FF404A1078002840
:1056A0003FD001283ED002285AD0032839D11069B2
:1056B000401C106102280BDC94ED000AD2ED050AB3
:1056C00030EE430A80EE201A82ED161A82ED183A67
:1056D000D068401CD06001280BDC95ED000AD2EDAB
:1056E000050A30EE630A80EE201A82ED151AC2ED2B
:1056F000173A00EE100AD2ED170A92ED151AB8EE1D
:10570000C00A41EE000AC5ED000AD2ED040A92ED8E
:10571000180A92ED161AF8EEE00A01EE200A84ED5E
:10572000000A30BDD068401CD06001280BDC95ED2C
:10573000000AD2ED050A30EE630A80EE201A82EDEF
:10574000151AC2ED173A00EE100AD2ED170A92EDC3
:10575000151AB8EEC00A41EE000AC5ED000A30BDC8
:105760001069401C106102280BDC94ED000AD2ED98
:10577000050A30EE430A80EE201A82ED161A82EDF9
:10578000183A00EE100AD2ED180A92ED161AB8EE89
:10579000C00A41EE000AC4ED000A30BD140000202A
:1057A00038B5224C6068401C60606846FFF7C2F95B
:1057B000BDF800104D20372918D006DC28290BD061
:1057C0002D290BD032290AD10EE03C2907D05029CF
:1057D0000ED0642903D10DE0492000E04A2060701A
:1057E0002079C00708D00EE04B20F8E74C20F6E700
:1057F0005120F4E75520F2E70C4914230122491CFB
:105800000B48FCF7CFFF61681E2091FBF0F200FB14
:10581000121028B91423012204490548FCF7C2FFDD
:105820006068642801DB0020606038BDD40000207F
:10583000D401002030B50C46050014D0022C12D93A
:105840000A48A11E02882846FFF7ECF82919C2B2BF
:1058500011F8023C9A4206D111F8011CB1EB102F4D
:1058600001D1012030BD002030BD0000000100202A
:1058700030B50C4605000CD0022C0AD9FF22611E5F
:10588000FFF7E6F8291911F8011C814201D1012026
:1058900030BD002030BD000030B5D0E90323D21A5E
:1058A0001D4B02601C78012C33D1002A144600DA0B
:1058B0006442B4F5FA7F846801DC1444846041F2E8
:1058C0008835AC4202DC6D42AC4200DA856000EE05
:1058D000102AD1ED030AB8EEC00A20EE800ABDEE10
:1058E000C00A10EE102A426190ED020AD1ED040ABE
:1058F000B8EEC00A20EE800ABDEEC00A10EE101A03
:10590000816111445A68914202DC5242914201DAAB
:10591000026230BD016230BD0C00002081F0004108
:10592000704780F00040704721F00041704720F040
:105930000040704721F00042A2F16052B2F5801F92
:1059400001F0004328BFD2F17F6C0BD95FEA001C45
:1059500043EAC20242EB507018BF704728BF20F0E4
:1059600001007047B2F5801FBCBF184670474FEA70
:10597000410C1CF5001F02D2084600F019BD70B59D
:1059800000F056FB00000089FFF7F6BF4FF0004023
:10599000A0F580007047000010B591EA030F48BFE2
:1059A00083F0004300F1AC83841A71EB030C05D241
:1059B000121943EB0C03001B61EB0C01DFF824E12F
:1059C0004FEA1154A4EB135C1EEA430F18BF9EEA82
:1059D000445F73D023EA0E03DCF1200E21EA045168
:1059E00043F4801332D322FA0CFE10EB0E0023FA9C
:1059F0000CFE41EB0E01CCF1200E03FA0EFE10EB73
:105A00000E0051F10001B1F5801FCCF1200E32D211
:105A100001EB045112FA0EF2BDE8104058BF704776
:105A2000401C38BF5FEA420218BF7047002814BF0D
:105A300020F0010041F100014FEA410313F5001F7E
:105A400038BF7047A1F1C04100F040BB012A43EBD1
:105A50000302ACF1200CDCF11F0E32BF4FF0000E40
:105A600023FA0CF310EB030041EB0451B4EB115F8C
:105A7000D0D0A1EB045101F5801149085FEA300054
:105A800001EB04510ED350F1000038BF12FA0EFEA4
:105A900008D1BDE81040C9E7401C38BF5FEA4202A8
:105AA000CAD1C3E7BDE810404FEA410313F5001F18
:105AB00038BF7047A1F1C04100F008BB9EEA445FC7
:105AC00008D011EA5E0FBDE8104004BF01F00041AC
:105AD00000207047BDE8104070B500F0A9FA00BF83
